:020000040800F2
:1000000000500020B54D0008C14C0008C94C000844
:10001000D14C0008D94C0008E14C00080000000059
:10002000000000000000000000000000E94C000893
:10003000F54C000800000000014D00080D4D0008BF
:10004000FD4D0008194D0008FD4D0008FD4D00084C
:10005000FD4D0008FD4D0008FD4D0008FD4D000858
:10006000FD4D0008254D0008FD4D0008FD4D000820
:10007000FD4D0008FD4D0008FD4D0008FD4D000838
:10008000FD4D0008FD4D0008FD4D0008FD4D000828
:10009000354D0008FD4D0008FD4D0008FD4D0008E0
:1000A000FD4D0008FD4D0008FD4D0008FD4D000808
:1000B000494D0008FD4D0008FD4D0008FD4D0008AC
:1000C000FD4D0008FD4D0008FD4D0008FD4D0008E8
:1000D000FD4D0008FD4D0008FD4D0008FD4D0008D8
:1000E0005D4D0008FD4D0008FD4D000800000000BA
:1000F0000000000000000000000000000000000000
:0C01000000000000000000005FF808F1A3
:1001100010B5054C237833B9044B13B10448AFF341
:1001200000800123237010BDF007002000000000B4
:100130004084000808B5034B1BB103490348AFF3E3
:10014000008008BD00000000F40700204084000883
:1001500081F0004102E000BF83F0004330B54FEA78
:1001600041044FEA430594EA050F08BF90EA020FE5
:100170001FBF54EA000C55EA020C7FEA645C7FEA78
:10018000655C00F0E2804FEA5454D4EB5555B8BF9B
:100190006D420CDD2C4480EA020281EA030382EA0C
:1001A000000083EA010180EA020281EA0303362D9E
:1001B00088BF30BD11F0004F4FEA01314FF4801C71
:1001C0004CEA113102D0404261EB410113F0004F83
:1001D0004FEA03334CEA133302D0524263EB43033A
:1001E00094EA050F00F0A780A4F10104D5F1200ED8
:1001F0000DDB02FA0EFC22FA05F2801841F1000133
:1002000003FA0EF2801843FA05F359410EE0A5F106
:1002100020050EF1200E012A03FA0EFC28BF4CF037
:10022000020C43FA05F3C01851EBE37101F00045ED
:1002300007D54FF0000EDCF1000C7EEB00006EEBFA
:100240000101B1F5801F1BD3B1F5001F0CD3490884
:100250005FEA30004FEA3C0C04F101044FEA4452DB
:1002600012F5800F80F09A80BCF1004F08BF5FEA62
:10027000500C50F1000041EB045141EA050130BD42
:100280005FEA4C0C404141EB0101013C28BFB1F554
:10029000801FE9D291F0000F04BF01460020B1FA9F
:1002A00081F308BF2033A3F10B03B3F120020CDA72
:1002B0000C3208DD02F1140CC2F10C0201FA0CF050
:1002C00021FA02F10CE002F11402D8BFC2F1200CB5
:1002D00001FA02F120FA0CFCDCBF41EA0C0190406B
:1002E000E41AA2BF01EB0451294330BD6FEA0404B4
:1002F0001F3C1CDA0C340EDC04F11404C4F120029F
:1003000020FA04F001FA02F340EA030021FA04F3B0
:1003100045EA030130BDC4F10C04C4F1200220FA07
:1003200002F001FA04F340EA0300294630BD21FA45
:1003300004F0294630BD94F0000F83F4801306BF0B
:1003400081F480110134013D4EE77FEA645C18BFFF
:100350007FEA655C29D094EA050F08BF90EA020F96
:1003600005D054EA000C04BF1946104630BD91EA8E
:10037000030F1EBF0021002030BD5FEA545C05D191
:100380004000494128BF41F0004130BD14F58004D0
:100390003CBF01F5801130BD01F0004545F0FE4144
:1003A00041F470014FF0000030BD7FEA645C1ABF79
:1003B000194610467FEA655C1CBF0B46024650EAB0
:1003C000013406BF52EA033591EA030F41F40021DC
:1003D00030BD00BF90F0000F04BF0021704730B562
:1003E0004FF4806404F132044FF000054FF0000137
:1003F00050E700BF90F0000F04BF0021704730B5F8
:100400004FF4806404F1320410F0004548BF4042CC
:100410004FF000013EE700BF42004FEAE2014FEA21
:1004200031014FEA02701FBF12F07F4393F07F4FFC
:1004300081F06051704732F07F4208BF704793F0FF
:100440007F4F04BF41F40021704730B54FF4607412
:1004500001F0004521F000411CE700BF50EA010215
:1004600008BF704730B54FF000050AE050EA0102BE
:1004700008BF704730B511F0004502D5404261EB2E
:1004800041014FF4806404F132045FEA915C3FF46F
:10049000D8AE4FF003025FEADC0C18BF03325FEA0C
:1004A000DC0C18BF033202EBDC02C2F1200300FABD
:1004B00003FC20FA02F001FA03FE40EA0E0021FAE2
:1004C00002F11444BDE600BF70B54FF0FF0C4CF4D0
:1004D000E06C1CEA11541DBF1CEA135594EA0C0F82
:1004E00095EA0C0F00F0DEF82C4481EA030621EABD
:1004F0004C5123EA4C5350EA013518BF52EA0335F8
:1005000041F4801143F4801338D0A0FB02CE4FF0A9
:100510000005E1FB02E506F00042E0FB03E54FF0D9
:100520000006E1FB03569CF0000F18BF4EF0010ED1
:10053000A4F1FF04B6F5007F64F5407404D25FEACD
:100540004E0E6D4146EB060642EAC62141EA555180
:100550004FEAC52040EA5E504FEACE2EB4F1FD0CC2
:1005600088BFBCF5E06F1ED8BEF1004F08BF5FEA40
:10057000500E50F1000041EB045170BD06F00046F2
:1005800046EA010140EA020081EA0301B4EB5C049F
:10059000C2BFD4EB0C0541EA045170BD41F4801197
:1005A0004FF0000E013C00F3AB8014F1360FDEBFBC
:1005B000002001F0004170BDC4F10004203C35DA98
:1005C0000C341BDC04F11404C4F1200500FA05F31B
:1005D00020FA04F001FA05F240EA020001F00042BC
:1005E00021F0004110EBD37021FA04F642EB060132
:1005F0005EEA430E08BF20EAD37070BDC4F10C045C
:10060000C4F1200500FA04F320FA05F001FA04F21F
:1006100040EA020001F0004110EBD37041F100010B
:100620005EEA430E08BF20EAD37070BDC4F1200516
:1006300000FA05F24EEA020E20FA04F301FA05F27E
:1006400043EA020321FA04F001F0004121FA04F226
:1006500020EA020000EBD3705EEA430E08BF20EAF6
:10066000D37070BD94F0000F0FD101F00046400030
:1006700041EB010111F4801F08BF013CF7D041EAB2
:10068000060195F0000F18BF704703F000465200B6
:1006900043EB030313F4801F08BF013DF7D043EA87
:1006A0000603704794EA0C0F0CEA135518BF95EA3D
:1006B0000C0F0CD050EA410618BF52EA4306D1D1C4
:1006C00081EA030101F000414FF0000070BD50EAE3
:1006D000410606BF1046194652EA430619D094EA6D
:1006E0000C0F02D150EA013613D195EA0C0F05D157
:1006F00052EA03361CBF104619460AD181EA0301AB
:1007000001F0004141F0FE4141F470014FF0000062
:1007100070BD41F0FE4141F4780170BD70B54FF0FD
:10072000FF0C4CF4E06C1CEA11541DBF1CEA13557D
:1007300094EA0C0F95EA0C0F00F0A7F8A4EB05045F
:1007400081EA030E52EA03354FEA013100F0888056
:100750004FEA03334FF0805545EA131343EA12631F
:100760004FEA022245EA111545EA10654FEA0026D4
:100770000EF000419D4208BF964244F1FD0404F58D
:10078000407402D25B084FEA3202B61A65EB0305E9
:100790005B084FEA32024FF480104FF4002CB6EBA6
:1007A000020E75EB030E22BFB61A754640EA0C0026
:1007B0005B084FEA3202B6EB020E75EB030E22BF66
:1007C000B61A754640EA5C005B084FEA3202B6EBA7
:1007D000020E75EB030E22BFB61A754640EA9C0066
:1007E0005B084FEA3202B6EB020E75EB030E22BF36
:1007F000B61A754640EADC0055EA060E18D04FEAF4
:10080000051545EA16754FEA06164FEAC30343EA93
:1008100052734FEAC2025FEA1C1CC0D111F4801F60
:100820000BD141EA00014FF000004FF0004CB6E759
:1008300011F4801F04BF01430020B4F1FD0C88BFF8
:10084000BCF5E06F3FF6AFAEB5EB030C04BFB6EB03
:10085000020C5FEA500C50F1000041EB045170BDF6
:100860000EF0004E4EEA113114EB5C04C2BFD4EB23
:100870000C0541EA045170BD41F480114FF0000EA7
:10088000013C90E645EA060E8DE60CEA135594EA23
:100890000C0F08BF95EA0C0F3FF43BAF94EA0C0F26
:1008A0000AD150EA01347FF434AF95EA0C0F7FF49B
:1008B00025AF104619462CE795EA0C0F06D152EAEF
:1008C00003353FF4FDAE1046194622E750EA4106D3
:1008D00018BF52EA43067FF4C5AE50EA41047FF4E4
:1008E0000DAF52EA43057FF4EBAE12E74FEA410247
:1008F00012F5001215D211D56FF47873B3EB625272
:1009000012D94FEAC12343F0004343EA505311F098
:10091000004F23FA02F018BF404270474FF000002A
:10092000704750EA013005D111F0004008BF6FF068
:10093000004070474FF00000704700BF4A0011D2DE
:1009400012F5001211D20DD56FF47873B3EB625229
:100950000ED44FEAC12343F0004343EA505323FA35
:1009600002F070474FF00000704750EA013002D1AA
:100970004FF0FF3070474FF0000070474FEA4102E0
:10098000B2F1E04324BFB3F5001CDCF1FE5C0DD9ED
:1009900001F0004C4FEAC0024CEA5070B2F1004F37
:1009A00040EB830008BF20F00100704711F0804F3A
:1009B00021D113F13872BCBF01F00040704741F4FF
:1009C00080114FEA5252C2F11802C2F1200C10FA03
:1009D0000CF320FA02F018BF40F001004FEAC123E7
:1009E0004FEAD32303FA0CFC40EA0C0023FA02F38B
:1009F0004FEA4303CCE77FEA625307D150EA013361
:100A00001EBF4FF0FE4040F44000704701F0004030
:100A100040F0FE4040F40000704700BF80F000400E
:100A200002E000BF81F0004142001FBF5FEA4103C6
:100A300092EA030F7FEA226C7FEA236C6AD04FEAC6
:100A40001262D2EB1363C1BFD2184140484041400B
:100A5000B8BF5B42192B88BF704710F0004F40F4BD
:100A6000000020F07F4018BF404211F0004F41F4D9
:100A7000000121F07F4118BF494292EA030F3FD0A5
:100A8000A2F1010241FA03FC10EB0C00C3F12003B8
:100A900001FA03F100F0004302D5494260EB400047
:100AA000B0F5000F13D3B0F1807F06D340084FEAB2
:100AB000310102F10102FE2A51D2B1F1004F40EBA7
:100AC000C25008BF20F0010040EA0300704749000F
:100AD00040EB0000013A28BFB0F5000FEDD2B0FAAC
:100AE00080FCACF1080CB2EB0C0200FA0CF0AABFCF
:100AF00000EBC25052421843BCBFD040184370476D
:100B000092F0000F81F4000106BF80F40000013272
:100B1000013BB5E74FEA41037FEA226C18BF7FEA49
:100B2000236C21D092EA030F04D092F0000F08BF8B
:100B30000846704790EA010F1CBF0020704712F072
:100B40007F4F04D1400028BF40F00040704712F1B1
:100B500000723CBF00F50000704700F0004343F016
:100B6000FE4040F4000070477FEA226216BF08464C
:100B70007FEA23630146420206BF5FEA412390EA0F
:100B8000010F40F4800070474FF0000304E000BF05
:100B900010F0004348BF40425FEA000C08BF7047B6
:100BA00043F0964301464FF000001CE050EA01027A
:100BB00008BF70474FF000030AE000BF50EA01028F
:100BC00008BF704711F0004302D5404261EB41017C
:100BD0005FEA010C02BF84460146002043F0B643A1
:100BE00008BFA3F18053A3F50003BCFA8CF2083AC6
:100BF000A3EBC25310DB01FA02FC634400FA02FCCF
:100C0000C2F12002BCF1004F20FA02F243EB0200D5
:100C100008BF20F00100704702F1200201FA02FC37
:100C2000C2F1200250EA4C0021FA02F243EB02002A
:100C300008BF20EADC7070474FF0FF0C1CEAD0526E
:100C40001EBF1CEAD15392EA0C0F93EA0C0F6FD02F
:100C50001A4480EA010C400218BF5FEA41211ED00D
:100C60004FF0006343EA501043EA5111A0FB0131F9
:100C70000CF00040B1F5000F3EBF490041EAD371CE
:100C80005B0040EA010062F17F02FD2A1DD8B3F14A
:100C9000004F40EBC25008BF20F00100704790F0B9
:100CA000000F0CF0004C08BF49024CEA502040EA0B
:100CB00051207F3AC2BFD2F1FF0340EAC2507047D1
:100CC00040F400004FF00003013A5DDC12F1190F0F
:100CD000DCBF00F000407047C2F10002410021FA81
:100CE00002F1C2F1200200FA02FC5FEA310040F199
:100CF000000053EA4C0308BF20EADC70704792F012
:100D0000000F00F0004C02BF400010F4000F013A49
:100D1000F9D040EA0C0093F0000F01F0004C02BF44
:100D2000490011F4000F013BF9D041EA0C018FE7B3
:100D30000CEAD15392EA0C0F18BF93EA0C0F0AD0B9
:100D400030F0004C18BF31F0004CD8D180EA0100DF
:100D500000F00040704790F0000F17BF90F0004F78
:100D6000084691F0000F91F0004F14D092EA0C0F5A
:100D700001D142020FD193EA0C0F03D14B0218BFED
:100D8000084608D180EA010000F0004040F0FE4033
:100D900040F40000704740F0FE4040F440007047CF
:100DA0004FF0FF0C1CEAD0521EBF1CEAD15392EA4E
:100DB0000C0F93EA0C0F69D0A2EB030280EA010C3E
:100DC00049024FEA402037D04FF0805343EA1111D7
:100DD00043EA10130CF000408B4238BF5B0042F135
:100DE0007D024FF4000C8B4224BF5B1A40EA0C00DA
:100DF000B3EB510F24BFA3EB510340EA5C00B3EB0C
:100E0000910F24BFA3EB910340EA9C00B3EBD10FF9
:100E100024BFA3EBD10340EADC001B0118BF5FEA4B
:100E20001C1CE0D1FD2A3FF650AF8B4240EBC25074
:100E300008BF20F0010070470CF0004C4CEA502035
:100E40007F32C2BFD2F1FF0340EAC250704740F484
:100E500000004FF00003013A37E792F0000F00F076
:100E6000004C02BF400010F4000F013AF9D040EAF4
:100E70000C0093F0000F01F0004C02BF490011F488
:100E8000000F013BF9D041EA0C0195E70CEAD15380
:100E900092EA0C0F08D142027FF47DAF93EA0C0F67
:100EA0007FF470AF084676E793EA0C0F04D14B024B
:100EB0003FF44CAF08466EE730F0004C18BF31F0FD
:100EC000004CCAD130F000427FF45CAF31F00043F7
:100ED0007FF43CAF5FE700BF4FEA4002B2F1FE4F44
:100EE0000FD34FF09E03B3EB12620DD94FEA0023EC
:100EF00043F0004310F0004F23FA02F018BF4042C5
:100F000070474FF00000704712F1610F01D14202AB
:100F100005D110F0004008BF6FF0004070474FF05F
:100F20000000704742000ED2B2F1FE4F0BD34FF0DB
:100F30009E03B3EB126209D44FEA002343F000434F
:100F400023FA02F070474FF00000704712F1610F72
:100F500001D1420202D14FF0FF3070474FF0000044
:100F6000704700BF80B582B000AF0346FB71154BE0
:100F70004FF022321A60144B5B69134A43F00103AD
:100F80005361114B5B69104A43F480635361FB79F1
:100F9000184601F0EDFC0C4BDB680B4A43F00203F2
:100FA000D360094B5B69084A43F002035361064B67
:100FB000DB68054A43F48063D36000BF0837BD4651
:100FC00080BD00BF00080140000C014080B588B022
:100FD00000AF0023FB6148E00023BB613FE0774B9B
:100FE0004FF022321A60FB69DBB2503BDBB218468D
:100FF000FFF7B8FFBB69DBB2184600F035F9704B5C
:101000005B696F4A43F4806353616D4BDB686C4AE4
:1010100043F00103D3606A4B5B69694A43F0800384
:101020005361684AFB69DB011A44BB6913441A78AF
:10103000624BDA60624BDB68614A43F00203D360C3
:101040005F4B5B695E4A43F0020353615C4BDB68B4
:101050005B4A43F48063D360BB690133BB61BB6906
:101060007F2BBCDDFB690133FB61FB69072BB3DD23
:1010700000237B615CE00023FB700123FB740023F1
:10108000FB6049E07B69DBB2503BDBB21846FFF7FF
:1010900069FFFB68DBB2184600F0E6F8474B4FF0FB
:1010A00088321A60464B5B69454A43F4806353615A
:1010B000434BDB68424A43F00103D360404BDB689B
:1010C0003F4A43F08003D3603D4BDB683C4A43F02A
:1010D0000203D360FB7C012B03D1FB7C0133FB7447
:1010E0000BE0364B9A68FB68013BD0B236497A690F
:1010F000D2010A44134402461A70314B5B69304AEC
:1011000043F0020353612E4BDB682D4A43F48063A6
:10111000D360FB680133FB60FB68802BB2DD284B9A
:101120005B69274A43F0800353617B6901337B612C
:101130007B69072B9FDD0023BB6036E000237B60CB
:101140002DE0204ABB68DB011A447B6813441A78FF
:101150001D49BB68DB0119447B680B441B789A422C
:1011600017D01A4B1B8801339AB2184B1A807B6830
:10117000DAB2174B1A70BB68DAB2164B1A70134BFF
:101180001B88092B08D9144B01221A7000F026F88D
:1011900008E00E4B00221A807B6801337B607B687D
:1011A0007F2BCEDDBB680133BB60BB68072BC5DD81
:1011B00000BF00BF2037BD4680BD00BF0008014012
:1011C000000C01400C0C00200C1000200C1400201E
:1011D0000F1400200E140020A007002080B500AFDF
:1011E0001F4B4FF022321A601E4B5B691D4A43F4BD
:1011F00080635361002204211A4804F08AFF3220E0
:1012000003F060FE01220421164804F082FFA220B0
:10121000FFF7A8FEA020FFF7A5FEC020FFF7A2FE63
:101220004020FFF79FFE2C20FFF79CFE322003F0AA
:1012300049FE2E20FFF796FE322003F043FE2F20BA
:10124000FFF790FE322003F03DFE2420FFF78AFED8
:10125000AF20FFF787FEA420FFF784FE00BF80BD0C
:1012600000080140000C014080B582B000AF034689
:10127000FB71FB791B09DBB243F01003DBB21846AC
:10128000FFF770FEFB7903F00F03DBB21846FFF7A0
:1012900069FE00BF0837BD4680BD000080B485B040
:1012A00000AF0023FB601FE00023FB727F237B6005
:1012B00014E0FB7A5A1CFA721846104AFB68DB01EC
:1012C0001A447B68134419780D4AFB68DB01134408
:1012D00003440A461A707B68013B7B607B68002BE5
:1012E000E7DAFB680133FB60FB68072BDCDD00BF3E
:1012F00000BF1437BD4680BC704700BF0C080020FB
:101300000C0C0020B0B584B000AF03460A46FB7158
:101310001346BB7100237B73FB79634AA2FB032353
:101320005B093B73FB79604AA2FB031252096421FB
:1013300001FB02F29B1ADBB25C4AA2FB0323DB082F
:10134000FB72FB79584AA2FB03125209642101FB8C
:1013500002F29B1ADAB2554BA3FB0213D9080B46D3
:101360009B000B445B00D31ABB7200237B730023EA
:10137000BB7320E00023FB7317E0B87BFB7B03F11A
:101380002E04FA7A797B4A4D13469B001344DB0105
:101390002B440B441B781A46214600F081FB7B7BD3
:1013A00001337B73FB7B0133FB73FB7B0F2BE4D996
:1013B000BB7B0133BB73BB7B032BDBD900237B736C
:1013C0000023BB7320E00023FB7317E0B87BFB7B9B
:1013D00003F14004BA7A797B354D13469B001344E0
:1013E000DB012B440B441B781A46214600F058FBC6
:1013F0007B7B01337B73FB7B0133FB73FB7B0F2B0D
:10140000E4D9BB7B0133BB73BB7B032BDBD900234C
:101410007B73BB79012B1FD10023BB7319E0002321
:10142000FB7310E0BB7B181DFB7B03F134017B7B5E
:10143000204AD35C1A4600F033FB7B7B01337B737D
:10144000FB7B0133FB73FB7B142BEBD9BB7B0133A1
:10145000BB73BB7B002BE2D0BB79022B1FD10023D7
:10146000BB7319E00023FB7310E0BB7B181DFB7BF3
:1014700003F134017B7B0F4AD35C1A4600F010FB6A
:101480007B7B01337B73FB7B0133FB73FB7B172B74
:10149000EBD9BB7B0133BB73BB7B002BE2D000BF1E
:1014A0001037BD46B0BD00BF1F85EB51CDCCCCCCB5
:1014B00054860008D4A10008B0B584B000AF03463C
:1014C000FB710023FB73FB79002B1DD10323BB733E
:1014D00016E000237B730DE0B87B797BFB7B5A1C05
:1014E000FA731A461D4B9B5C1A4600F0D9FA7B7BB7
:1014F00001337B737B7B1C2BEED9BB7B0133BB732E
:10150000BB7B032BE5D925E003233B731FE00023BE
:10151000FB7216E0387BF97AFB795A1EFB7B5C1C68
:10152000FC731D460E4C13465B001344DA00D21ABE
:10153000A3182B441B781A4600F0B2FAFB7A013349
:10154000FB72FB7A142BE5D93B7B01333B733B7B6E
:10155000032BDCD900BF1037BD46B0BD3486000870
:10156000F4850008B0B584B000AF0346FB710023DA
:10157000FB730623BB731CE01A237B7313E0B87B59
:10158000797BFA79FB7B5C1CFC731D460D4C9A231E
:1015900002FB03F323442B441B781A4600F080FA25
:1015A0007B7B01337B737B7B662BE8D9BB7B013371
:1015B000BB73BB7B072BDFD90023FB7300BF103746
:1015C000BD46B0BD0004002080B582B000AF00234E
:1015D000FB712023BB710DE0B979FB795A1CFA71BC
:1015E0001A46084B9B5C1A46052000F059FABB7955
:1015F0000133BB71BB792F2BEED900BF00BF083779
:10160000BD4680BDECA1000880B582B000AF0023CC
:10161000FB715423BB710DE0B979FB795A1CFA7147
:101620001A46084B9B5C1A46002000F039FABB7939
:101630000133BB71BB79602BEED900BF00BF083707
:10164000BD4680BDFCA1000880B582B000AF00237C
:10165000FB716B23BB710DE0B979FB795A1CFA71F0
:101660001A46084B9B5C1A46022000F019FABB7917
:101670000133BB71BB797B2BEED900BF00BF0837AC
:10168000BD4680BD0CA2000890B585B000AF0346F2
:101690003A60FB710B46BB710123FB73FB7963F06E
:1016A0004F03DBB21846FFF75DFCBB791846FFF726
:1016B000DBFDB1E00023BB609AE03B681B78402B68
:1016C0001FD93B681B785A2B1BD83B681A78574B9D
:1016D0001A70F879BB795A1CBA711C46534B1B78A7
:1016E000A3F14102524913469B001344CA18BB6838
:1016F00013441B785B001A46214600F0D1F9012300
:10170000FB733B681B78602B1FD93B681B787C2BD5
:101710001BD83B681A78454B1A70F879BB795A1C6C
:10172000BA711C46414B1B78A3F14702404913464E
:101730009B001344CA18BB6813441B785B001A460D
:10174000214600F0ADF90023FB733B681B782F2B7B
:1017500020D93B681B78392B1CD83B681A78334B4F
:101760001A70F879BB795A1CBA711C462F4B1B783A
:10177000A3F130022F4913465B0013445B00CA18E3
:10178000BB6813441B785B001A46214600F088F9B9
:101790000123FB733B681B782E2B08D1F879BB79AA
:1017A0005A1CBA714022194600F07AF924E03B68CD
:1017B0001B78202B08D1F879BB795A1CBA7100220A
:1017C000194600F06DF917E03B681B78252B0CD10A
:1017D000F879BB795A1CBA711946174ABB68134489
:1017E0001B785B001A4600F05BF9BB680133BB60F5
:1017F000BB68042B7FF761AF3B6801333B60FB7B29
:10180000002B09D0F879BB795A1CBA71002219460D
:1018100000F046F90023FB733B681B78002B7FF434
:1018200049AF00BF00BF1437BD4690BD1014002063
:10183000C0840008848400087C84000880B485B0DB
:1018400000AF0346FB710B46BB7113467B7100234F
:10185000FB730DE0FA79BB79591CB9711846094937
:10186000D3010B44034400221A70FB7B0133FB734A
:10187000FA7B7B799A42EDD900BF00BF1437BD4691
:1018800080BC70470C08002090B585B000AF0346BF
:10189000FB710B46BB7113467B71FB7963F04F0301
:1018A000DBB21846FFF75EFBBB791846FFF7DCFC9E
:1018B0000023FB6016E0F879BB795A1CBA711C460C
:1018C0007A79104913465B0013445B00CA18FB6821
:1018D00013441B785B001A46214600F0E1F8FB68D0
:1018E0000133FB60FB68042BE5DDF879BB795A1CFA
:1018F000BA710022194600F0D3F800BF1437BD4674
:1019000090BD00BF8484000890B58BB000AF034643
:10191000FB710B46BB711346BB80002387F8273051
:10192000BB883B62FB7963F04F03DBB21846FFF7DD
:1019300019FBBB791846FFF797FC0023FB600CE00E
:1019400097F82730013387F827303B6A344A82FB07
:1019500003129210DB17D31A3B623B6A002BEFDCB9
:1019600097F82730013BDBB2FB774EE00123BB61E8
:101970000023FB7508E0BA6913469B0013445B0023
:10198000BB61FB7D0133FB75FA7D97F91F309A42ED
:10199000F1DBBA88BB6992FBF3F2214B83FB0213A4
:1019A0009910D317C91A0B469B000B445B00D11A40
:1019B0000B46BB7200233B6116E0F879BB795A1CD9
:1019C000BA711C46BA7A174913465B0013445B0090
:1019D000CA183B6913441B785B001A46214600F085
:1019E0005FF83B6901333B613B69042BE5DDF87926
:1019F000BB795A1CBA710022194600F051F897F9C8
:101A00001F30DBB2013BDBB2FB7797F91F30002BB5
:101A1000ACDA0023FB7200BF2C37BD4690BD00BF7F
:101A2000676666668484000880B582B000AF0023D4
:101A3000FB8000237B7117E000233B710DE0787978
:101A40003979FB885A1CFA801A46144B9B5C1A465B
:101A500000F026F83B7901333B7197F90430002BF5
:101A6000EDDA7B7901337B717B79072BE4D901F0C7
:101A7000C3F8A220FFF776FAA020FFF773FAC02080
:101A8000FFF770FA4020FFF76DFAFFF707FCFFF74A
:101A90009DFA00BF0837BD4680BD00BF0000002092
:101AA00080B483B000AF0346FB710B46BB71134695
:101AB0007B71FA79BB790549D2010A4413447A79DA
:101AC0001A7000BF0C37BD4680BC70470C08002060
:101AD00080B582B000AF0023FB710123BB7116E01B
:101AE00019237B710DE0FB795A1CFA711A460C4BD5
:101AF0009A5C7979BB791846FFF7D2FF7B7901337D
:101B00007B717B79262BEED9BB790133BB71BB7915
:101B1000022BE5D900BF00BF0837BD4680BD00BF1E
:101B20001CA2000880B582B000AF0023FB7114E056
:101B30000023BB710AE0FB790633DBB2B9790422DA
:101B40001846FFF7ADFFBB790133BB7197F906303B
:101B5000002BF0DAFB790133FB71FB79002BE7D026
:101B600000BF00BF0837BD4680BD000080B582B011
:101B700000AF78607B687C4A934200F02B847B68DE
:101B8000794A934200F2E2867B68784A934200F0F9
:101B9000A7817B68754A934200F2D8867B68744AB5
:101BA000934200F07B817B68714A934200F2CE86BB
:101BB0007B68704A934200F0CB867B686D4A934203
:101BC00000F2C4867B686C4A934200F0E9807B682F
:101BD000694A934200F2BA867B68684A934200F0F1
:101BE000A0807B68654A934200F2B0867B68644AB5
:101BF000934200F084807B68614A934200F2A6869B
:101C00007B68604A934258D07B685E4A934200F2F8
:101C10009D867B685C4A93421AD07B685A4A9342FD
:101C200000F294867B68594A934200F04D867B68A7
:101C3000564A934200F28A867B68554A934200F0E6
:101C400069867B68534A934200F0508600F07EBE5E
:101C5000514B1B781B021AB24F4B5B781BB21343DC
:101C60001BB29AB24D4B1A804B4B9B781B021AB297
:101C7000494BDB781BB213431BB29AB2474B5A80D5
:101C8000454B1B791B021AB2434B5B791BB21343C2
:101C90001BB29BB2A3F5EA43303B9AB23F4B9A800A
:101CA0003D4B9B791B021AB23B4BDB791BB21343B2
:101CB0001AB23A4B9A8100F04CBE374B1B781B028C
:101CC0001AB2354B5B781BB213431BB29AB2334B3B
:101CD000DA81314B9A78314B1A742F4BDB781B0227
:101CE0001AB22D4B1B791BB213431BB29AB22B4B6A
:101CF0005A82294B5A79294B1A7500F02ABE264B75
:101D00001A78264B5A75244B5A78244B9A75224BD5
:101D10009A78224BDA75204BDA78204B1A7600F04D
:101D200018BE1D4B1A781D4B5A761B4B5A781B4B0D
:101D30009A76194B9A78194BDA76174BDA78174B53
:101D40001A77154B1B791A06134B5B791B041A4340
:101D5000114B9B791B0213430F4AD27913431A4646
:101D60000E4B1A6200F0F5BD01409818014097181B
:101D700001409618014095180140941801409318AD
:101D800001409218014091180140901801405218EA
:101D90002420010901405018141400201C140020B4
:101DA0004D4B1A784D4B83F824204B4B5A784B4BB4
:101DB00083F82520484B9A78484B83F82620464BD9
:101DC000DA78464B83F82720434B1B7903F0010355
:101DD000D9B2424A92F8283061F3000382F82830E1
:101DE0003D4B1B795B1003F00103D9B23B4A92F8DB
:101DF000283061F3410382F82830374B1B799B1060
:101E000003F00103D9B2354A92F8283061F3820316
:101E100082F82830304B1B79DB1003F00103D9B274
:101E20002E4A92F8283061F3C30382F828302A4BF7
:101E30001B791B1103F00103D9B2284A92F828300C
:101E400061F3041382F82830234B1B795B1103F0F4
:101E50000103D9B2214A92F8283061F3451382F880
:101E600028301D4B1B799B1103F00103D9B21B4A8B
:101E700092F8283061F3861382F82830164B1B79CC
:101E8000DB09DBB203F00103D9B2144A92F828301F
:101E900061F3C71382F8283000F05BBD0E4B5B780E
:101EA000283BDAB20D4B83F82E200B4B9B78283B56
:101EB000DAB20A4B83F82F20074BDB78283BDAB2E3
:101EC000064B83F83020044B1B79283BDAB2034BD6
:101ED00083F8312000F03DBD141400201C140020B4
:101EE000C04B1B7803F00103D9B2BF4A92F83230DD
:101EF00061F3000382F83230BA4B1B785B1003F0B9
:101F00000103D9B2B84A92F8323061F3410382F842
:101F10003230B44B1B789B1003F00103D9B2B24AA4
:101F200092F8323061F3820382F83230AD4B1B7885
:101F3000DB1003F00103D9B2AB4A92F8323061F3FF
:101F4000C30382F83230A74B1B781B1103F0010347
:101F5000D9B2A54A92F8323061F3041382F83230D4
:101F6000A04B1B785B1103F00103D9B29E4A92F893
:101F7000323061F3451382F832309A4B1B789B1153
:101F800003F00103D9B2984A92F8323061F3861314
:101F900082F83230934B1B78DB09DBB203F001038C
:101FA000D9B2914A92F8323061F3C71382F83230D5
:101FB0008C4B5B7803F00103D9B28B4A92F8333033
:101FC00061F3000382F83330864B5B785B1003F0DB
:101FD0000103D9B2844A92F8333061F3410382F8A5
:101FE0003330804B5B789B1003F00103D9B27E4AFB
:101FF00092F8333061F3820382F83330794B5B78A7
:10200000DB1003F00103D9B2774A92F8333061F361
:10201000C30382F83330734B5B781B1103F0010369
:10202000D9B2714A92F8333061F3041382F8333035
:102030006C4B5B785B1103F00103D9B26A4A92F8EA
:10204000333061F3451382F83330664B5B789B1174
:1020500003F00103D9B2644A92F8333061F3861376
:1020600082F833305F4B5B78DB09DBB203F00103AE
:10207000D9B25D4A92F8333061F3C71382F8333036
:10208000584B9B7803F00103D9B2574A92F8343089
:1020900061F3000382F83430524B9B785B1003F0FD
:1020A0000103D9B2504A92F8343061F3410382F807
:1020B00034304C4B9B789B1003F00103D9B24A4A51
:1020C00092F8343061F3820382F83430454B9B78C8
:1020D000DB1003F00103D9B2434A92F8343061F3C4
:1020E000C30382F834303F4B9B781B1103F001038C
:1020F000D9B23D4A92F8343061F3041382F8343097
:10210000384B9B785B1103F00103D9B2364A92F841
:10211000343061F3451382F83430324B9B789B1195
:1021200003F00103D9B2304A92F8343061F38613D8
:1021300082F834302B4B9B78DB09DBB203F00103D0
:10214000D9B2294A92F8343061F3C71382F8343097
:10215000244BDB7803F00103D9B2234A92F83530DF
:1021600061F3000382F835301E4BDB785B1003F01F
:102170000103D9B21C4A92F8353061F3410382F869
:102180003530184BDB789B1003F00103D9B2164AA7
:1021900092F8353061F3820382F83530114BDB78E9
:1021A000DB1003F00103D9B20F4A92F8353061F326
:1021B000C30382F835300B4BDB781B1103F00103AE
:1021C000D9B2094A92F8353061F3041382F83530F8
:1021D000044BDB785B1103F00103D9B2024A92F899
:1021E000353003E0141400201C14002061F3451363
:1021F00082F83530754BDB789B1103F00103D9B2BF
:10220000734A92F8353061F3861382F835306F4B9C
:10221000DB78DB09DBB203F00103D9B26C4A92F838
:10222000353061F3C71382F83530684B1B7903F002
:102230000103D9B2664A92F8363061F3000382F89E
:102240003630624B1B795B1003F00103D9B2604A50
:1022500092F8363061F3410382F836305B4B1B79DC
:102260009B1003F00103D9B2594A92F8363061F35A
:10227000820382F83630554B1B79DB1003F00103E3
:10228000D9B2534A92F8363061F3C30382F836303C
:102290004E4B1B791B1103F00103D9B24C4A92F843
:1022A000363061F3041382F83630484B1B795B11EA
:1022B00003F00103D9B2464A92F8363061F3451370
:1022C00082F83630414B1B799B1103F00103D9B2E0
:1022D0003F4A92F8363061F3861382F836303B4B32
:1022E0001B79DB09DBB203F00103D9B2384A92F85B
:1022F000363061F3C71382F83630344B5B7903F024
:102300000103D9B2324A92F8373061F3000382F800
:1023100037302E4B5B795B1003F00103D9B22C4AA6
:1023200092F8373061F3410382F83730274B5B79FD
:102330009B1003F00103D9B2254A92F8373061F3BC
:10234000820382F83730214B5B79DB1003F0010305
:10235000D9B21F4A92F8373061F3C30382F837309D
:102360001A4B5B791B1103F00103D9B2184A92F89A
:10237000373061F3041382F83730144B5B795B110B
:1023800003F00103D9B2124A92F8373061F34513D2
:1023900082F837300D4B5B799B1103F00103D9B202
:1023A0000B4A92F8373061F3861382F83730074BC7
:1023B0005B79DB09DBB203F00103D9B2044A92F87E
:1023C000373061F3C71382F83730C2E214140020AB
:1023D0001C140020C04B1B7803F00103D9B2BF4A84
:1023E00092F8383061F3000382F83830BA4B1B782A
:1023F0005B1003F00103D9B2B84A92F8383061F3A8
:10240000410382F83830B44B1B789B1003F0010372
:10241000D9B2B24A92F8383061F3820382F8383088
:10242000AD4B1B78DB1003F00103D9B2AB4A92F835
:10243000383061F3C30382F83830A74B1B781B1187
:1024400003F00103D9B2A54A92F8383061F30413BE
:1024500082F83830A04B1B785B1103F00103D9B22E
:102460009E4A92F8383061F3451382F838309A4B1F
:102470001B789B1103F00103D9B2984A92F83830C7
:1024800061F3861382F83830934B1B78DB09DBB29B
:1024900003F00103D9B2914A92F8383061F3C713BF
:1024A00082F838308C4B5B7803F00103D9B28B4A49
:1024B00092F8393061F3000382F83930864B5B784B
:1024C0005B1003F00103D9B2844A92F8393061F30A
:1024D000410382F83930804B5B789B1003F0010395
:1024E000D9B27E4A92F8393061F3820382F83930EA
:1024F000794B5B78DB1003F00103D9B2774A92F88D
:10250000393061F3C30382F83930734B5B781B11A8
:1025100003F00103D9B2714A92F8393061F3041320
:1025200082F839306C4B5B785B1103F00103D9B250
:102530006A4A92F8393061F3451382F83930664BB4
:102540005B789B1103F00103D9B2644A92F83930E9
:1025500061F3861382F839305F4B5B78DB09DBB2BD
:1025600003F00103D9B25D4A92F8393061F3C71321
:1025700082F83930584B9B7803F00103D9B2574A9F
:1025800092F83A3061F3000382F83A30524B9B786C
:102590005B1003F00103D9B2504A92F83A3061F36C
:1025A000410382F83A304C4B9B789B1003F00103B7
:1025B000D9B24A4A92F83A3061F3820382F83A304B
:1025C000454B9B78DB1003F00103D9B2434A92F8E4
:1025D0003A3061F3C30382F83A303F4B9B781B11CA
:1025E00003F00103D9B23D4A92F83A3061F3041383
:1025F00082F83A30384B9B785B1103F00103D9B273
:10260000364A92F83A3061F3451382F83A30324B49
:102610009B789B1103F00103D9B2304A92F83A300B
:1026200061F3861382F83A302B4B9B78DB09DBB2DF
:1026300003F00103D9B2294A92F83A3061F3C71383
:1026400082F83A30244BDB7803F00103D9B2234AF5
:1026500092F83B3061F3000382F83B301E4BDB788D
:102660005B1003F00103D9B21C4A92F83B3061F3CE
:10267000410382F83B30184BDB789B1003F00103D9
:10268000D9B2164A92F83B3061F3820382F83B30AC
:10269000114BDB78DB1003F00103D9B20F4A92F83B
:1026A0003B3061F3C30382F83B300B4B1B7903F0E3
:1026B0000103D9B2094A92F83C3061F3000382F871
:1026C0003C30054B1B795B1003F00103D9B2034A80
:1026D00092F83C3004E000BF141400201C140020C9
:1026E00061F3410382F83C309C4B1B799B1003F053
:1026F0000103D9B29A4A92F83C3061F3820382F81E
:102700003C30964B1B79DB1003F00103D9B2944A9D
:1027100092F83C3061F3C30382F83C308F4B1B7955
:102720001B1103F00103D9B28D4A92F83C3061F3DA
:10273000041382F83C30894B1B795B1103F00103D1
:10274000D9B2874A92F83C3061F3451382F83C30A5
:10275000824B1B799B1103F00103D9B2804A92F896
:102760003C3061F3861382F83C307C4B1B79DB09EB
:10277000DBB203F00103D9B2794A92F83C3061F33D
:10278000C71382F83C30754B5B7903F00103D9B273
:10279000734A92F83D3061F3000382F83D306F4B8D
:1027A0005B795B1003F00103D9B26D4A92F83D30BA
:1027B00061F3410382F83D30684B5B799B1003F075
:1027C0000103D9B2664A92F83D3061F3820382F880
:1027D0003D30624B5B79DB1003F00103D9B2604AF4
:1027E00092F83D3061F3C30382F83D305B4B5B7977
:1027F0001B1103F00103D9B2594A92F83D3061F33D
:10280000041382F83D30554B5B795B1103F00103F3
:10281000D9B2534A92F83D3061F3451382F83D3006
:102820004E4B5B799B1103F00103D9B24C4A92F8ED
:102830003D3061F3861382F83D30484B5B79DB090C
:10284000DBB203F00103D9B2454A92F83D3061F39F
:10285000C71382F83D30414B9B7903F00103D9B295
:102860003F4A92F83E3061F3000382F83E303B4B22
:102870009B795B1003F00103D9B2394A92F83E30DC
:1028800061F3410382F83E30344B9B799B1003F097
:102890000103D9B2324A92F83E3061F3820382F8E2
:1028A0003E302E4B9B79DB1003F00103D9B22C4A4A
:1028B00092F83E3061F3C30382F83E30274BDA7959
:1028C000274B83F83F2044E0244B1B781A06234B08
:1028D0005B781B041A43214B9B781B0213431F4A4E
:1028E000D27813431A461E4B1A6432E01B4B5B78B6
:1028F0001A041A4B9B781B021343184AD2781343CD
:10290000184A82FB03129211DB17D31A1A46144B92
:102910009A601EE0114B1B781A06104B5B781B0463
:102920001A430E4B9B781B0213430C4AD278134375
:102930001846FEF72DF903460B4A1360074B1A7928
:10294000094B1A71094B01221A7002E000BF00E026
:1029500000BF00BF0837BD4680BD00BF1414002073
:102960001C140020D34D621060140020D8180020E1
:1029700080B483B000AF0346FB71044AFB79D36097
:1029800000BF0C37BD4680BC704700BF0008014047
:1029900080B483B000AF78607B68DAB2084B1A70FD
:1029A0007B681B0ADAB2064B5A707B681B0CDAB2E2
:1029B000034B9A7000BF0C37BD4680BC704700BF08
:1029C0001C19002080B582B000AF78600B46FB7008
:1029D0007868FFF7DDFFFB789BB2032203491846B6
:1029E00000F022F800BF0837BD4680BD1C1900204A
:1029F00080B582B000AF0346FB71FB799BB2032226
:102A00000849184600F02EF8064B9B781A04054B2F
:102A10005B781B021343034A1278134318460837A6
:102A2000BD4680BD8418002080B586B004AF034643
:102A30003960FB801346BB80FA884FF0FF33029366
:102A4000BB8801933B6800930123A021044803F055
:102A5000EDFC052002F036FA00BF0837BD4680BD08
:102A60009014002080B586B004AF03463960FB8027
:102A70001346BB80FA884FF0FF330293BB88019363
:102A80003B6800930123A021044803F0C9FD052001
:102A900002F018FA00BF0837BD4680BD9014002030
:102AA00080B500AF0C2200210720FEF7C7FE144BB3
:102AB0001B88144AA2FB03235B099BB21A46002120
:102AC0000720FEF7E1FE0E4B1B880F4AA2FB0323F3
:102AD000DB089AB20C4BA3FB0213D9080B469B00F0
:102AE0000B445B00D31A9BB21A4606210720FEF75F
:102AF000CBFE064A0C210720FEF7C6FD00BF80BDB5
:102B00001C1400201F85EB51CDCCCCCC5884000880
:102B100080B500AFFEF798FD324B1A6C314B9B68C5
:102B2000B2FBF3F3304A13602F4B1B682F4AA2FB12
:102B300003239B091A4667210320FEF7A5FE2A4BB3
:102B40001A682A4BA3FB02139B094FF47A7101FB0D
:102B500003F3D31A264AA2FB03235B091A466D210D
:102B60000320FEF791FE204B1A68204BA3FB0213B3
:102B70009B094FF47A7101FB03F3D31A1C4AA2FBA1
:102B800003125209642101FB02F29A1A194BA3FBAA
:102B90000223DB081A4673210320FEF775FE124B51
:102BA0001A68124BA3FB02139B094FF47A7101FBC5
:102BB00003F3D31A0E4AA2FB03125209642101FB4C
:102BC00002F29A1A0B4BA3FB0213D9080B469B0087
:102BD0000B445B00D11A0A4679210320FEF754FE0C
:102BE00000BF80BD1C140020F4180020D34D6210DB
:102BF0001F85EB51CDCCCCCC80B500AF0A4A032168
:102C00000620FEF741FD012204210720FEF73CFECD
:102C100020220A210720FEF743FF00220D21072072
:102C2000FEF732FE00BF80BD6084000880B500AFB3
:102C3000824B5B7D002B1AD1804BDB7D002B16D1A4
:102C40007E4B5B7D1A4600210020FEF75DFE0322CD
:102C50000C210020FEF724FF03220D210020FEF7A7
:102C60001FFF774A0F210020FEF70EFD9EE0734BF9
:102C70005B7D322B17D9714B5B7D283B1A460021B7
:102C80000020FEF741FE03220C210020FEF708FF82
:102C900003220D210020FEF703FF694A0F210020C7
:102CA000FEF7F2FC82E0654BDB7D312B1AD8634BDB
:102CB000DB7D272B16D9614BDB7D283B1A46002193
:102CC0000020FEF721FE03220C210020FEF7E8FE83
:102CD00003220D210020FEF7E3FE594A0F210020B8
:102CE000FEF7D2FC554BDB7D272B2FD8534BDB7DDA
:102CF0001E2B2BD9102200210020FEF7D1FE10221E
:102D000001210020FEF7CCFE102202210020FEF758
:102D1000C7FE102203210020FEF7C2FE474BDB7DD9
:102D2000C3F128031A4605210020FEF7EDFD03221A
:102D30000B210020FEF7B4FE03220C210020FEF739
:102D4000AFFE3F4A0E210020FEF79EFC3B4BDB7D91
:102D50001E2B2BD8102200210020FEF7A1FE1022EE
:102D600001210020FEF79CFE102202210020FEF728
:102D700097FE102203210020FEF792FE2F4BDB7DF1
:102D8000C3F128031A4605210020FEF7BDFD0322EA
:102D900011210020FEF784FE032212210020FEF7FD
:102DA0007FFE274A14210020FEF76EFC234B5B7D3B
:102DB0005F2B1DD9234B1B78002B0CBF0123002355
:102DC000DBB21A461F4B1A701E4B1B78002B05D026
:102DD0001D4B01221A70FEF77BFE09E00D2219211E
:102DE0000120FEF72BFD0D2219210220FEF726FD02
:102DF000124B5B7D592B0CD80C2219210120FEF7B8
:102E00001DFD0D2219210220FEF718FD0E4B002298
:102E10001A700A4B5B7D002B0DD1084BDB7D002B1C
:102E200009D1002200210020FEF72EFD00220621FC
:102E30000020FEF729FD00BF80BD00BF1C1400204C
:102E40006484000858190020DC18002000000000ED
:102E500080B500AF584BB3F90C30952B2ADD574B9A
:102E600000221A70544BB3F90C301846FDF7C2FA21
:102E700002460B464FF000005149FDF76DF902463E
:102E80000B46104619464AA3D3E90023FDF71CFB65
:102E900002460B464FF000004949FDF75DF9024636
:102EA0000B4610461946FDF721FD03461AB2454B65
:102EB0001A800CE0414B01221A703F4BB3F90C30E1
:102EC0009BB2C3F196039BB21AB23E4B1A803D4BA4
:102ED000B3F90030B3F57A7F19D11D2262210720A2
:102EE000FEF7ACFC012268210720FEF7CDFC002292
:102EF0006E210720FEF7C8FC002274210720FEF790
:102F0000C3FC314A7A210720FEF7BEFB4BE01D22AD
:102F100062210720FEF792FC284B1B78002B13D070
:102F2000102269210720FEF7BBFD10226A2107202D
:102F3000FEF7B6FD10226B210720FEF7B1FD10222F
:102F40006C210720FEF7ACFD1E4BB3F900301F4A81
:102F500082FB03125211DB17D31A1BB21A466E21E1
:102F60000720FEF791FC174BB3F90030184A82FB9B
:102F700003129210DB17D31A1AB2154B83FB0213FC
:102F80009910D317C91A0B469B000B445B00D31A48
:102F90001BB21A4674210720FEF776FC0A4A7A21F2
:102FA0000720FEF771FB00F0C1FA00BF80BD00BF33
:102FB000D3D2D2D2D2D2F23F1C1400205919002011
:102FC00000408F40DA180020688400081F85EB510C
:102FD000676666660000000080B500AF1021824879
:102FE00003F080F80346012B06D10020FEF764FAB7
:102FF0007E4B01221A70E7E07C4B00221A707C4B5A
:103000001B78082B6DD17A4B1B79C3F38113DBB28C
:103010001846FEF751FA764B1B7923F03F03DBB2DB
:10302000402B1DD1734BB3F900301846FDF7E2F980
:103030006BA3D3E90023FDF747FA02460B4610467F
:1030400019464FF000026C4BFDF768FB02460B4639
:1030500010461946FDF772FC03469AB2674B1A8078
:10306000634B1B7923F03F03DBB2802B1DD1614BF7
:10307000B3F900301846FDF7BDF94FF03332604B1D
:10308000FDF722FA02460B46104619464FF00002A1
:10309000594BFDF743FB02460B4610461946FDF718
:1030A0004DFC03469AB2554B1A80514B1B7923F0C5
:1030B0003F03DBB2C02B14D14E4BB3F9003018469E
:1030C000FDF798F94FF000024B4BFDF727FB024646
:1030D0000B4610461946FDF731FC03469AB2474BA2
:1030E0001A80434B1B780D2B6ED1414B1B7923F07B
:1030F0003F03DBB2C02B20D10120FEF7DDF93D4BB1
:10310000B3F900301846FDF775F935A3D3E900236C
:10311000FDF7DAF902460B46104619464FF0000259
:10312000354BFDF7FBFA02460B4610461946FDF7F4
:1031300005FC03469AB2314B1A802D4B1B7923F0C4
:103140003F03DBB2002B20D10220FEF7B5F9294B5B
:10315000B3F900301846FDF74DF94FF03332284BE4
:10316000FDF7B2F902460B46104619464FF0000231
:10317000214BFDF7D3FA02460B4610461946FDF7E0
:10318000DDFB03469AB21D4B1A80194B1B7923F0C5
:103190003F03DBB2402B17D10320FEF78DF9154B0F
:1031A000B3F900301846FDF725F94FF00002124B35
:1031B000FDF7B4FA02460B4610461946FDF7BEFB72
:1031C00003469AB20D4B1A800E4BB3F90C30952B77
:1031D00002DC0A4B00221A8000BF80BDAFF30080E2
:1031E000666666666666F63F000C01405A19002066
:1031F00000190020DA180020000024405C1900208B
:103200003333F33F1C14002080B584B000AF00219D
:103210000020FFF7D7FBC020FFF7EAFB03461A4662
:10322000774B9A60764B9B6840F2D242934225D00E
:10323000E02141F65830FFF7C5FBB0210120FFF730
:10324000C1FBC02140F2D240FFF7BCFBD0210020DF
:10325000FFF7B8FB0023FB7309E0FB7B694AD35CF3
:1032600019460020FFF7AEFBFB7B0133FB73FB7BB2
:10327000092BF2D9322001F025FEB9E0D020FFF76A
:10328000B7FB03461A46604B1A60B020FFF7B0FB4D
:103290000346DAB25D4B1A71E020FFF7A9FB034643
:1032A0001846FDF7A7F84FF00002594BFDF736FA24
:1032B00002460B4610461946FDF760FB0346534A8B
:1032C00013600023BB7315E0BB7B4E4AD35C1846EA
:1032D000FFF78EFB0246BB7B11464E4A42F8231095
:1032E000BA7B4C4951F823304B4941F82230BB7B23
:1032F0000133BB73BB7B092BE6D901237B7311E040
:103300007B7B444A52F82320444B1B781946414B9F
:1033100053F821309A4202D2404A7B7B13707B7B68
:1033200001337B737B7B092BEAD900237B6000236D
:103330003B732DE00023FB7221E0FB7A354A52F803
:103340002320FB7A0133334951F823309A4213D9B1
:10335000FB7A304A52F823307B60FB7A5A1CFB7AA6
:103360002C4951F822202B4941F82320FB7A0133C4
:1033700028497A6841F82320FB7A0133FB72FA7AF4
:103380003B7BC3F109039A42D7DB3B7B01333B73A1
:103390003B7B092BCED90023BB7200237B721DE03F
:1033A0007B7A1C4A52F82320174B1B689A4212D38F
:1033B000154B1B6803F57A727B7A164951F8233056
:1033C0009A4208D37B7A134A52F823300C4A13608E
:1033D000BB7A0133BB727B7A01337B727B7A092B18
:1033E000DED9BB7A002B03D1074B1B68044A13605C
:1033F0000B4B03221A7000BF1037BD4680BD00BFC3
:1034000010190020A4070020F818002060140020E4
:1034100000408F4088180020B01800201F1900209D
:103420009C07002080B500AF344B00221A7029E0C1
:10343000324B1B781A46324B53F82230314A5360D4
:10344000304B04229A602F4B0022DA602D4B082269
:103450001A612A4B1B781A462B4B00219954274B93
:103460001B781A46284B1A44284B2649284801F055
:1034700055FF322001F026FD204B1B780133DAB2D4
:103480001E4B1A701D4B1B780B2BD1D9214B1B786F
:10349000002B11D1204B1B78002B05D01F4B1B7824
:1034A0000133DAB21D4B1A701C4B1B78092B1CD947
:1034B000184B01221A7018E0194A55210320FEF713
:1034C000E3F8184A6E210320FEF7DEF8164B0022BF
:1034D0001A80154B0022DA75134BDA7D124B5A75A0
:1034E000114B5B7D1AB2104B9A810B4B01221A7063
:1034F000024B00221A7000BF80BD00BF641800207C
:10350000B00700202419002068180020741800203B
:10351000681400205F1900205E1900206019002047
:103520006C840008748400081C14002080B500AF6F
:103530003A4BB3F9003040F2B532934209DD374BD4
:10354000B3F90030B3F57A7F03DC0520FEF70AF803
:1035500062E0324BB3F90030B3F5487F0ADB2F4B02
:10356000B3F9003040F2B532934203DC0420FDF79A
:10357000F9FF51E0294BB3F90030B3F5167F09DBB1
:10358000264BB3F90030B3F5487F03DA0320FDF78B
:10359000E9FF41E0214BB3F90030B3F5C87F09DB07
:1035A0001E4BB3F90030B3F5167F03DA0220FDF7A6
:1035B000D9FF31E0194BB3F90030C72B09DD174BA8
:1035C000B3F90030B3F5C87F03DA0120FDF7CAFF75
:1035D00022E0124BB3F90030002B19DB0F4BB3F98B
:1035E0000030C72B14DC0E4B1B78002B0CBF0123C3
:1035F0000023DBB21A460A4B1A70094B1B78002BCA
:1036000003D00020FDF7AEFF06E0FEF78BFA03E0E3
:103610000020FDF7A7FF00BF00BF80BDDA18002023
:10362000DD18002080B582B000AF786078685D4B0F
:103630005D4A002101F041FF0346002B40F0AE80BF
:10364000594B5B68594A1360584B1B681846FEF784
:103650008DFA574B00221A70564B00221A70564BA7
:1036600000221A70514B1B68544A934247D1544B65
:10367000544A5A60524B04229A60514B0022DA603D
:103680004F4B08221A61504B02221A704F4B1B6895
:103690001B0EDAB24C4B5A704C4B1B681B0CDAB247
:1036A000494B9A70494B1B681B0ADAB2464BDA70D9
:1036B000464B1B68DAB2444B1A71454B1B681B0A18
:1036C000DAB2414B5A71424B1B68DAB23E4B9A71E7
:1036D000404BB3F90030404A82FB03129210DB17D3
:1036E000D31A1BB2DAB2384BDA713C4B1B781A464C
:1036F000354B1A44381D3A4B314901F00FFE2B4B24
:103700001B68384A934249D12D4B374A5A602C4B9B
:1037100004229A602A4B0022DA60294B08221A619F
:10372000324B1A79284B1A70304B1B681846FDF73C
:10373000F9FB03461B0EDAB2234B5A702B4B1B6866
:103740001846FDF7EFFB03461B0CDAB21E4B9A70CE
:10375000264B1B681846FDF7E5FB03461B0ADAB249
:10376000194BDA70214B1B681846FDF7DBFB03464B
:10377000DAB2154B1A71144B00225A71124B002207
:103780009A71114B0022DA71144B1B781A460E4BBA
:103790001A44381D124B0A4901F0C0FD00BF08371A
:1037A000BD4680BD141400203C1900207018002074
:1037B0005F1900205E190020601900202410020902
:1037C0002419002024200209681800201019002064
:1037D000F4180020DA180020676666666418002076
:1037E0007418002024100309242003096014002009
:1037F00080B584B000AF7F4B1B79012B09D17E4B84
:103800001B781A467B4B1B7919461046FDF77AFD4B
:103810000BE07A4B1B681846FDF75EFB0346754AC2
:10382000127911461846FDF76DFD33226021002004
:10383000FEF704F8724B1B88724AA2FB03235B0954
:103840009BB2FB736E4B1B886E4AA2FB031252099C
:10385000642101FB02F29B1A9BB26B4AA2FB032379
:10386000DB089BB2BB73664B1B88664AA2FB031244
:103870005209642101FB02F29B1A9AB2624BA3FB2C
:103880000213D9080B469B000B445B00D31A9BB272
:103890007B73FDF7B9FEFB7B1A4662210020FDF722
:1038A000F3FFBB7B1A4668210020FDF7EDFF7B7B11
:1038B0001A466E210020FDF7E7FF544A74210020CC
:1038C000FDF7E2FE524B1B68524AA2FB03239B0CFE
:1038D0003B734F4B1A684F4BA3FB02139B0C4E4993
:1038E00001FB03F3D31A5B094C4AA2FB0323DB0958
:1038F000FB72474B1A6853094849A1FB0313DB09C4
:10390000474901FB03F3D31A464AA2FB03235B0B8F
:10391000BB723F4B1A68434BA3FB02135B0B42F293
:10392000107101FB03F3D31A3F4AA2FB03239B0947
:103930007B72374B1A683C4BA3FB02139B094FF475
:103940007A7101FB03F3D31A2E4AA2FB03235B090E
:103950003B722F4B1A682B4BA3FB02135B096421AC
:1039600001FB03F3D31A284AA2FB0323DB08FB71F4
:10397000274B1968244BA3FB0123DA0813469B004D
:1039800013445B00CA1A1346BB7140222021052054
:10399000FDF754FFFDF718FE3B7B1A463221052048
:1039A000FDF772FFFB7A1A4638210520FDF76CFF00
:1039B000BB7A1A463E210520FDF766FF7B7A1A4640
:1039C00044210520FDF760FF3B7A1A464A21052075
:1039D000FDF75AFFFB791A4650210520FDF754FFE9
:1039E0000A4A57210520FDF74FFE00BF1037BD469C
:1039F00080BD00BF601400206419002068190020F9
:103A00005C1900201F85EB51CDCCCCCC788400080C
:103A10001019002083DE1B4340420F00C55A7C0A68
:103A2000A08601005917B7D1D34D621000000000E5
:103A300080B500AF6E4B1B78002B5AD06D4B1B79B5
:103A4000012B1AD16C4B1B684FF4B47202FB03F3C9
:103A5000DB086A4AA2FB03235B08DAB2684B1A70E0
:103A6000654B1B689AB2674B1B8813449AB2654B2F
:103A70001A805F4B00221A703BE0634B1B681846AC
:103A8000FDF782F8034661491846FDF7D5F803466D
:103A90005F491846FDF784F903465E491846FDF76D
:103AA0007FF903461A46534B1B6819461046FDF72B
:103AB00077F903461A46584B1A60574B1B6818464D
:103AC000FCF7AAFC48A3D3E90023FCF7FDFC02465F
:103AD0000B4610461946FCF709FF03469AB24F4BB6
:103AE0001A804F4B1A884D4B1B8813449AB24C4B8B
:103AF0001A80444B1B88B3F5DC7F03D2484B1B88EC
:103B0000632B6DD9464B00221A80454B1A883D4BDA
:103B10001A80444B1B680133424A1360414B1B68B7
:103B2000414A12781146414A525C11461846FEF746
:103B300049FF3D4B1B781A463C4B9B5C1846FEF7F1
:103B400057FF03461A46374B5A60374B1B781946C6
:103B5000344B5B68364A42F82130324B1A68314B9D
:103B60005B689A4206D1304B1B780133DAB22E4B98
:103B70001A701DE02C4B1B780133DAB22A4B1A70F5
:103B8000294B1B78092B02D9274B00221A70254B91
:103B90001B68254A12781146244A525C1146184681
:103BA000FEF710FF204B1B780133DAB21E4B1A7060
:103BB0001D4B1B78092B13D91B4B00221A70194B74
:103BC0001A681C4B1B689A420AD31A4B1B685A1C72
:103BD000144B1B689A4203D3164B1B68114A13609F
:103BE00000BF80BDAFF300804B598638D6C5D13FAA
:103BF00080180020601400207818002095204F09BC
:103C00006419002062190020701900200044404609
:103C10000000C04100007A44681900207619002095
:103C200074190020101900201F190020A40700207B
:103C300088180020F818002080B500AF01F0E0F8E7
:103C400000F000F900F02CFA00F044F900F0DCF983
:103C500000F092F900F0BEF901F09AF86E4802F017
:103C6000A1FA6E4801F016FB02216C4801F046FDF6
:103C70006B4804F017F8FDF7B1FA6A4B5B6A03F082
:103C80000053002B06D0674B5B6A664A43F0807393
:103C900053622DE0FDF7C8FE4FF4FA7001F012F9FF
:103CA0007F2200210020FDF7C9FD7F220021012095
:103CB000FDF7C4FD7F2200210220FDF7BFFD7F221A
:103CC00000210320FDF7BAFD7F2200210420FDF72B
:103CD000B5FD7F2200210520FDF7B0FD7F220021E8
:103CE0000620FDF7ABFD7F2200210720FDF7A6FD92
:103CF000FFF78AFA00F06EF94B4B1B78002B56D079
:103D0000494B00221A707F2200210020FDF796FD0A
:103D10007F2200210120FDF791FD7F22002102205A
:103D2000FDF78CFD7F2200210320FDF787FD7F2218
:103D300000210420FDF782FD7F2200210520FDF7F0
:103D40007DFD7F2200210620FDF778FD7F220021E6
:103D50000720FDF773FDFFF765FB344B1B78002B45
:103D600007D0FEF7D5FE314B1B78013BDAB22F4B63
:103D70001A70FFF731F9FEF759FFFDF7D3FEFFF791
:103D800067F8FFF755FEFFF733FDFEF789FEA22027
:103D9000FDF7E8F8A020FDF7E5F8C020FDF7E2F810
:103DA0004020FDF7DFF8FDF779FAFDF70FF9204B1A
:103DB0001B78002B12D01E4B00221A701D4B1B6863
:103DC0001846FDF7AFF80346E0211846FEF7FAFD66
:103DD000184B1B79B0211846FEF7F4FD164B1A68F4
:103DE000164B1B6803F57A739A4211D3124B1A686B
:103DF000124B1B6803F2F2339A4209D80E4B1B6830
:103E00000E4A13600D4B1B68D0211846FEF7DAFDF1
:103E10000B4803F070FA6FE790140020681400203C
:103E2000F014002000100240A00700209C07002092
:103E3000D81800206014002010190020F818002065
:103E4000E414002080B590B000AF07F118032822D9
:103E50000021184604F0C8FA3B1D00221A605A607F
:103E60009A60DA601A610923BB614FF48033FB6109
:103E700000233B620123BB6201233B6302237B637C
:103E80004FF48033BB634FF4E013FB6307F1180377
:103E9000184603F0BBFA0346002B01D000F006FEE3
:103EA0000F237B600223BB600023FB604FF4806321
:103EB0003B6100237B613B1D0221184603F028FD76
:103EC0000346002B01D000F0F1FD00BF4037BD4696
:103ED00080BD000080B58AB000AF254B254A1A602E
:103EE000234B08225A60224B00229A60204B00226A
:103EF000DA601F4B4FF460221A611D4B4FF48012A1
:103F00005A611B4B00221A76194B00225A76184B25
:103F100000229A76164B0022DA76154B00221A7789
:103F2000134B00225A77124800F0F0FF0346002B93
:103F300001D000F0BBFD01233B6201237B61002324
:103F40003B6100233B6000237B600023BB600023B8
:103F5000FB600023BB610123FB6100237B623B46C6
:103F60001946034801F0CDF800BF2837BD4680BD93
:103F7000681400200064004080B500AF124B134A63
:103F80001A60114B124A5A600F4B00229A600E4B76
:103F90000022DA600C4B4FF480421A610A4B002277
:103FA0005A61094B00229A61074B0022DA61064BE5
:103FB00000221A62044802F0F5F80346002B01D0F3
:103FC00000F074FD00BF80BD90140020005400403C
:103FD000801A060080B500AF094B0A4A1A60084BE8
:103FE00005225A60064B4FF47A729A60044803F037
:103FF0003EF90346002B01D000F058FD00BF80BD04
:10400000E41400200030004080B586B000AF07F116
:10401000080300221A605A609A60DA603B46002268
:104020001A605A601D4B4FF080421A601B4B63228E
:104030005A601A4B00229A60184B4722DA60174BDD
:1040400000221A61154B00229A61144803F0DAFD30
:104050000346002B01D000F029FD4FF48053BB60D4
:1040600007F1080319460D4803F05EFF0346002BD5
:1040700001D000F01BFD00233B6000237B603B462A
:104080001946064804F040F90346002B01D000F021
:104090000DFD00BF1837BD4680BD00BFF0140020E5
:1040A00080B588B000AF07F1100300221A605A6093
:1040B0009A60DA60494B9B69484A43F01003936168
:1040C000464B9B6903F01003FB60FB68434B9B6905
:1040D000424A43F020039361404B9B6903F0200365
:1040E000BB60BB683D4B9B693C4A43F00403936152
:1040F0003A4B9B6903F004037B607B68374B9B69F9
:10410000364A43F008039361344B9B6903F008037C
:104110003B603B68002240F2FF11314801F0F9FF9B
:10412000002240F6A7412F4801F0F3FF4FF400535F
:104130003B612D4B7B610123BB6107F110031946E5
:104140002A4801F04BFE40F2FF133B6101237B61E3
:104150000023BB610223FB6107F1100319462048CD
:1041600001F03CFE40F6A7433B6101237B61002345
:10417000BB610223FB6107F110031946194801F0E6
:104180002DFE08233B611A4B7B610123BB6107F1C4
:1041900010031946134801F021FE10233B61002350
:1041A0007B610123BB6107F1100319460D4801F043
:1041B00015FE00220021092001F0D5FD092001F0A3
:1041C000EEFD00220021282001F0CDFD282001F085
:1041D000E6FD00BF2037BD4680BD00BF0010024095
:1041E00000080140000C01400000211000100140B7
:1041F0000000111080B584B000AF78607B681B6848
:10420000B3F1804F40F08B817E4B1B889BB2013312
:104210009AB27C4B1A807C4B1B780133DAB27A4B12
:104220001A707A4B1B8801339AB2784B1A80754BFF
:104230001B889BB20A2B0ED1754B1B8801339AB297
:10424000734B1A80734B1B8801339AB2714B1A80DF
:104250006C4B00221A806E4B1A886F4B1B889A4257
:1042600009D16B4B1B8803F57A739AB26A4B1A809B
:104270006A4B01221A70664B1A88694B1B889A4256
:104280000FD1634B1B8803F5FA739AB2644B1A8003
:10429000644B1B78012B04D14FF48071624801F00C
:1042A00050FF5B4B1A88614B1B889A420ED1584BCA
:1042B0001B8864339AB25D4B1A805D4B1B78012BCF
:1042C00004D14FF48071584801F03BFF504B1A88DD
:1042D000584B1B889A4232D1574B1B88052B15D956
:1042E000554B00221A804A4B1B8803F57A739AB209
:1042F000504B1A80514B1B781A46514B1A60514B48
:1043000001221A70504B00221A6018E04A4B00221A
:104310001A803F4B1B8803F57A739AB2454B1A807B
:10432000494B1B68464A1360454B1B68DAB2434B46
:104330001A70444B01221A70434B00221A60344B0E
:104340001A88424B1B889A422AD1414B1B78042B76
:104350000FD82F4B1B8896339AB23C4B1A803D4B9B
:104360001B78012B05D13A4B1B780133DAB2384B5D
:104370001A70384B1B78012B12D14FF480712A48E8
:1043800001F0DFFE324B1B78042B09D9204B1B8830
:10439000A3F5AD539AB22D4B1A802D4B00221A7003
:1043A0002D4B1B78012B40F0BA80174B1B781D2B2F
:1043B00040F2B5802021294801F0C3FE284B1B782C
:1043C0000133DAB2264B1A700821244801F08AFE24
:1043D0000346002B4CD0234B1B8899B20A46224B34
:1043E00033F812309AB2214B93F90030184601236A
:1043F00083409BB2DB439BB213409AB21A4B23F823
:10440000112049E03C150020FC180020FE18002077
:1044100062180020801900209E070020A0070020BD
:104420007C1900205A190020000801407E19002044
:10443000DC1800207A190020861900208419002039
:1044400078180020801800207C180020E007002049
:10445000781900205F190020F0180020000C01409E
:10446000201900203A15002040150020E207002006
:104470002D4B1B8899B20A462C4B33F812309AB256
:104480002B4B93F900301846012383409BB2134312
:104490009AB2264B23F81120264B00221A70244B87
:1044A00093F90030DBB2013BDBB25AB2204B1A70F9
:1044B0001F4B93F90030002B09DA1B4B1B889BB272
:1044C00001339AB2184B1A80194B07221A70164BF7
:1044D0001B889BB20B2B1FD9134B00221A80164B43
:1044E00001221A70154B00221A80154B00221A80E7
:1044F0000023FB730BE0FB7B0C4A32F813309AB2BB
:10450000FB7BD1B20F4AD154FB7B0133FB73FB7BA6
:104510000B2BF0D900F0ACF80B4B00221A7000BF47
:104520001037BD4680BD00BF3A1500204015002061
:10453000E2070020F018002038150020EE180020B7
:10454000FE180020E0180020FC18002080B584B080
:1045500000AF0346FB80FB88B3F5005F41D14FF409
:104560000051384801F0BEFD0346FB73FB7B012B75
:1045700004D100F09DFC0346334A1360FB7B002B03
:1045800004D100F095FC0346304A13602F4B1A68A3
:104590002D4B1B689A420AD22B4B1B689AB22B4BAD
:1045A0001B689BB2D31A9AB2294B1A8009E0274B99
:1045B0001B689AB2244B1B689BB2D31A9AB2244B45
:1045C0001A80234B1B88072B05D9224B1B6801330C
:1045D000204A136005E0204B1B8801339AB21E4B22
:1045E0001A80FB88082B29D11C4B1B88002B18D163
:1045F0001B4B1B88002B14D0194B1A88194B1A809F
:10460000174B00221A80174B1B88B3F5FA7F08D38B
:10461000124B01221A80134B00221A80104B0022E9
:104620001A800E4B1B88012B05D10F4B01221A70EB
:104630000E4B00221A700A4B00221A8000BF10375E
:10464000BD4680BD001001408C1900208819002053
:10465000901900207C18002086190020EE180020F8
:10466000FE18002082190020F0180020FC180020FD
:1046700080B582B000AF0023FB7100233B6009E0EE
:104680000A4A3B6813441A78FB795340FB713B6834
:1046900001333B603B680A2BF2DD044BDB7AFA798D
:1046A0009A4207D1024B01221A700CE0E018002058
:1046B00060180020B04B1B780133DAB2AE4B1A7091
:1046C000AE4B00221A70AD4B1B78DBB2012B40F0D1
:1046D000D881AB4B1A78AB4B1A70A94B5A78A94BBF
:1046E0005A70A74B9B781B09DBB203F00F03D9B2BA
:1046F000A44A937861F303039370A14B9B78DB107A
:1047000003F00103D9B29F4A937861F304139370C5
:104710009B4B9B789B1003F00103D9B2994A937885
:1047200061F345139370974A93786FF386139370F0
:10473000934B9B7803F00103D9B2924A937861F3CB
:10474000C71393708E4BDB78DB09DBB203F00103F8
:10475000D9B28C4AD37861F30003D370884BDB78ED
:104760009B1103F00103D9B2864AD37861F3410368
:10477000D370834BDB785B1103F00103D9B2814A1C
:10478000D37861F38203D3707D4BDB781B1103F088
:104790000103D9B27B4AD37861F3C303D370784B5A
:1047A000DB78DB1003F00103D9B2764AD37861F3EA
:1047B0000413D370724BDB789B1003F00103D9B262
:1047C000704AD37861F34513D3706D4BDB785B107F
:1047D00003F00103D9B26B4AD37861F38613D37027
:1047E000674BDB7803F00103D9B2664AD37861F3F3
:1047F000C713D370624B1B79DB09DBB203F00103F3
:10480000D9B2604A137961F3000313715C4B1B79D1
:104810009B1103F00103D9B25A4A137961F34103A2
:104820001371574B1B795B1103F00103D9B2554A41
:10483000137961F382031371514B1B791B1103F040
:104840000103D9B24F4A137961F3C30313714C4B7F
:104850001B79DB1003F00103D9B24A4A137961F3E3
:1048600004131371464B1B7903F00303D9B2454A75
:10487000137961F387131371414B5B79DB09DBB269
:1048800003F00103D9B23F4A537961F30003537136
:104890003B4B5B799B1103F00103D9B2394A537941
:1048A00061F341035371364B5B795B1103F00103F4
:1048B000D9B2344A537961F382035371304B5B7937
:1048C0001B1103F00103D9B22E4A537961F3C303DC
:1048D00053712B4B5B79DB1003F00103D9B2294AEA
:1048E000537961F304135371254B5B799B1003F0EB
:1048F0000103D9B2234A537961F345135371204B15
:104900005B795B1003F00103D9B21E4A537961F35E
:10491000861353711A4B5B7903F00103D9B2194A1C
:10492000537961F3C7135371154B9A79154B9A71EB
:10493000134BDB791B021AB2134B1B8A9BB21BB2BF
:1049400013431BB29AB20F4B5A810D4B5A7A0D4B3F
:10495000DA710B4B9A7A0B4B1A72094BDA7A094BC4
:104960001A73064B00221A70064B1B780D2B71D15F
:10497000034BDB796A2B09E0EC180020601800205B
:10498000E0180020001900204015002016D1424BED
:104990001B8A9BB2692B05D9404B1B7A6A3B9AB2A2
:1049A0003F4B1A803C4B1B8A3C4B1B7A692B05D82A
:1049B0003A4B1B7A95339AB2394B1A80374BDB79D5
:1049C0006B2B17D1344B1B8A9BB2692B05D9334B08
:1049D0001B7A95339AB2324B1A802F4B1B8A2F4B7E
:1049E0001B7A692B06D82D4B1B7A03F5CA739AB232
:1049F0002B4B1A80294BDB796C2B18D1264B1B8A49
:104A00009BB2692B06D9254B1B7A03F5CA739AB260
:104A1000234B1A80204B1B8A204B1B7A692B06D80C
:104A20001E4B1B7A03F293239AB21D4B1A801C4B28
:104A30001B881846FBF7DEFC15A3D3E90023FBF720
:104A400043FD02460B4610461946FBF777FF034627
:104A5000144A1360144B1B78082B12D1124B5B893C
:104A60001846FBF7C7FC0AA3D3E90023FBF72CFD8C
:104A700002460B4610461946FBF760FF0346094AFB
:104A8000136000BF0837BD4680BD00BFAFF3008094
:104A90009A9999999999F13F40150020E0180020C2
:104AA0006C190020701900200019002080B500AF9B
:104AB00072B600BF01F081F9FCE7000080B584B058
:104AC00000AF194B9B69184A43F001039361164BE1
:104AD0009B6903F00103BB60BB68134BDB69124A9F
:104AE00043F08053D361104BDB6903F080537B604C
:104AF0007B6800220021012001F035F9012001F03E
:104B00004EF90A4B5B68FB60FB6823F0E063FB60D7
:104B1000FB6843F00073FB60044AFB68536000BF0E
:104B20001037BD4680BD00BF0010024000000140AC
:104B300080B588B000AF786007F1100300221A60DA
:104B40005A609A60DA607B681B68204A934239D1C8
:104B50001F4BDB691E4A43F00073D3611C4BDB69BA
:104B600003F00073FB60FB68194B9B69184A43F024
:104B700004039361164B9B6903F00403BB60BB689D
:104B80004FF400633B6100237B610023BB6107F1AD
:104B9000100319460F4801F021F94FF480533B618F
:104BA00002237B610323FB6107F1100319460948C7
:104BB00001F014F900220021142001F0D4F814208F
:104BC00001F0EDF800BF2037BD4680BD0064004015
:104BD000001002400008014080B58AB000AF786044
:104BE00007F1140300221A605A609A60DA607B6849
:104BF0001B681D4A934232D11C4B9B691B4A43F0F0
:104C000008039361194B9B6903F008033B613B69FF
:104C10004FF440737B611223BB6103233B6207F1B6
:104C200014031946124801F0D9F8124B5B687B62F5
:104C30007B6A43F0E0637B627B6A43F002037B6242
:104C40000C4A7B6A5360094BDB69084A43F4001342
:104C5000D361064BDB6903F40013FB60FB6800BF04
:104C60002837BD4680BD00BF005400400010024000
:104C7000000C01400000014080B584B000AF7860B6
:104C80007B681B68B3F1804F13D10C4BDB690B4A77
:104C900043F00103D361094BDB6903F00103FB60BF
:104CA000FB68002200211C2001F05DF81C2001F0AF
:104CB00076F800BF1037BD4680BD00BF001002402F
:104CC00080B400AF00BFFDE780B400AF00BFFDE7D8
:104CD00080B400AF00BFFDE780B400AF00BFFDE7C8
:104CE00080B400AF00BFFDE780B400AF00BFBD4699
:104CF00080BC704780B400AF00BFBD4680BC704729
:104D000080B400AF00BFBD4680BC704780B500AF27
:104D100000F0BCF800BF80BD80B500AF02F064FBBE
:104D200000BF80BD80B500AF082001F023FA00BFAE
:104D300080BD000080B500AF024800F004FD00BF58
:104D400080BD00BF6814002080B500AF024802F0AB
:104D5000FBFF00BF80BD00BFF014002080B500AF96
:104D60004FF4005001F006FA00BF80BD80B400AFE0
:104D700000BFBD4680BC704780B500AF0022042153
:104D8000024801F0C6F900BF80BD00BF000C014021
:104D900080B582B000AF80233B604FF001137B6091
:104DA0003B46184602F0B6FA02F012FB00BF083785
:104DB000BD4680BDFFF7DAFF0B480C490C4A0023C3
:104DC00002E0D458C4500433C4188C42F9D3094AC1
:104DD000094C002301E013600432A242FBD303F02C
:104DE0000BFBFEF729FF704700000020F0070020B2
:104DF0006CA20008F007002098190020FEE70000D0
:104E000080B500AF084B1B68074A43F010031360DE
:104E1000032000F09DFF0F2000F008F8FFF74EFE82
:104E20000023184680BD00BF0020024080B582B03C
:104E300000AF7860124B1A68124B1B7819464FF47A
:104E40007A73B3FBF1F3B2FBF3F3184600F0B9FF4A
:104E50000346002B01D001230EE07B680F2B0AD8FC
:104E6000002279684FF0FF3000F07DFF064A7B6832
:104E70001360002300E0012318460837BD4680BDBB
:104E8000E4070020EC070020E807002080B400AF12
:104E9000054B1B781A46054B1B681344034A1360E5
:104EA00000BFBD4680BC7047EC070020941900206D
:104EB00080B400AF024B1B681846BD4680BC7047EB
:104EC0009419002080B584B000AF7860FFF7F0FF40
:104ED000B8607B68FB60FB68B3F1FF3F05D00A4B0D
:104EE0001B781A46FB681344FB6000BFFFF7E0FF26
:104EF0000246BB68D31AFA689A42F7D800BF00BFCF
:104F00001037BD4680BD00BFEC07002080B584B0DF
:104F100000AF78607B68002B01D10123EDE07B6856
:104F200093F82030DBB2002B02D17868FFF700FE47
:104F30007B681B681A687B681B6842F001021A6074
:104F4000FFF7B6FFF86012E0FFF7B2FF0246FB681A
:104F5000D31A0A2B0BD97B685B6A43F400327B6857
:104F60005A627B68052283F820200123C5E07B6814
:104F70001B685B6803F00103002BE5D07B681B68AE
:104F80001A687B681B6822F002021A60FFF790FF24
:104F9000F86012E0FFF78CFF0246FB68D31A0A2B79
:104FA0000BD97B685B6A43F400327B685A627B688A
:104FB000052283F8202001239FE07B681B685B6843
:104FC00003F00203002BE5D17B681B7E012B08D187
:104FD0007B681B681A687B681B6842F080021A6055
:104FE00007E07B681B681A687B681B6822F08002F8
:104FF0001A607B685B7E012B08D17B681B681A688E
:105000007B681B6842F040021A6007E07B681B68FF
:105010001A687B681B6822F040021A607B689B7EDE
:10502000012B08D17B681B681A687B681B6842F0FB
:1050300020021A6007E07B681B681A687B681B689F
:1050400022F020021A607B68DB7E012B08D17B688E
:105050001B681A687B681B6822F010021A6007E060
:105060007B681B681A687B681B6842F010021A6034
:105070007B681B7F012B08D17B681B681A687B68E3
:105080001B6842F008021A6007E07B681B681A6818
:105090007B681B6822F008021A607B685B7F012B2B
:1050A00008D17B681B681A687B681B6842F00402A1
:1050B0001A6007E07B681B681A687B681B6822F02F
:1050C00004021A607B689A687B68DB681A437B6815
:1050D0001B691A437B685B6942EA03017B685B6872
:1050E0005A1E7B681B680A43DA617B6800225A6299
:1050F0007B68012283F82020002318461037BD4624
:1051000080BD80B487B000AF786039607B681B6871
:105110007B617B6893F82030FB74FB7C012B03D010
:10512000FB7C022B40F0AA807B69D3F8003243F06D
:1051300001027B69C3F800223B685B6903F01F032F
:10514000012202FA03F3FB607B69D3F81C22FB689F
:10515000DB431A407B69C3F81C223B68DB69002BE8
:1051600023D17B69D3F80C22FB68DB431A407B69AF
:10517000C3F80C223B68DB6819043B685B689BB290
:105180003A68526919437B69483243F832103B68E8
:105190009B6819043B681B689AB23B685B690A43C9
:1051A00079694833DB000B445A603B68DB69012BAB
:1051B00022D17B69D3F80C22FB681A437B69C3F8C0
:1051C0000C223B681B6819043B685B689BB23A6819
:1051D000526919437B69483243F832103B689B6837
:1051E00019043B68DB689AB23B685B690A437969DA
:1051F0004833DB000B445A603B689B69002B09D1A4
:105200007B69D3F80422FB68DB431A407B69C3F84F
:10521000042207E07B69D3F80422FB681A437B6908
:10522000C3F804223B681B69002B09D17B69D3F8C2
:105230001422FB68DB431A407B69C3F8142207E0A1
:105240007B69D3F81422FB681A437B69C3F81422E4
:105250003B681B6A012B07D17B69D3F81C22FB68D2
:105260001A437B69C3F81C227B69D3F8003223F010
:1052700001027B69C3F80022002306E07B685B6AB9
:1052800043F480227B685A62012318461C37BD46CE
:1052900080BC704780B584B000AF78607B6893F8BD
:1052A0002030DBB2012B2ED17B68022283F8202034
:1052B0007B681B681A687B681B6822F001021A6011
:1052C000FFF7F6FDF86012E0FFF7F2FD0246FB681B
:1052D000D31A0A2B0BD97B685B6A43F400327B68D4
:1052E0005A627B68052283F82020012312E07B6844
:1052F0001B685B6803F00103002BE5D17B6800228B
:105300005A62002306E07B685B6A43F400227B68F4
:105310005A62012318461037BD4680BD80B489B05B
:1053200000AFF860B9607A603B60FB6893F82030AA
:10533000FB77FB681B689B68BB61FB7F012B03D07D
:10534000FB7F022B40F0AD80BB6903F08063002B34
:105350000AD1BB6903F00063002B05D1BB6903F0E0
:105360008053002B00F09580BB691B0E03F00303F4
:105370007B6101227B699A403B681A60BB689B682D
:10538000002B0DD1BB681B685A05BB68DB68F96848
:1053900009681A437B6918331B010B441A600FE03C
:1053A000BB685B68DA00BB689B681A43BB68DB6854
:1053B000F96809681A437B6918331B010B441A60AA
:1053C000FB681968BB681A697B6918331B010B44B9
:1053D00004331A60BB681B7D012B11D1FB681A686E
:1053E0007B6918331B01134404331B68FA68116886
:1053F00043F480727B6918331B010B4404331A6039
:105400007B6807331B781A067B6806331B781B04FE
:105410001A437B6805331B781B0213437A680432F6
:1054200012781046FA68116843EA00027B691B0192
:105430000B4403F5C6731A607B6803331B781A06A6
:105440007B6802331B781B041A437B6801331B788B
:105450001B0213437A6812781046FA68116843EA0F
:1054600000027B691B010B4403F5C4731A60FB68DF
:105470001A687B6918331B0113441B68FA681168AA
:1054800043F001027B6918331B010B441A600023AF
:105490000EE0FB685B6A43F40012FB685A6201236A
:1054A00006E0FB685B6A43F48022FB685A620123D2
:1054B00018462437BD4680BC704780B487B000AF23
:1054C000F860B9607A603B60FB6893F82030FB7548
:1054D000FB7D012B03D0FB7D022B40F00381BB68D9
:1054E000002B0ED1FB681B68DB6803F00303002B65
:1054F00016D1FB685B6A43F40012FB685A62012311
:10550000F7E0FB681B681B6903F00303002B07D15E
:10551000FB685B6A43F40012FB685A620123E8E00F
:10552000FB681A68BB681B331B0113441B6803F03C
:1055300004027B689A607B689B68002B0CD1FB6837
:105540001A68BB681B331B0113441B685B0DC3F354
:105550000A027B681A600BE0FB681A68BB681B33A1
:105560001B0113441B68DB0823F060427B685A6010
:10557000FB681A68BB681B331B0113441B6803F0EC
:1055800002027B68DA60FB681A68BB681B331B0188
:10559000134404331B6803F00803002B03D07B681B
:1055A00008221A610BE0FB681A68BB681B331B01F9
:1055B000134404331B6803F00F027B681A61FB6815
:1055C0001A68BB681B331B01134404331B681B0A96
:1055D000DAB27B689A61FB681A68BB681B331B01EF
:1055E000134404331B681B0C9AB27B685A61FB6836
:1055F0001A68BB681B01134403F5DC731B68DAB23D
:105600003B681A70FB681A68BB681B01134403F5FA
:10561000DC731B681A0A3B680133D2B21A70FB684C
:105620001A68BB681B01134403F5DC731B681A0C72
:105630003B680233D2B21A70FB681A68BB681B0160
:10564000134403F5DC731B681A0E3B680333D2B2B4
:105650001A70FB681A68BB681B01134403F5DE73FC
:105660001A683B680433D2B21A70FB681A68BB68C8
:105670001B01134403F5DE731B681A0A3B680533EC
:10568000D2B21A70FB681A68BB681B01134403F599
:10569000DE731B681A0C3B680633D2B21A70FB68C3
:1056A0001A68BB681B01134403F5DE731B681A0EEE
:1056B0003B680733D2B21A70BB68002B08D1FB6875
:1056C0001B68DA68FB681B6842F02002DA6007E0BA
:1056D000FB681B681A69FB681B6842F020021A61AC
:1056E000002306E0FB685B6A43F48022FB685A6291
:1056F000012318461C37BD4680BC704780B485B076
:1057000000AF786039607B6893F82030FB73FB7BD7
:10571000012B02D0FB7B022B09D17B681B685969E6
:105720007B681B683A680A435A61002306E07B687D
:105730005B6A43F480227B685A620123184614375F
:10574000BD4680BC704780B58AB000AF786000234A
:105750007B627B681B685B693B627B681B685B687C
:10576000FB617B681B689B68BB617B681B68DB68AF
:105770007B617B681B681B693B617B681B689B695D
:10578000FB603B6A03F00103002B7CD0BB6903F094
:105790000103002B23D07B681B6801229A60BB6940
:1057A00003F00203002B03D0786800F083F916E0C1
:1057B000BB6903F00403002B04D07B6A43F400634D
:1057C0007B620CE0BB6903F00803002B04D07B6A0A
:1057D00043F480537B6202E0786800F086F9BB698D
:1057E00003F48073002B24D07B681B684FF4807215
:1057F0009A60BB6903F40073002B03D0786800F053
:1058000062F916E0BB6903F48063002B04D07B6A65
:1058100043F400537B620CE0BB6903F40063002B8C
:1058200004D07B6A43F480437B6202E0786800F036
:1058300065F9BB6903F48033002B24D07B681B68B7
:105840004FF480329A60BB6903F40033002B03D01D
:10585000786800F041F916E0BB6903F48023002B5F
:1058600004D07B6A43F400437B620CE0BB6903F421
:105870000023002B04D07B6A43F480337B6202E078
:10588000786800F044F93B6A03F00803002B0CD061
:105890007B6903F01003002B07D07B6A43F400738D
:1058A0007B627B681B681022DA603B6A03F00403AA
:1058B000002B0BD07B6903F00803002B06D07B681C
:1058C0001B680822DA60786800F02AF93B6A03F066
:1058D0000203002B09D07B681B68DB6803F003031D
:1058E000002B02D07868FDF79DFE3B6A03F0400371
:1058F000002B0CD03B6903F01003002B07D07B6A10
:1059000043F480637B627B681B6810221A613B6AE8
:1059100003F02003002B0BD03B6903F00803002B9E
:1059200006D07B681B6808221A61786800F00AF9C3
:105930003B6A03F01003002B09D07B681B681B69CE
:1059400003F00303002B02D0786800F0F2F83B6A02
:1059500003F40033002B0BD0FB6903F01003002B82
:1059600006D07B681B6810225A60786800F0F3F854
:105970003B6A03F48033002B0BD0FB6903F0080370
:10598000002B06D07B681B6808225A60786800F0FC
:10599000EBF83B6A03F40043002B7BD0FB6903F078
:1059A0000403002B72D03B6A03F48073002B08D0F1
:1059B000FB6803F00103002B03D07B6A43F0010373
:1059C0007B623B6A03F40073002B08D0FB6803F092
:1059D0000203002B03D07B6A43F002037B623B6A25
:1059E00003F48063002B08D0FB6803F00403002B52
:1059F00003D07B6A43F004037B623B6A03F40063D9
:105A0000002B43D0FB6803F07003002B3ED0FB68F3
:105A100003F07003602B2BD0602B2ED8502B22D09C
:105A2000502B2AD8402B19D0402B26D8302B10D001
:105A3000302B22D8102B02D0202B05D01DE07B6A02
:105A400043F008037B6219E07B6A43F010037B623A
:105A500014E07B6A43F020037B620FE07B6A43F033
:105A600040037B620AE07B6A43F080037B6205E0CF
:105A70007B6A43F480737B6200E000BF7B681B6835
:105A80009A697B681B6822F070029A617B681B68C8
:105A900004225A607B6A002B08D07B685A6A7B6AB2
:105AA0001A437B685A62786800F067F800BF2837AD
:105AB000BD4680BD80B483B000AF786000BF0C37B6
:105AC000BD4680BC704780B483B000AF786000BF33
:105AD0000C37BD4680BC704780B483B000AF78609F
