:020000040800F2
:1000000000500020D93F00082D3F0008353F000870
:100010003D3F0008453F00084D3F0008000000003C
:10002000000000000000000000000000553F000834
:10003000613F0008000000006D3F0008793F0008A4
:10004000214000082140000821400008214000080C
:1000500021400008214000082140000821400008FC
:1000600021400008853F0008214000082140000889
:1000700021400008214000082140000821400008DC
:1000800021400008214000082140000821400008CC
:10009000953F000821400008214000082140000849
:1000A00021400008214000082140000821400008AC
:1000B000A93F000821400008214000082140000815
:1000C000214000082140000821400008214000088C
:1000D000214000082140000821400008214000087C
:1000E000BD3F00082140000821400008000000003A
:1000F0000000000000000000000000000000000000
:0C01000000000000000000005FF808F1A3
:1001100010B5054C237833B9044B13B10448AFF341
:1001200000800123237010BDEC07002000000000B8
:100130006875000808B5034B1BB103490348AFF3CA
:10014000008008BD00000000F0070020687500086E
:1001500081F0004102E000BF83F0004330B54FEA78
:1001600041044FEA430594EA050F08BF90EA020FE5
:100170001FBF54EA000C55EA020C7FEA645C7FEA78
:10018000655C00F0E2804FEA5454D4EB5555B8BF9B
:100190006D420CDD2C4480EA020281EA030382EA0C
:1001A000000083EA010180EA020281EA0303362D9E
:1001B00088BF30BD11F0004F4FEA01314FF4801C71
:1001C0004CEA113102D0404261EB410113F0004F83
:1001D0004FEA03334CEA133302D0524263EB43033A
:1001E00094EA050F00F0A780A4F10104D5F1200ED8
:1001F0000DDB02FA0EFC22FA05F2801841F1000133
:1002000003FA0EF2801843FA05F359410EE0A5F106
:1002100020050EF1200E012A03FA0EFC28BF4CF037
:10022000020C43FA05F3C01851EBE37101F00045ED
:1002300007D54FF0000EDCF1000C7EEB00006EEBFA
:100240000101B1F5801F1BD3B1F5001F0CD3490884
:100250005FEA30004FEA3C0C04F101044FEA4452DB
:1002600012F5800F80F09A80BCF1004F08BF5FEA62
:10027000500C50F1000041EB045141EA050130BD42
:100280005FEA4C0C404141EB0101013C28BFB1F554
:10029000801FE9D291F0000F04BF01460020B1FA9F
:1002A00081F308BF2033A3F10B03B3F120020CDA72
:1002B0000C3208DD02F1140CC2F10C0201FA0CF050
:1002C00021FA02F10CE002F11402D8BFC2F1200CB5
:1002D00001FA02F120FA0CFCDCBF41EA0C0190406B
:1002E000E41AA2BF01EB0451294330BD6FEA0404B4
:1002F0001F3C1CDA0C340EDC04F11404C4F120029F
:1003000020FA04F001FA02F340EA030021FA04F3B0
:1003100045EA030130BDC4F10C04C4F1200220FA07
:1003200002F001FA04F340EA0300294630BD21FA45
:1003300004F0294630BD94F0000F83F4801306BF0B
:1003400081F480110134013D4EE77FEA645C18BFFF
:100350007FEA655C29D094EA050F08BF90EA020F96
:1003600005D054EA000C04BF1946104630BD91EA8E
:10037000030F1EBF0021002030BD5FEA545C05D191
:100380004000494128BF41F0004130BD14F58004D0
:100390003CBF01F5801130BD01F0004545F0FE4144
:1003A00041F470014FF0000030BD7FEA645C1ABF79
:1003B000194610467FEA655C1CBF0B46024650EAB0
:1003C000013406BF52EA033591EA030F41F40021DC
:1003D00030BD00BF90F0000F04BF0021704730B562
:1003E0004FF4806404F132044FF000054FF0000137
:1003F00050E700BF90F0000F04BF0021704730B5F8
:100400004FF4806404F1320410F0004548BF4042CC
:100410004FF000013EE700BF42004FEAE2014FEA21
:1004200031014FEA02701FBF12F07F4393F07F4FFC
:1004300081F06051704732F07F4208BF704793F0FF
:100440007F4F04BF41F40021704730B54FF4607412
:1004500001F0004521F000411CE700BF50EA010215
:1004600008BF704730B54FF000050AE050EA0102BE
:1004700008BF704730B511F0004502D5404261EB2E
:1004800041014FF4806404F132045FEA915C3FF46F
:10049000D8AE4FF003025FEADC0C18BF03325FEA0C
:1004A000DC0C18BF033202EBDC02C2F1200300FABD
:1004B00003FC20FA02F001FA03FE40EA0E0021FAE2
:1004C00002F11444BDE600BF70B54FF0FF0C4CF4D0
:1004D000E06C1CEA11541DBF1CEA135594EA0C0F82
:1004E00095EA0C0F00F0DEF82C4481EA030621EABD
:1004F0004C5123EA4C5350EA013518BF52EA0335F8
:1005000041F4801143F4801338D0A0FB02CE4FF0A9
:100510000005E1FB02E506F00042E0FB03E54FF0D9
:100520000006E1FB03569CF0000F18BF4EF0010ED1
:10053000A4F1FF04B6F5007F64F5407404D25FEACD
:100540004E0E6D4146EB060642EAC62141EA555180
:100550004FEAC52040EA5E504FEACE2EB4F1FD0CC2
:1005600088BFBCF5E06F1ED8BEF1004F08BF5FEA40
:10057000500E50F1000041EB045170BD06F00046F2
:1005800046EA010140EA020081EA0301B4EB5C049F
:10059000C2BFD4EB0C0541EA045170BD41F4801197
:1005A0004FF0000E013C00F3AB8014F1360FDEBFBC
:1005B000002001F0004170BDC4F10004203C35DA98
:1005C0000C341BDC04F11404C4F1200500FA05F31B
:1005D00020FA04F001FA05F240EA020001F00042BC
:1005E00021F0004110EBD37021FA04F642EB060132
:1005F0005EEA430E08BF20EAD37070BDC4F10C045C
:10060000C4F1200500FA04F320FA05F001FA04F21F
:1006100040EA020001F0004110EBD37041F100010B
:100620005EEA430E08BF20EAD37070BDC4F1200516
:1006300000FA05F24EEA020E20FA04F301FA05F27E
:1006400043EA020321FA04F001F0004121FA04F226
:1006500020EA020000EBD3705EEA430E08BF20EAF6
:10066000D37070BD94F0000F0FD101F00046400030
:1006700041EB010111F4801F08BF013CF7D041EAB2
:10068000060195F0000F18BF704703F000465200B6
:1006900043EB030313F4801F08BF013DF7D043EA87
:1006A0000603704794EA0C0F0CEA135518BF95EA3D
:1006B0000C0F0CD050EA410618BF52EA4306D1D1C4
:1006C00081EA030101F000414FF0000070BD50EAE3
:1006D000410606BF1046194652EA430619D094EA6D
:1006E0000C0F02D150EA013613D195EA0C0F05D157
:1006F00052EA03361CBF104619460AD181EA0301AB
:1007000001F0004141F0FE4141F470014FF0000062
:1007100070BD41F0FE4141F4780170BD70B54FF0FD
:10072000FF0C4CF4E06C1CEA11541DBF1CEA13557D
:1007300094EA0C0F95EA0C0F00F0A7F8A4EB05045F
:1007400081EA030E52EA03354FEA013100F0888056
:100750004FEA03334FF0805545EA131343EA12631F
:100760004FEA022245EA111545EA10654FEA0026D4
:100770000EF000419D4208BF964244F1FD0404F58D
:10078000407402D25B084FEA3202B61A65EB0305E9
:100790005B084FEA32024FF480104FF4002CB6EBA6
:1007A000020E75EB030E22BFB61A754640EA0C0026
:1007B0005B084FEA3202B6EB020E75EB030E22BF66
:1007C000B61A754640EA5C005B084FEA3202B6EBA7
:1007D000020E75EB030E22BFB61A754640EA9C0066
:1007E0005B084FEA3202B6EB020E75EB030E22BF36
:1007F000B61A754640EADC0055EA060E18D04FEAF4
:10080000051545EA16754FEA06164FEAC30343EA93
:1008100052734FEAC2025FEA1C1CC0D111F4801F60
:100820000BD141EA00014FF000004FF0004CB6E759
:1008300011F4801F04BF01430020B4F1FD0C88BFF8
:10084000BCF5E06F3FF6AFAEB5EB030C04BFB6EB03
:10085000020C5FEA500C50F1000041EB045170BDF6
:100860000EF0004E4EEA113114EB5C04C2BFD4EB23
:100870000C0541EA045170BD41F480114FF0000EA7
:10088000013C90E645EA060E8DE60CEA135594EA23
:100890000C0F08BF95EA0C0F3FF43BAF94EA0C0F26
:1008A0000AD150EA01347FF434AF95EA0C0F7FF49B
:1008B00025AF104619462CE795EA0C0F06D152EAEF
:1008C00003353FF4FDAE1046194622E750EA4106D3
:1008D00018BF52EA43067FF4C5AE50EA41047FF4E4
:1008E0000DAF52EA43057FF4EBAE12E74FEA410247
:1008F00012F5001215D211D56FF47873B3EB625272
:1009000012D94FEAC12343F0004343EA505311F098
:10091000004F23FA02F018BF404270474FF000002A
:10092000704750EA013005D111F0004008BF6FF068
:10093000004070474FF00000704700BF4A0011D2DE
:1009400012F5001211D20DD56FF47873B3EB625229
:100950000ED44FEAC12343F0004343EA505323FA35
:1009600002F070474FF00000704750EA013002D1AA
:100970004FF0FF3070474FF00000704780B582B0F5
:1009800000AF0346FB71134B5B69124A43F001034E
:100990005361104B5B690F4A43F480635361FB79E9
:1009A000184601F0D9FB0B4BDB680A4A43F00203FF
:1009B000D360084B5B69074A43F002035361054B60
:1009C000DB68044A43F48063D36000BF0837BD4648
:1009D00080BD00BF000C014080B582B000AF002395
:1009E0007B603FE07B68DBB2503BDBB21846FFF731
:1009F000C5FF00233B602FE03B68DBB2184600F0E8
:100A00007DF81C4BDB681B4A43F00103D360194B94
:100A1000DB68184A43F00203D360164B5B69154A42
:100A200043F480635361144A7B68DB011A443B68DA
:100A300013441B78184601F08FFB0E4BDB680D4A00
:100A400043F48063D3600B4B5B690A4A43F00203B3
:100A500053613B6801333B603B687F2BCCDD7B6897
:100A600001337B607B68072BBCDD00BF00BF08370C
:100A7000BD4680BD000C0140080C002080B500AFD1
:100A80001D4B5B691C4A43F48063536100220421BF
:100A9000194804F050FC322003F026FB0122042107
:100AA000154804F048FCA220FFF768FFA020FFF7DC
:100AB00065FFC020FFF762FF4020FFF75FFF2C209B
:100AC000FFF75CFF322003F00FFB2E20FFF756FFED
:100AD000322003F009FB2F20FFF750FF322003F0F4
:100AE00003FB2420FFF74AFFAF20FFF747FFA420B6
:100AF000FFF744FF00BF80BD000C014080B582B00D
:100B000000AF0346FB71FB791B09DBB243F0100316
:100B1000DBB21846FFF732FFFB7903F00F03DBB2BD
:100B20001846FFF72BFF00BF0837BD4680BD000009
:100B300080B485B000AF0023FB601FE00023FB7290
:100B40007F237B6014E0FB7A5A1CFA721846104A25
:100B5000FB68DB011A447B68134419780D4AFB6873
:100B6000DB01134403440A461A707B68013B7B6037
:100B70007B68002BE7DAFB680133FB60FB68072B1F
:100B8000DCDD00BF00BF1437BD4680BC704700BF2E
:100B900008080020080C0020B0B584B000AF034660
:100BA000FB7100237B73FB79504AA2FB03235B0993
:100BB0003B73FB794D4AA2FB03125209642101FBEE
:100BC00002F29B1ADBB24A4AA2FB0323DB08FB7248
:100BD000FB79464AA2FB03125209642101FB02F28F
:100BE0009B1ADAB2424BA3FB0213D9080B469B00B7
:100BF0000B445B00D31ABB7200237B730023BB73CF
:100C000020E00023FB7317E0B87BFB7B03F12E048D
:100C1000FA7A797B374D13469B001344DB012B4452
:100C20000B441B781A46214600F05AFB7B7B0133AC
:100C30007B73FB7B0133FB73FB7B0F2BE4D9BB7B0B
:100C40000133BB73BB7B032BDBD900237B730023F6
:100C5000BB7320E00023FB7317E0B87BFB7B03F141
:100C60004004BA7A797B234D13469B001344DB0181
:100C70002B440B441B781A46214600F031FB7B7B4A
:100C800001337B73FB7B0133FB73FB7B0F2BE4D9BD
:100C9000BB7B0133BB73BB7B032BDBD900237B7393
:100CA0000023BB7319E00023FB7310E0BB7B181D0E
:100CB000FB7B03F134017B7B0F4AD35C1A4600F0C7
:100CC0000FFB7B7B01337B73FB7B0133FB73FB7B74
:100CD000142BEBD9BB7B0133BB73BB7B002BE2D066
:100CE00000BF00BF1037BD46B0BD00BF1F85EB5130
:100CF000CDCCCCCC78770008F8920008B0B584B0A1
:100D000000AF0346FB710023FB73FB79002B1DD161
:100D10000323BB7316E000237B730DE0B87B797B64
:100D2000FB7B5A1CFA731A461D4B9B5C1A4600F05B
:100D3000D7FA7B7B01337B737B7B1C2BEED9BB7B90
:100D40000133BB73BB7B032BE5D925E003233B7346
:100D50001FE00023FB7216E0387BF97AFB795A1EFC
:100D6000FB7B5C1CFC731D460E4C13465B0013445E
:100D7000DA00D21AA3182B441B781A4600F0B0FAF6
:100D8000FB7A0133FB72FB7A142BE5D93B7B0133F1
:100D90003B733B7B032BDCD900BF1037BD46B0BD96
:100DA0005877000818770008B0B584B000AF034644
:100DB000FB710023FB730623BB731CE01A237B73B8
:100DC00013E0B87B797BFA79FB7B5C1CFC731D46D6
:100DD0000D4C9A2302FB03F323442B441B781A4641
:100DE00000F07EFA7B7B01337B737B7B662BE8D93B
:100DF000BB7B0133BB73BB7B072BDFD90023FB73AA
:100E000000BF1037BD46B0BD0004002080B582B0E1
:100E100000AF0023FB712023BB710DE0B979FB7992
:100E20005A1CFA711A46084B9B5C1A46052000F0C2
:100E300057FABB790133BB71BB792F2BEED900BFB9
:100E400000BF0837BD4680BD1093000880B582B052
:100E500000AF0023FB715423BB710DE0B979FB791E
:100E60005A1CFA711A46084B9B5C1A46002000F087
:100E700037FABB790133BB71BB79602BEED900BF68
:100E800000BF0837BD4680BD2093000880B582B002
:100E900000AF0023FB716B23BB710DE0B979FB79C7
:100EA0005A1CFA711A46084B9B5C1A46022000F045
:100EB00017FABB790133BB71BB797B2BEED900BF2D
:100EC00000BF0837BD4680BD3093000890B585B09F
:100ED00000AF03463A60FB710B46BB710123FB7305
:100EE000FB7963F04F03DBB21846FFF747FDBB7990
:100EF0001846FFF703FEB1E00023BB609AE03B68B1
:100F00001B78402B1FD93B681B785A2B1BD83B689A
:100F10001A78574B1A70F879BB795A1CBA711C466B
:100F2000534B1B78A3F14102524913469B001344D3
:100F3000CA18BB6813441B785B001A46214600F0B0
:100F4000CFF90123FB733B681B78602B1FD93B68EB
:100F50001B787C2B1BD83B681A78454B1A70F879A4
:100F6000BB795A1CBA711C46414B1B78A3F147024E
:100F7000404913469B001344CA18BB6813441B78AE
:100F80005B001A46214600F0ABF90023FB733B6877
:100F90001B782F2B20D93B681B78392B1CD83B683A
:100FA0001A78334B1A70F879BB795A1CBA711C46FF
:100FB0002F4B1B78A3F130022F4913465B001344DB
:100FC0005B00CA18BB6813441B785B001A462146B5
:100FD00000F086F90123FB733B681B782E2B08D1A8
:100FE000F879BB795A1CBA714022194600F078F999
:100FF00024E03B681B78202B08D1F879BB795A1C78
:10100000BA710022194600F06BF917E03B681B78B3
:10101000252B0CD1F879BB795A1CBA711946174A9D
:10102000BB6813441B785B001A4600F059F9BB6893
:101030000133BB60BB68042B7FF761AF3B680133B2
:101040003B60FB7B002B09D0F879BB795A1CBA7145
:101050000022194600F044F90023FB733B681B781B
:10106000002B7FF449AF00BF00BF1437BD4690BDD1
:1010700008100020E4750008A8750008A075000895
:1010800080B485B000AF0346FB710B46BB711346BD
:101090007B710023FB730DE0FA79BB79591CB971A0
:1010A00018460949D3010B44034400221A70FB7B04
:1010B0000133FB73FA7B7B799A42EDD900BF00BF05
:1010C0001437BD4680BC70470808002090B585B035
:1010D00000AF0346FB710B46BB7113467B71FB7976
:1010E00063F04F03DBB21846FFF748FCBB791846A4
:1010F000FFF704FD0023FB6016E0F879BB795A1C6A
:10110000BA711C467A79104913465B0013445B00A0
:10111000CA18FB6813441B785B001A46214600F08E
:10112000DFF8FB680133FB60FB68042BE5DDF87931
:10113000BB795A1CBA710022194600F0D1F800BFE1
:101140001437BD4690BD00BFA875000890B58BB0A0
:1011500000AF0346FB710B46BB711346BB800023F7
:1011600087F82730BB883B62FB7963F04F03DBB223
:101170001846FFF703FCBB791846FFF7BFFC0023B6
:10118000FB600CE097F82730013387F827303B6A83
:10119000344A82FB03129210DB17D31A3B623B6A7C
:1011A000002BEFDC97F82730013BDBB2FB774EE0FA
:1011B0000123BB610023FB7508E0BA6913469B005D
:1011C00013445B00BB61FB7D0133FB75FA7D97F92E
:1011D0001F309A42F1DBBA88BB6992FBF3F2214BD4
:1011E00083FB02139910D317C91A0B469B000B44BB
:1011F0005B00D11A0B46BB7200233B6116E0F87905
:10120000BB795A1CBA711C46BA7A174913465B005F
:1012100013445B00CA183B6913441B785B001A46F1
:10122000214600F05DF83B6901333B613B69042BCB
:10123000E5DDF879BB795A1CBA710022194600F035
:101240004FF897F91F30DBB2013BDBB2FB7797F920
:101250001F30002BACDA0023FB7200BF2C37BD46D9
:1012600090BD00BF67666666A875000880B582B04D
:1012700000AF0023FB8000237B7117E000233B714C
:101280000DE078793979FB885A1CFA801A46134B9D
:101290009B5C1A4600F024F83B7901333B7197F9C7
:1012A0000430002BEDDA7B7901337B717B79072BDE
:1012B000E4D9A220FFF762FBA020FFF75FFBC0206C
:1012C000FFF75CFB4020FFF759FBFFF731FCFFF70E
:1012D00083FB00BF0837BD4680BD00BF0000002073
:1012E00080B483B000AF0346FB710B46BB7113465D
:1012F0007B71FA79BB790549D2010A4413447A79A2
:101300001A7000BF0C37BD4680BC7047080800202B
:1013100080B582B000AF0023FB710123BB7116E0E2
:1013200019237B710DE0FB795A1CFA711A460C4B9C
:101330009A5C7979BB791846FFF7D2FF7B79013344
:101340007B717B79262BEED9BB790133BB71BB79DD
:10135000022BE5D900BF00BF0837BD4680BD00BFE6
:101360004093000880B582B000AF0023FB7114E009
:101370000023BB710AE0FB790633DBB2B9790422A2
:101380001846FFF7ADFFBB790133BB7197F9063003
:10139000002BF0DAFB790133FB71FB79002BE7D0EE
:1013A00000BF00BF0837BD4680BD000080B483B0D9
:1013B00000AF78607B68774A934200F01F847B68B7
:1013C000744A934200F2BA867B68734A934200F0F3
:1013D0009B817B68704A934200F2B0867B686F4ABB
:1013E000934200F06F817B686C4A934200F2A686BC
:1013F0007B686B4A934200F0A3867B68684A9342FD
:1014000000F29C867B68674A934200F0DD807B682F
:10141000644A934200F292867B68634A934200F0EA
:1014200095807B68604A934200F288867B685F4AB9
:10143000934279D07B685D4A934200F27F867B6855
:101440005B4A93424ED07B68594A934200F27686BB
:101450007B68584A934210D07B68564A934200F208
:101460006D867B68544A934200F054867B68534AE9
:10147000934200F03D8600F061BE514B1B781B0289
:101480001AB24F4B5B781BB213431BB29AB24D4B4F
:101490001A804B4B9B781B021AB2494BDB781BB26C
:1014A00013431BB29AB2474B5A80454B1B791B0220
:1014B0001AB2434B5B791BB213431BB29BB2A3F529
:1014C000EA43303B9AB23F4B9A803D4B9B791B02DB
:1014D0001AB23B4BDB791BB213431AB2394B9A81D8
:1014E00000F02FBE364B1B781B021AB2344B5B78D0
:1014F0001BB213431BB29AB2324BDA81304B9A784B
:10150000304B1A742E4BDB781B021AB22C4B1B7912
:101510001BB213431BB29AB22A4B5A82284B5A79F8
:10152000284B1A7500F00DBE254B1A78254B5A75BD
:10153000234B5A78234B9A75214B9A78214BDA75B5
:101540001F4BDA781F4B1A7600F0FBBD1C4B1A7844
:101550001C4B5A761A4B5A781A4B9A76184B9A7833
:10156000184BDA76164BDA78164B1A77144B1B7930
:101570001A06134B5B791B041A43114B9B791B0210
:1015800013430F4AD27913431A460E4B1A6200F0E6
:10159000D8BD00BF01409818014097180140961827
:1015A0000140951801409418014093180140921889
:1015B0000140911801409018014050180140521804
:1015C0000C100020141000204D4B1A784D4B83F85E
:1015D00024204B4B5A784B4B83F82520484B9A7864
:1015E000484B83F82620464BDA78464B83F8272071
:1015F000434B1B7903F00103D9B2424A92F82830D9
:1016000061F3000382F828303D4B1B795B1003F037
:101610000103D9B23B4A92F8283061F3410382F8C2
:101620002830374B1B799B1003F00103D9B2354AA0
:1016300092F8283061F3820382F82830304B1B790E
:10164000DB1003F00103D9B22E4A92F8283061F37F
:10165000C30382F828302A4B1B791B1103F00103C6
:10166000D9B2284A92F8283061F3041382F828305E
:10167000234B1B795B1103F00103D9B2214A92F885
:10168000283061F3451382F828301D4B1B799B11DC
:1016900003F00103D9B21B4A92F8283061F3861394
:1016A00082F82830164B1B79DB09DBB203F001030B
:1016B000D9B2144A92F8283061F3C71382F828305F
:1016C00000F03FBD0E4B5B78283BDAB20D4B83F840
:1016D0002E200B4B9B78283BDAB20A4B83F82F2045
:1016E000074BDB78283BDAB2064B83F83020044BFB
:1016F0001B79283BDAB2034B83F8312000F021BD7F
:101700000C10002014100020C04B1B7803F00103C4
:10171000D9B2BF4A92F8323061F3000382F8323016
:10172000BA4B1B785B1003F00103D9B2B84A92F8A8
:10173000323061F3410382F83230B44B1B789B1096
:1017400003F00103D9B2B24A92F8323061F3820356
:1017500082F83230AD4B1B78DB1003F00103D9B2B5
:10176000AB4A92F8323061F3C30382F83230A74BB0
:101770001B781B1103F00103D9B2A54A92F832304D
:1017800061F3041382F83230A04B1B785B1103F035
:101790000103D9B29E4A92F8323061F3451382F8C0
:1017A00032309A4B1B789B1103F00103D9B2984A4F
:1017B00092F8323061F3861382F83230934B1B7803
:1017C000DB09DBB203F00103D9B2914A92F832305F
:1017D00061F3C71382F832308C4B5B7803F001035E
:1017E000D9B28B4A92F8333061F3000382F8333078
:1017F000864B5B785B1003F00103D9B2844A92F800
:10180000333061F3410382F83330804B5B789B10B7
:1018100003F00103D9B27E4A92F8333061F38203B8
:1018200082F83330794B5B78DB1003F00103D9B2D7
:10183000774A92F8333061F3C30382F83330734B45
:101840005B781B1103F00103D9B2714A92F833306F
:1018500061F3041382F833306C4B5B785B1103F057
:101860000103D9B26A4A92F8333061F3451382F822
:101870003330664B5B789B1103F00103D9B2644AA5
:1018800092F8333061F3861382F833305F4B5B7824
:10189000DB09DBB203F00103D9B25D4A92F83330C1
:1018A00061F3C71382F83330584B9B7803F0010380
:1018B000D9B2574A92F8343061F3000382F83430D9
:1018C000524B9B785B1003F00103D9B2504A92F857
:1018D000343061F3410382F834304C4B9B789B10D9
:1018E00003F00103D9B24A4A92F8343061F382031B
:1018F00082F83430454B9B78DB1003F00103D9B2FA
:10190000434A92F8343061F3C30382F834303F4BDA
:101910009B781B1103F00103D9B23D4A92F8343091
:1019200061F3041382F83430384B9B785B1103F079
:101930000103D9B2364A92F8343061F3451382F884
:101940003430324B9B789B1103F00103D9B2304AFB
:1019500092F8343061F3861382F834302B4B9B7845
:10196000DB09DBB203F00103D9B2294A92F8343023
:1019700061F3C71382F83430244BDB7803F00103A2
:10198000D9B2234A92F8353061F3000382F835303A
:101990001E4BDB785B1003F00103D9B21C4A92F8AE
:1019A000353061F3410382F83530184BDB789B10FA
:1019B00003F00103D9B2164A92F8353061F382037D
:1019C00082F83530114BDB78DB1003F00103D9B21C
:1019D0000F4A92F8353061F3C30382F835300B4B70
:1019E000DB781B1103F00103D9B2094A92F83530B4
:1019F00061F3041382F83530044BDB785B1103F09C
:101A00000103D9B2024A92F8353003E00C100020ED
:101A10001410002061F3451382F83530754BDB78E4
:101A20009B1103F00103D9B2734A92F8353061F388
:101A3000861382F835306F4BDB78DB09DBB203F0BD
:101A40000103D9B26C4A92F8353061F3C71382F8BA
:101A50003530684B1B7903F00103D9B2664A92F81E
:101A6000363061F3000382F83630624B1B795B102D
:101A700003F00103D9B2604A92F8363061F34103B2
:101A800082F836305B4B1B799B1003F00103D9B20F
:101A9000594A92F8363061F3820382F83630554B5A
:101AA0001B79DB1003F00103D9B2534A92F83630A8
:101AB00061F3C30382F836304E4B1B791B1103F0E0
:101AC0000103D9B24C4A92F8363061F3041382F81C
:101AD0003630484B1B795B1103F00103D9B2464AFB
:101AE00092F8363061F3451382F83630414B1B795A
:101AF0009B1103F00103D9B23F4A92F8363061F3EB
:101B0000861382F836303B4B1B79DB09DBB203F0DE
:101B10000103D9B2384A92F8363061F3C71382F81C
:101B20003630344B5B7903F00103D9B2324A92F874
:101B3000373061F3000382F837302E4B5B795B104E
:101B400003F00103D9B22C4A92F8373061F3410314
:101B500082F83730274B5B799B1003F00103D9B231
:101B6000254A92F8373061F3820382F83730214BEF
:101B70005B79DB1003F00103D9B21F4A92F83730CA
:101B800061F3C30382F837301A4B5B791B1103F002
:101B90000103D9B2184A92F8373061F3041382F87E
:101BA0003730144B5B795B1103F00103D9B2124A51
:101BB00092F8373061F3451382F837300D4B5B797B
:101BC0009B1103F00103D9B20B4A92F8373061F34D
:101BD000861382F83730074B5B79DB09DBB203F001
:101BE0000103D9B2044A92F8373061F3C71382F87F
:101BF0003730A6E20C10002014100020C04B1B78D8
:101C000003F00103D9B2BF4A92F8383061F3000300
:101C100082F83830BA4B1B785B1003F00103D9B25D
:101C2000B84A92F8383061F3410382F83830B44B47
:101C30001B789B1003F00103D9B2B24A92F83830F6
:101C400061F3820382F83830AD4B1B78DB1003F070
:101C50000103D9B2AB4A92F8383061F3C30382F87A
:101C60003830A74B1B781B1103F00103D9B2A54AEA
:101C700092F8383061F3041382F83830A04B1B78A7
:101C80005B1103F00103D9B29E4A92F8383061F338
:101C9000451382F838309A4B1B789B1103F00103EF
:101CA000D9B2984A92F8383061F3861382F8383006
:101CB000934B1B78DB09DBB203F00103D9B2914AE5
:101CC00092F8383061F3C71382F838308C4B5B7868
:101CD00003F00103D9B28B4A92F8393061F3000363
:101CE00082F83930864B5B785B1003F00103D9B280
:101CF000844A92F8393061F3410382F83930804BDD
:101D00005B789B1003F00103D9B27E4A92F8393018
:101D100061F3820382F83930794B5B78DB1003F092
:101D20000103D9B2774A92F8393061F3C30382F8DC
:101D30003930734B5B781B1103F00103D9B2714A40
:101D400092F8393061F3041382F839306C4B5B78C8
:101D50005B1103F00103D9B26A4A92F8393061F39A
:101D6000451382F83930664B5B789B1103F0010311
:101D7000D9B2644A92F8393061F3861382F8393067
:101D80005F4B5B78DB09DBB203F00103D9B25D4A3C
:101D900092F8393061F3C71382F83930584B9B7889
:101DA00003F00103D9B2574A92F83A3061F30003C5
:101DB00082F83A30524B9B785B1003F00103D9B2A2
:101DC000504A92F83A3061F3410382F83A304C4B72
:101DD0009B789B1003F00103D9B24A4A92F83A303B
:101DE00061F3820382F83A30454B9B78DB1003F0B5
:101DF0000103D9B2434A92F83A3061F3C30382F83F
:101E00003A303F4B9B781B1103F00103D9B23D4A96
:101E100092F83A3061F3041382F83A30384B9B78E9
:101E20005B1103F00103D9B2364A92F83A3061F3FC
:101E3000451382F83A30324B9B789B1103F0010333
:101E4000D9B2304A92F83A3061F3861382F83A30C8
:101E50002B4B9B78DB09DBB203F00103D9B2294A93
:101E600092F83A3061F3C71382F83A30244BDB78AA
:101E700003F00103D9B2234A92F83B3061F3000327
:101E800082F83B301E4BDB785B1003F00103D9B2C4
:101E90001C4A92F83B3061F3410382F83B30184B07
:101EA000DB789B1003F00103D9B2164A92F83B305D
:101EB00061F3820382F83B30114BDB78DB1003F0D7
:101EC0000103D9B20F4A92F83B3061F3C30382F8A1
:101ED0003B300B4B1B7903F00103D9B2094A92F84E
:101EE0003C3061F3000382F83C30054B1B795B10FA
:101EF00003F00103D9B2034A92F83C3004E000BF7A
:101F00000C1000201410002061F3410382F83C30D3
:101F10008E4B1B799B1003F00103D9B28C4A92F8C7
:101F20003C3061F3820382F83C30884B1B79DB1034
:101F300003F00103D9B2864A92F83C3061F3C3033F
:101F400082F83C30814B1B791B1103F00103D9B29D
:101F50007F4A92F83C3061F3041382F83C307B4BAB
:101F60001B795B1103F00103D9B2794A92F83C3036
:101F700061F3451382F83C30744B1B799B1103F0DD
:101F80000103D9B2724A92F83C3061F3861382F8A9
:101F90003C306E4B1B79DB09DBB203F00103D9B295
:101FA0006B4A92F83C3061F3C71382F83C30674BC0
:101FB0005B7903F00103D9B2654A92F83D3061F3D1
:101FC000000382F83D30614B5B795B1003F0010345
:101FD000D9B25F4A92F83D3061F3410382F83D3057
:101FE0005A4B5B799B1003F00103D9B2584A92F81F
:101FF0003D3061F3820382F83D30544B5B79DB1056
:1020000003F00103D9B2524A92F83D3061F3C303A1
:1020100082F83D304D4B5B791B1103F00103D9B2BF
:102020004B4A92F83D3061F3041382F83D30474B40
:102030005B795B1103F00103D9B2454A92F83D3058
:1020400061F3451382F83D30404B5B799B1103F0FF
:102050000103D9B23E4A92F83D3061F3861382F80B
:102060003D303A4B5B79DB09DBB203F00103D9B2B7
:10207000374A92F83D3061F3C71382F83D30334B55
:102080009B7903F00103D9B2314A92F83E3061F3F3
:10209000000382F83E302D4B9B795B1003F0010367
:1020A000D9B22B4A92F83E3061F3410382F83E30B8
:1020B000264B9B799B1003F00103D9B2244A92F876
:1020C0003E3061F3820382F83E30204B9B79DB1077
:1020D00003F00103D9B21E4A92F83E3061F3C30304
:1020E00082F83E30194BDA79194B83F83F2028E00B
:1020F000164B1B781A06154B5B781B041A43134BBF
:102100009B781B021343114AD27813431A46104B93
:102110001A6416E00D4B5B781A040C4B9B781B027B
:1021200013430A4AD27813430A4A82FB03129211DC
:10213000DB17D31A1A46064B9A6002E000BF00E094
:1021400000BF00BF0C37BD4680BC70470C1000209C
:1021500014100020D34D621080B483B000AF03464A
:10216000FB71044AFB79D36000BF0C37BD4680BCCD
:10217000704700BF0008014080B483B000AF7860B2
:102180007B68DAB2084B1A707B681B0ADAB2064B1E
:102190005A707B681B0CDAB2034B9A7000BF0C3785
:1021A000BD4680BC704700BF0415002080B582B0DA
:1021B00000AF78600B46FB707868FFF7DDFFFB78B7
:1021C0009BB203220349184600F022F800BF0837EB
:1021D000BD4680BD0415002080B582B000AF034627
:1021E000FB71FB799BB203220849184600F02EF8D8
:1021F000064B9B781A04054B5B781B021343034A7A
:102200001278134318460837BD4680BD701400206D
:1022100080B586B004AF03463960FB801346BB80AF
:10222000FA884FF0FF330293BB8801933B68009319
:102230000123A021044803F00BFA052001F054FF0C
:1022400000BF0837BD4680BD8010002080B586B035
:1022500004AF03463960FB801346BB80FA884FF019
:10226000FF330293BB8801933B6800930123A021B5
:10227000044803F0E7FA052001F036FF00BF0837F5
:10228000BD4680BD8010002080B500AF0C2200212B
:102290000720FEF7F5FE144B1B88144AA2FB03230C
:1022A0005B099BB21A4600210720FEF70FFF0E4B79
:1022B0001B880F4AA2FB0323DB089AB20C4BA3FB3B
:1022C0000213D9080B469B000B445B00D31A9BB248
:1022D0001A4606210720FEF7F9FE064A0C210720C0
:1022E000FEF7F4FD00BF80BD141000201F85EB51E8
:1022F000CDCCCCCC8075000880B500AFFEF7C6FD14
:10230000324B1A6C314B9B68B2FBF3F3304A1360CB
:102310002F4B1B682F4AA2FB03239B091A466721F8
:102320000320FEF7D3FE2A4B1A682A4BA3FB0213A5
:102330009B094FF47A7101FB03F3D31A264AA2FBDF
:1023400003235B091A466D210320FEF7BFFE204BD5
:102350001A68204BA3FB02139B094FF47A7101FB0F
:1023600003F3D31A1C4AA2FB03125209642101FB96
:1023700002F29A1A194BA3FB0223DB081A467321B7
:102380000320FEF7A3FE124B1A68124BA3FB0213A5
:102390009B094FF47A7101FB03F3D31A0E4AA2FB97
:1023A00003125209642101FB02F29A1A0B4BA3FBA0
:1023B0000213D9080B469B000B445B00D11A0A4656
:1023C00079210320FEF782FE00BF80BD141000209B
:1023D000DC140020D34D62101F85EB51CDCCCCCC4A
:1023E00080B500AF824B5B7D002B1AD1804BDB7D2B
:1023F000002B16D17E4B5B7D1A4600210020FEF794
:10240000A5FE03220C210020FEF76AFF03220D2106
:102410000020FEF765FF774A0F210020FEF756FDEA
:102420009EE0734B5B7D322B17D9714B5B7D283B54
:102430001A4600210020FEF789FE03220C2100200D
:10244000FEF74EFF03220D210020FEF749FF694AE7
:102450000F210020FEF73AFD82E0654BDB7D312B3A
:102460001AD8634BDB7D272B16D9614BDB7D283BCC
:102470001A4600210020FEF769FE03220C210020ED
:10248000FEF72EFF03220D210020FEF729FF594AF7
:102490000F210020FEF71AFD554BDB7D272B2FD88F
:1024A000534BDB7D1E2B2BD9102200210020FEF781
:1024B00017FF102201210020FEF712FF1022022137
:1024C0000020FEF70DFF102203210020FEF708FF79
:1024D000474BDB7DC3F128031A4605210020FEF798
:1024E00035FE03220B210020FEF7FAFE03220C2109
:1024F0000020FEF7F5FE3F4A0E210020FEF7E6FC25
:102500003B4BDB7D1E2B2BD8102200210020FEF739
:10251000E7FE102201210020FEF7E2FE1022022138
:102520000020FEF7DDFE102203210020FEF7D8FE7A
:102530002F4BDB7DC3F128031A4605210020FEF74F
:1025400005FE032211210020FEF7CAFE03221221FC
:102550000020FEF7C5FE274A14210020FEF7B6FC36
:10256000234B5B7D5F2B1DD9234B1B78002B0CBFAE
:1025700001230023DBB21A461F4B1A701E4B1B7837
:10258000002B05D01D4B01221A70FEF7C1FE09E099
:102590000D2219210120FEF773FD0D2219210220C1
:1025A000FEF76EFD124B5B7D592B0CD80C221921C6
:1025B0000120FEF765FD0D2219210220FEF760FDC6
:1025C0000E4B00221A700A4B5B7D002B0DD1084B7D
:1025D000DB7D002B09D1002200210020FEF776FDD3
:1025E000002206210020FEF771FD00BF80BD00BF64
:1025F00014100020887500083C150020C614002027
:1026000080B500AF584BB3F90C30952B2ADD574BF2
:1026100000221A70544BB3F90C301846FDF7EAFE4D
:1026200002460B464FF000005149FDF795FD02466A
:102630000B46104619464AA3D3E90023FDF744FF91
:1026400002460B464FF000004949FDF785FD024662
:102650000B4610461946FEF749F903461AB2454B98
:102660001A800CE0414B01221A703F4BB3F90C3039
:102670009BB2C3F196039BB21AB23E4B1A803D4BFC
:10268000B3F90030B3F57A7F19D11D2262210720FA
:10269000FEF7F6FC012268210720FEF717FD002255
:1026A0006E210720FEF712FD002274210720FEF79D
:1026B0000DFD314A7A210720FEF708FC4BE01D2270
:1026C00062210720FEF7DCFC284B1B78002B13D07F
:1026D000102269210720FEF703FE10226A2107203D
:1026E000FEF7FEFD10226B210720FEF7F9FD1022F8
:1026F0006C210720FEF7F4FD1E4BB3F900301F4A92
:1027000082FB03125211DB17D31A1BB21A466E2139
:102710000720FEF7DBFC174BB3F90030184A82FBA9
:1027200003129210DB17D31A1AB2154B83FB021354
:102730009910D317C91A0B469B000B445B00D31AA0
:102740001BB21A4674210720FEF7C0FC0A4A7A2100
:102750000720FEF7BBFB00BF80BD00BFAFF30080CA
:10276000D3D2D2D2D2D2F23F141000203D15002095
:1027700000408F40C41400208C7500081F85EB5169
:10278000676666660000000080B500AF102146480D
:1027900002F0BAFD0346012B06D10020FEF7AEFA87
:1027A000424B01221A7070E0404B00221A70404BDD
:1027B0001B79C3F38113DBB21846FEF79FFA3C4B3B
:1027C0001B7923F03F03DBB2402B1DD1394BB3F90A
:1027D00000301846FDF70EFE31A3D3E90023FDF7C4
:1027E00073FE02460B46104619464FF00002324B6C
:1027F000FDF794FF02460B4610461946FEF79EF879
:1028000003469AB22D4B1A80294B1B7923F03F03C4
:10281000DBB2802B1DD1274BB3F900301846FDF7F2
:10282000E9FD4FF03332264BFDF74EFE02460B46D4
:10283000104619464FF000021F4BFDF76FFF02468E
:102840000B4610461946FEF779F803469AB21B4B21
:102850001A80174B1B7923F03F03DBB2C02B14D136
:10286000144BB3F900301846FDF7C4FD4FF00002D9
:10287000114BFDF753FF02460B4610461946FEF773
:102880005DF803469AB20D4B1A800E4BB3F90C302B
:10289000952B02DC094B00221A8000BF80BD00BFCF
:1028A000666666666666F63F000C01403E150020CF
:1028B000E8140020C414002000002440401500202B
:1028C0003333F33F1410002080B500AF344B0022A7
:1028D0001A7029E0324B1B781A46324B53F82230DB
:1028E000314A5360304B04229A602F4B0022DA6049
:1028F0002D4B08221A612A4B1B781A462B4B0021BC
:102900009954274B1B781A46284B1A44284B2649C2
:10291000284801F015FE322001F0E6FB204B1B7821
:102920000133DAB21E4B1A701D4B1B780A2BD1D91A
:10293000214B1B78002B11D1204B1B78002B05D08D
:102940001F4B1B780133DAB21D4B1A701C4B1B78DE
:10295000092B1CD9184B01221A7018E0194A55216D
:102960000320FEF7B3FA184A6E210320FEF7AEFAF1
:10297000164B00221A80154B0022DA75134BDA7DB4
:10298000124B5A75114B5B7D1AB2104B9A810B4B4F
:1029900001221A70024B00221A7000BF80BD00BFD6
:1029A00054140020B00700200815002058140020FF
:1029B000601400205810002043150020421500200C
:1029C0004415002090750008987500081410002028
:1029D00080B500AF3A4BB3F9003040F2B5329342C4
:1029E00009DD374BB3F90030B3F57A7F03DC0520FE
:1029F000FEF7DAF962E0324BB3F90030B3F5487F05
:102A00000ADB2F4BB3F9003040F2B532934203DCBE
:102A10000420FEF7C9F951E0294BB3F90030B3F5B2
:102A2000167F09DB264BB3F90030B3F5487F03DA94
:102A30000320FEF7B9F941E0214BB3F90030B3F5BB
:102A4000C87F09DB1E4BB3F90030B3F5167F03DAFC
:102A50000220FEF7A9F931E0194BB3F90030C72B7A
:102A600009DD174BB3F90030B3F5C87F03DA012055
:102A7000FEF79AF922E0124BB3F90030002B19DB74
:102A80000F4BB3F90030C72B14DC0E4B1B78002B17
:102A90000CBF01230023DBB21A460A4B1A70094B04
:102AA0001B78002B03D00020FEF77EF906E0FEF72E
:102AB00059FC03E00020FEF777F900BF00BF80BD9E
:102AC000C4140020C714002080B582B000AF786025
:102AD0000F4B104A0021786801F001FE0346002BDD
:102AE00011D10C4B5B680C4A13600B4B1B681846EA
:102AF000FEF75CFC094B00221A70094B00221A7089
:102B0000084B00221A7000BF0837BD4680BD00BFC9
:102B10000C100020201500205C140020431500201C
:102B2000421500204415002080B584B000AF744BDE
:102B30001B781846FEF730F8332260210020FEF79C
:102B40009FFA704B1B88704AA2FB03235B099BB260
:102B5000FB736C4B1B886C4AA2FB03125209642165
:102B600001FB02F29B1A9BB2684AA2FB0323DB081B
:102B70009BB2BB73634B1B88634AA2FB03125209CF
:102B8000642101FB02F29B1A9AB2604BA3FB021371
:102B9000D9080B469B000B445B00D31A9BB27B7396
:102BA000FEF754F9FB7B1A4662210020FEF78EFAED
:102BB000BB7B1A4668210020FEF788FA7B7B1A4609
:102BC0006E210020FEF782FA514A74210020FEF7A0
:102BD0007DF9504B1B68504AA2FB03239B0C3B73AF
:102BE0004C4B1A684C4BA3FB02139B0C4B4901FB4B
:102BF00003F3D31A5B094A4AA2FB0323DB09FB72E6
:102C0000444B1A6853094649A1FB0313DB094549A4
:102C100001FB03F3D31A444AA2FB03235B0BBB72F1
:102C20003C4B1A68404BA3FB02135B0B42F2107142
:102C300001FB03F3D31A3D4AA2FB03239B097B72DA
:102C4000344B1A68394BA3FB02139B094FF47A717A
:102C500001FB03F3D31A2C4AA2FB03235B093B724B
:102C60002C4B1A68284BA3FB02135B09642101FB60
:102C700003F3D31A254AA2FB0323DB08FB71254B80
:102C80001968224BA3FB0123DA0813469B00134467
:102C90005B00CA1A1346BB71402220210520FEF7B3
:102CA000EFF9FEF7B3F83B7B1A4632210520FEF719
:102CB0000DFAFB7A1A4638210520FEF707FABB7A8F
:102CC0001A463E210520FEF701FA7B7A1A46442176
:102CD0000520FEF7FBF93B7A1A464A210520FEF74C
:102CE000F5F9FB791A4650210520FEF7EFF9084A5D
:102CF00059210520FEF7EAF800BF1037BD4680BD18
:102D000048150020401500201F85EB51CDCCCCCCC0
:102D10009C750008F814002083DE1B4340420F001E
:102D2000C55A7C0AA08601005917B7D1D34D62104D
:102D300080B500AF474B1B78002B19D0464B1B6862
:102D40004FF4B47202FB03F3DB08444AA2FB0323F3
:102D50005B08DAB2424B1A703F4B1B689AB2414B88
:102D60001B8813449AB23F4B1A803A4B00221A70C8
:102D70003C4B1B88B3F5DC7F69D33A4B00221A80A9
:102D8000394B1B680133384A1360374B1B68374A8D
:102D900012781146364A525C11461846FFF706FA79
:102DA000324B1B781A46324B9B5C1846FFF714FADD
:102DB00003461A462C4B5A602C4B1B7819462A4B5B
:102DC0005B682C4A42F82130274B1A68264B5B6817
:102DD0009A4206D1254B1B780133DAB2234B1A7085
:102DE0001DE0224B1B780133DAB2204B1A701F4BC7
:102DF0001B78092B02D91D4B00221A701A4B1B6835
:102E00001A4A127811461A4A525C11461846FFF7C0
:102E1000CDF9164B1B780133DAB2144B1A70134BF1
:102E20001B78092B13D9114B00221A700E4B1A680C
:102E3000114B1B689A420AD30F4B1B685A1C0A4B52
:102E40001B689A4203D30C4B1B68074A136000BFF0
:102E500080BD00BF6C1400206414002095204F0931
:102E60004815002046150020F81400200715002002
:102E7000A407002074140020E014002080B584B062
:102E800000AF01F0CFF800F0B9F900F0E5FA00F07A
:102E9000FDF900F095FA00F04BFA00F077FA73486C
:102EA00002F092FA724801F007FB0221704801F02B
:102EB00037FD704803F07EFFFDF7E0FD6E4B5B6A67
:102EC00003F00053002B06D06B4B5B6A6A4A43F059
:102ED000807353622DE0FEF7C9F94FF4FA7001F0E8
:102EE00003F97F2200210020FEF7CAF87F2200218B
:102EF0000120FEF7C5F87F2200210220FEF7C0F86E
:102F00007F2200210320FEF7BBF87F22002104204E
:102F1000FEF7B6F87F2200210520FEF7B1F87F22E8
:102F200000210620FEF7ACF87F2200210720FEF7E3
:102F3000A7F8C020FFF750F903461A464F4B9A6096
:102F40004E4B9B6843F23902934219D0C02143F2A1
:102F50003900FFF72BF9D0210020FFF727F90023D4
:102F6000FB7309E0FB7B464AD35C19460020FFF760
:102F70001DF9FB7B0133FB73FB7B092BF2D9B1E01D
:102F8000D020FFF729F903461A463E4B1A6000236A
:102F9000BB7315E0BB7B3A4AD35C1846FFF71CF9BC
:102FA0000246BB7B1146384A42F82310BA7B3649A9
:102FB00051F82330354941F82230BB7B0133BB73D4
:102FC000BB7B092BE6D901237B7311E07B7B2E4A67
:102FD00052F823202E4B1B7819462B4B53F82130E7
:102FE0009A4202D22A4A7B7B13707B7B01337B732C
:102FF0007B7B092BEAD900237B6000233B732DE008
:103000000023FB7221E0FB7A1F4A52F82320FB7A4F
:1030100001331D4951F823309A4213D9FB7A1A4AD9
:1030200052F823307B60FB7A5A1CFB7A164951F820
:103030002220154941F82320FB7A013312497A688E
:1030400041F82320FB7A0133FB72FA7A3B7BC3F110
:1030500009039A42D7DB3B7B01333B733B7B092B54
:10306000CED90023BB7200237B7231E08010002098
:1030700058100020E010002000100240F81400203A
:10308000A4070020E0140020741400209C140020E9
:10309000071500207B7A534A52F82320524B1B68B5
:1030A0009A4212D3504B1B6803F57A727B7A4D49D2
:1030B00051F823309A4208D37B7A4A4A52F8233097
:1030C0004A4A1360BB7A0133BB727B7A01337B724D
:1030D0007B7A092BDED9BB7A002B03D1424B1B68CC
:1030E000424A1360424B03221A7000F04FF9414BE1
:1030F0001B78002B58D03F4B00221A707F220021F2
:103100000020FDF7BDFF7F2200210120FDF7B8FF61
:103110007F2200210220FDF7B3FF7F220021032040
:10312000FDF7AEFF7F2200210420FDF7A9FF7F22DB
:1031300000210520FDF7A4FF7F2200210620FDF7D6
:103140009FFF7F2200210720FDF79AFFFFF7BCFBBE
:10315000274B1B78002B07D0FFF7CEF8244B1B78AA
:10316000013BDAB2224B1A70FFF70EFBFFF738F97A
:10317000FFF746FAFEF7F6F8FFF72AFCFFF7D8FD4F
:10318000FFF7D2FCFFF780F8A220FDF7F7FBA020A5
:10319000FDF7F4FBC020FDF7F1FB4020FDF7EEFB4F
:1031A000FDF7C6FCFDF718FC104B1A680E4B1B68A8
:1031B00003F57A739A4211D30C4B1A680A4B1B68B9
:1031C00003F2F2339A4209D8084B1B68064A13608F
:1031D000054B1B68D0211846FEF7E8FF064803F0B0
:1031E0008EF984E774140020E0140020F814002005
:1031F0009C070020A0070020D410002080B590B0CC
:1032000000AF07F1180328220021184604F080F9C6
:103210003B1D00221A605A609A60DA601A61092325
:10322000BB614FF48033FB6100233B620123BB622F
:1032300001233B6302237B634FF48033BB634FF472
:10324000E013FB6307F11803184603F067F9034620
:10325000002B01D000F068FD0F237B600223BB60D0
:103260000023FB604FF480633B6100237B613B1DC7
:103270000221184603F0D4FB0346002B01D000F0D6
:1032800053FD00BF4037BD4680BD000080B58AB009
:1032900000AF254B254A1A60234B08225A60224B67
:1032A00000229A60204B0022DA601F4B4FF460220C
:1032B0001A611D4B4FF480125A611B4B00221A7683
:1032C000194B00225A76184B00229A76164B002290
:1032D000DA76154B00221A77134B00225A771248E0
:1032E00000F026FF0346002B01D000F01DFD012356
:1032F0003B6201237B6100233B6100233B60002391
:103300007B600023BB600023FB600023BB610123C3
:10331000FB6100237B623B461946034801F003F83A
:1033200000BF2837BD4680BD581000200064004013
:1033300080B500AF124B134A1A60114B124A5A6003
:103340000F4B00229A600E4B0022DA600C4B4FF4B8
:1033500080421A610A4B00225A61094B00229A618D
:10336000074B0022DA61064B00221A62044802F081
:103370002BF80346002B01D000F0D6FC00BF80BD27
:103380008010002000540040801A060080B500AF75
:10339000094B0A4A1A60084B05225A60064B4FF443
:1033A000C3629A60044803F068F80346002B01D01A
:1033B00000F0BAFC00BF80BDD410002000300040F7
:1033C00080B586B000AF07F1080300221A605A608A
:1033D0009A60DA603B4600221A605A601D4B4FF03B
:1033E00080421A601B4B63225A601A4B00229A607B
:1033F000184B4722DA60174B00221A61154B002246
:103400009A61144803F086FC0346002B01D000F0BB
:103410008BFC4FF48053BB6007F1080319460D483D
:1034200003F022FE0346002B01D000F07DFC0023B8
:103430003B6000237B603B461946064803F0F8FFDB
:103440000346002B01D000F06FFC00BF1837BD46CB
:1034500080BD00BFE010002080B588B000AF07F14C
:10346000100300221A605A609A60DA60494B9B6927
:10347000484A43F010039361464B9B6903F01003E5
:10348000FB60FB68434B9B69424A43F02003936116
:10349000404B9B6903F02003BB60BB683D4B9B69BD
:1034A0003C4A43F0040393613A4B9B6903F00403E5
:1034B0007B607B68374B9B69364A43F00803936116
:1034C000344B9B6903F008033B603B68002240F2E9
:1034D000FF11314801F02FFF002240F607412F482D
:1034E00001F029FF4FF400533B612D4B7B61012319
:1034F000BB6107F1100319462A4801F081FD40F233
:10350000FF133B6101237B610023BB610223FB614D
:1035100007F110031946204801F072FD40F60743F9
:103520003B6101237B610023BB610223FB6107F147
:1035300010031946194801F063FD08233B611A4B3B
:103540007B610123BB6107F110031946134801F0A9
:1035500057FD10233B6100237B610123BB6107F111
:10356000100319460D4801F04BFD002200210920EF
:1035700001F00BFD092001F024FD0022002128208C
:1035800001F003FD282001F01CFD00BF2037BD46DF
:1035900080BD00BF0010024000080140000C014047
:1035A00000002110001001400000111080B584B00F
:1035B00000AF78607B681B68B3F1804F40F07F817B
:1035C000794B1B889BB201339AB2774B1A80774BA9
:1035D0001B780133DAB2754B1A70754B1B880133B7
:1035E0009AB2734B1A80704B1B889BB20A2B0ED178
:1035F000704B1B8801339AB26E4B1A806E4B1B883E
:1036000001339AB26C4B1A80674B00221A80694BC7
:103610001A886A4B1B889A4209D1664B1B8803F5AE
:103620007A739AB2654B1A80654B01221A70614B0E
:103630001A88644B1B889A420FD15E4B1B8803F596
:10364000FA739AB25F4B1A805F4B1B78012B04D13F
:103650004FF480715D4801F086FE564B1A885C4B32
:103660001B889A420ED1534B1B8864339AB2584B35
:103670001A80584B1B78012B04D14FF480715348AA
:1036800001F071FE4B4B1A88534B1B889A4232D182
:10369000524B1B88052B15D9504B00221A80454BE5
:1036A0001B8803F57A739AB24B4B1A804C4B1B78EC
:1036B0001A464C4B1A604C4B01221A704B4B00229D
:1036C0001A6018E0454B00221A803A4B1B8803F51C
:1036D0007A739AB2404B1A80444B1B68414A13607C
:1036E000404B1B68DAB23E4B1A703F4B01221A70F6
:1036F0003E4B00221A602F4B1A883D4B1B889A4282
:103700002AD13C4B1B78042B0FD82A4B1B889633AD
:103710009AB2374B1A80384B1B78012B05D1354BA9
:103720001B780133DAB2334B1A70334B1B78012B01
:1037300012D14FF48071254801F015FE2D4B1B78F6
:10374000042B09D91B4B1B88A3F5AD539AB2284B08
:103750001A80284B00221A70284B1B78012B40F04E
:10376000AE80124B1B781D2B40F2A9800821244803
:1037700001F0CAFD0346002B4AD0224B1B8899B2A8
:103780000A46214B33F812309AB2204B93F900309D
:103790001846012383409BB2DB439BB213409AB28D
:1037A000194B23F8112047E02C110020E4140020CD
:1037B000E614002052140020501500209E0700201F
:1037C000A00700204C1500203E15002000080140F5
:1037D0004E150020C61400204A1500205615002062
:1037E00054150020641400206C140020681400207C
:1037F000DC0700204915002043150020D8140020C4
:10380000000C01402A11002030110020DE070020AA
:103810002D4B1B8899B20A462C4B33F812309AB2C2
:103820002B4B93F900301846012383409BB213437E
:103830009AB2264B23F81120264B00221A70244BF3
:1038400093F90030DBB2013BDBB25AB2204B1A7065
:103850001F4B93F90030002B09DA1B4B1B889BB2DE
:1038600001339AB2184B1A80194B07221A70164B63
:103870001B889BB20B2B1FD9134B00221A80164BAF
:1038800001221A70154B00221A80154B00221A8053
:103890000023FB730BE0FB7B0C4A32F813309AB227
:1038A000FB7BD1B20F4AD154FB7B0133FB73FB7B13
:1038B0000B2BF0D900F0ACF80B4B00221A7000BFB4
:1038C0001037BD4680BD00BF2A11002030110020F6
:1038D000DE070020D814002028110020D614002074
:1038E000E6140020C8140020E414002080B584B041
:1038F00000AF0346FB80FB88B3F5005F41D14FF476
:103900000051384801F000FD0346FB73FB7B012B9F
:1039100004D100F0DFFB0346334A1360FB7B002B2E
:1039200004D100F0D7FB0346304A13602F4B1A68CE
:103930002D4B1B689A420AD22B4B1B689AB22B4B19
:103940001B689BB2D31A9AB2294B1A8009E0274B05
:103950001B689AB2244B1B689BB2D31A9AB2244BB1
:103960001A80234B1B88072B05D9224B1B68013378
:10397000204A136005E0204B1B8801339AB21E4B8E
:103980001A80FB88082B29D11C4B1B88002B18D1CF
:103990001B4B1B88002B14D0194B1A88194B1A800B
:1039A000174B00221A80174B1B88B3F5FA7F08D3F8
:1039B000124B01221A80134B00221A80104B002256
:1039C0001A800E4B1B88012B05D10F4B01221A7058
:1039D0000E4B00221A700A4B00221A8000BF1037CB
:1039E000BD4680BD001001405C1500205815002028
:1039F000601500206814002056150020D614002001
:103A0000E614002052150020D8140020E4140020F1
:103A100080B483B000AF0023FB7100233B6009E05A
:103A20000A4A3B6813441A78FB795340FB713B68A0
:103A300001333B603B680A2BF2DD044BDB7AFA79F9
:103A40009A4207D1024B01221A700CE0C8140020E0
:103A500050140020AF4B1B780133DAB2AD4B1A7013
:103A6000AD4B00221A70AC4B1B78DBB2012B40F03F
:103A70004B81AA4B1A78AA4B1A70A84B5A78A84BBC
:103A80005A70A64B9B781B09DBB203F00F03D9B227
:103A9000A34A937861F303039370A04B9B78DB10E8
:103AA00003F00103D9B29E4A937861F30413937033
:103AB0009A4B9B789B1003F00103D9B2984A9378F4
:103AC00061F345139370964A93786FF3861393705E
:103AD000924B9B7803F00103D9B2914A937861F33A
:103AE000C71393708D4BDB78DB09DBB203F0010366
:103AF000D9B28B4AD37861F30003D370874BDB785C
:103B00009B1103F00103D9B2854AD37861F34103D5
:103B1000D370824BDB785B1103F00103D9B2804A8A
:103B2000D37861F38203D3707C4BDB781B1103F0F5
:103B30000103D9B27A4AD37861F3C303D370774BC8
:103B4000DB78DB1003F00103D9B2754AD37861F357
:103B50000413D370714BDB789B1003F00103D9B2CF
:103B60006F4AD37861F34513D3706C4BDB785B10ED
:103B700003F00103D9B26A4AD37861F38613D37094
:103B8000664BDB7803F00103D9B2654AD37861F361
:103B9000C713D370614B1B79DB09DBB203F0010360
:103BA000D9B25F4A137961F3000313715B4B1B7940
:103BB0009B1103F00103D9B2594A137961F3410310
:103BC0001371564B1B795B1103F00103D9B2544AB0
:103BD000137961F382031371504B1B791B1103F0AE
:103BE0000103D9B24E4A137961F3C30313714B4BEE
:103BF0001B79DB1003F00103D9B2494A137961F351
:103C000004131371454B1B7903F00303D9B2444AE3
:103C1000137961F387131371404B5B79DB09DBB2D6
:103C200003F00103D9B23E4A537961F300035371A3
:103C30003A4B5B799B1103F00103D9B2384A5379AF
:103C400061F341035371354B5B795B1103F0010361
:103C5000D9B2334A537961F3820353712F4B5B79A5
:103C60001B1103F00103D9B22D4A537961F3C30349
:103C700053712A4B5B79DB1003F00103D9B2284A58
:103C8000537961F304135371244B5B799B1003F058
:103C90000103D9B2224A537961F3451353711F4B83
:103CA0005B795B1003F00103D9B21D4A537961F3CC
:103CB00086135371194B5B7903F00103D9B2184A8B
:103CC000537961F3C7135371144B9A79144B9A715A
:103CD000124BDB791B021AB2124B1B8A9BB21BB22E
:103CE00013431BB29AB20E4B5A810C4B5A7A0C4BAF
:103CF000DA710A4B9A7A0A4B1A72084BDA7A084B35
:103D00001A73054B00221A7000BF0C37BD4680BCE9
:103D1000704700BFD414002050140020C8140020A5
:103D2000E81400203011002080B500AF72B600BF4B
:103D300001F055F9FCE7000080B485B000AF154BE9
:103D40009B69144A43F001039361124B9B6903F092
:103D50000103BB60BB680F4BDB690E4A43F0805325
:103D6000D3610C4BDB6903F080537B607B680A4BAB
:103D70005B68FB60FB6823F0E063FB60FB6843F07B
:103D80000073FB60044AFB68536000BF1437BD46F4
:103D900080BC7047001002400000014080B588B030
:103DA00000AF786007F1100300221A605A609A6031
:103DB000DA607B681B68204A934239D11F4BDB696C
:103DC0001E4A43F00073D3611C4BDB6903F00073A0
:103DD000FB60FB68194B9B69184A43F0040393612D
:103DE000164B9B6903F00403BB60BB684FF4006390
:103DF0003B6100237B610023BB6107F1100319467F
:103E00000F4801F0FDF84FF480533B6102237B61C2
:103E10000323FB6107F110031946094801F0F0F88C
:103E200000220021142001F0B0F8142001F0C9F89C
:103E300000BF2037BD4680BD006400400010024036
:103E40000008014080B58AB000AF786007F1140324
:103E500000221A605A609A60DA607B681B681D4A0B
:103E6000934232D11C4B9B691B4A43F00803936178
:103E7000194B9B6903F008033B613B694FF44073A6
:103E80007B611223BB6103233B6207F114031946D4
:103E9000124801F0B5F8124B5B687B627B6A43F015
:103EA000E0637B627B6A43F002037B620C4A7B6ABD
:103EB0005360094BDB69084A43F40013D361064B96
:103EC000DB6903F40013FB60FB6800BF2837BD46C5
:103ED00080BD00BF0054004000100240000C0140B3
:103EE0000000014080B584B000AF78607B681B683B
:103EF000B3F1804F13D10C4BDB690B4A43F0010344
:103F0000D361094BDB6903F00103FB60FB6800220E
:103F100000211C2001F039F81C2001F052F800BFEC
:103F20001037BD4680BD00BF0010024080B400AF16
:103F300000BFFDE780B400AF00BFFDE780B400AF75
:103F400000BFFDE780B400AF00BFFDE780B400AF65
:103F500000BFFDE780B400AF00BFBD4680BC704726
:103F600080B400AF00BFBD4680BC704780B400AFD6
:103F700000BFBD4680BC704780B500AF00F098F828
:103F800000BF80BD80B500AF082001F005FA00BF7A
:103F900080BD000080B500AF024800F0E6FC00BF25
:103FA00080BD00BF5810002080B500AF024802F06D
:103FB00053FF00BF80BD00BFE010002080B500AF00
:103FC0004FF4005001F0E8F900BF80BD80B400AFAD
:103FD00000BFBD4680BC7047FFF7F8FF0B480C4997
:103FE0000C4A002302E0D458C4500433C4188C4255
:103FF000F9D3094A094C002301E013600432A242BC
:10400000FBD303F08DFAFEF739FF70470000002064
:10401000EC07002090930008EC07002068150020B2
:10402000FEE7000080B500AF084B1B68074A43F06D
:1040300010031360032000F09DFF0F2000F008F82C
:10404000FFF77AFE0023184680BD00BF0020024023
:1040500080B582B000AF7860124B1A68124B1B78A3
:1040600019464FF47A73B3FBF1F3B2FBF3F318463E
:1040700000F0B9FF0346002B01D001230EE07B685E
:104080000F2B0AD8002279684FF0FF3000F07DFF37
:10409000064A7B681360002300E0012318460837B6
:1040A000BD4680BDE0070020E8070020E4070020AF
:1040B00080B400AF054B1B781A46054B1B681344B0
:1040C000034A136000BFBD4680BC7047E80700206C
:1040D0006415002080B400AF024B1B681846BD4633
:1040E00080BC70476415002080B584B000AF786054
:1040F000FFF7F0FFB8607B68FB60FB68B3F1FF3F40
:1041000005D00A4B1B781A46FB681344FB6000BFBE
:10411000FFF7E0FF0246BB68D31AFA689A42F7D865
:1041200000BF00BF1037BD4680BD00BFE8070020BC
:1041300080B584B000AF78607B68002B01D101238B
:10414000EDE07B6893F82030DBB2002B02D1786879
:10415000FFF724FE7B681B681A687B681B6842F0C7
:1041600001021A60FFF7B6FFF86012E0FFF7B2FF36
:104170000246FB68D31A0A2B0BD97B685B6A43F4AF
:1041800000327B685A627B68052283F82020012375
:10419000C5E07B681B685B6803F00103002BE5D07A
:1041A0007B681B681A687B681B6822F002021A6031
:1041B000FFF790FFF86012E0FFF78CFF0246FB6804
:1041C000D31A0A2B0BD97B685B6A43F400327B68F5
:1041D0005A627B68052283F8202001239FE07B68D8
:1041E0001B685B6803F00203002BE5D17B681B7E34
:1041F000012B08D17B681B681A687B681B6842F03A
:1042000080021A6007E07B681B681A687B681B687D
:1042100022F080021A607B685B7E012B08D17B68EC
:104220001B681A687B681B6842F040021A6007E04E
:104230007B681B681A687B681B6822F040021A6062
:104240007B689B7E012B08D17B681B681A687B68A2
:104250001B6842F020021A6007E07B681B681A683E
:104260007B681B6822F020021A607B68DB7E012BD2
:1042700008D17B681B681A687B681B6822F01002F3
:104280001A6007E07B681B681A687B681B6842F04D
:1042900010021A607B681B7F012B08D17B681B68AA
:1042A0001A687B681B6842F008021A6007E07B68A6
:1042B0001B681A687B681B6822F008021A607B681A
:1042C0005B7F012B08D17B681B681A687B681B68C1
:1042D00042F004021A6007E07B681B681A687B687A
:1042E0001B6822F004021A607B689A687B68DB68AE
:1042F0001A437B681B691A437B685B6942EA0301C6
:104300007B685B685A1E7B681B680A43DA617B68BE
:1043100000225A627B68012283F82020002318467D
:104320001037BD4680BD80B487B000AF786039607B
:104330007B681B687B617B6893F82030FB74FB7C97
:10434000012B03D0FB7C022B40F0AA807B69D3F8C1
:10435000003243F001027B69C3F800223B685B69CD
:1043600003F01F03012202FA03F3FB607B69D3F819
:104370001C22FB68DB431A407B69C3F81C223B68A4
:10438000DB69002B23D17B69D3F80C22FB68DB436C
:104390001A407B69C3F80C223B68DB6819043B6850
:1043A0005B689BB23A68526919437B69483243F8AB
:1043B00032103B689B6819043B681B689AB23B68E3
:1043C0005B690A4379694833DB000B445A603B68F8
:1043D000DB69012B22D17B69D3F80C22FB681A43DD
:1043E0007B69C3F80C223B681B6819043B685B6857
:1043F0009BB23A68526919437B69483243F83210DC
:104400003B689B6819043B68DB689AB23B685B6950
:104410000A4379694833DB000B445A603B689B6967
:10442000002B09D17B69D3F80422FB68DB431A40D7
:104430007B69C3F8042207E07B69D3F80422FB6898
:104440001A437B69C3F804223B681B69002B09D11E
:104450007B69D3F81422FB68DB431A407B69C3F8FD
:10446000142207E07B69D3F81422FB681A437B69A6
:10447000C3F814223B681B6A012B07D17B69D3F870
:104480001C22FB681A437B69C3F81C227B69D3F8A2
:10449000003223F001027B69C3F80022002306E00A
:1044A0007B685B6A43F480227B685A62012318466A
:1044B0001C37BD4680BC704780B584B000AF7860C3
:1044C0007B6893F82030DBB2012B2ED17B6802226F
:1044D00083F820207B681B681A687B681B6822F0C1
:1044E00001021A60FFF7F6FDF86012E0FFF7F2FD37
:1044F0000246FB68D31A0A2B0BD97B685B6A43F42C
:1045000000327B685A627B68052283F820200123F1
:1045100012E07B681B685B6803F00103002BE5D1A8
:104520007B6800225A62002306E07B685B6A43F4E2
:1045300000227B685A62012318461037BD4680BDB1
:1045400080B489B000AFF860B9607A603B60FB6806
:1045500093F82030FB77FB681B689B68BB61FB7F8F
:10456000012B03D0FB7F022B40F0AD80BB6903F031
:104570008063002B0AD1BB6903F00063002B05D1D7
:10458000BB6903F08053002B00F09580BB691B0EC4
:1045900003F003037B6101227B699A403B681A6048
:1045A000BB689B68002B0DD1BB681B685A05BB68B4
:1045B000DB68F96809681A437B6918331B010B44EF
:1045C0001A600FE0BB685B68DA00BB689B681A433F
:1045D000BB68DB68F96809681A437B6918331B01FB
:1045E0000B441A60FB681968BB681A697B69183349
:1045F0001B010B4404331A60BB681B7D012B11D1D6
:10460000FB681A687B6918331B01134404331B6869
:10461000FA68116843F480727B6918331B010B44FC
:1046200004331A607B6807331B781A067B680633ED
:104630001B781B041A437B6805331B781B0213434A
:104640007A68043212781046FA68116843EA000268
:104650007B691B010B4403F5C6731A607B68033347
:104660001B781A067B6802331B781B041A437B688D
:1046700001331B781B0213437A6812781046FA68DC
:10468000116843EA00027B691B010B4403F5C47304
:104690001A60FB681A687B6918331B0113441B6896
:1046A000FA68116843F001027B6918331B010B445F
:1046B0001A6000230EE0FB685B6A43F40012FB689B
:1046C0005A62012306E0FB685B6A43F48022FB68C0
:1046D0005A62012318462437BD4680BC704780B417
:1046E00087B000AFF860B9607A603B60FB6893F810
:1046F0002030FB75FB7D012B03D0FB7D022B40F0AE
:104700000381BB68002B0ED1FB681B68DB6803F0DC
:104710000303002B16D1FB685B6A43F40012FB68AD
:104720005A620123F7E0FB681B681B6903F003036F
:10473000002B07D1FB685B6A43F40012FB685A62E6
:104740000123E8E0FB681A68BB681B331B011344B4
:104750001B6803F004027B689A607B689B68002BEF
:104760000CD1FB681A68BB681B331B0113441B6820
:104770005B0DC3F30A027B681A600BE0FB681A68E2
:10478000BB681B331B0113441B68DB0823F060422A
:104790007B685A60FB681A68BB681B331B011344B3
:1047A0001B6803F002027B68DA60FB681A68BB686A
:1047B0001B331B01134404331B6803F00803002B55
:1047C00003D07B6808221A610BE0FB681A68BB689B
:1047D0001B331B01134404331B6803F00F027B6877
:1047E0001A61FB681A68BB681B331B01134404334E
:1047F0001B681B0ADAB27B689A61FB681A68BB689F
:104800001B331B01134404331B681B0C9AB27B68D7
:104810005A61FB681A68BB681B01134403F5DC731B
:104820001B68DAB23B681A70FB681A68BB681B0128
:10483000134403F5DC731B681A0A3B680133D2B2D8
:104840001A70FB681A68BB681B01134403F5DC731C
:104850001B681A0C3B680233D2B21A70FB681A68E4
:10486000BB681B01134403F5DC731B681A0E3B681D
:104870000333D2B21A70FB681A68BB681B01134479
:1048800003F5DE731A683B680433D2B21A70FB6812
:104890001A68BB681B01134403F5DE731B681A0A10
:1048A0003B680533D2B21A70FB681A68BB681B01FB
:1048B000134403F5DE731B681A0C3B680633D2B24F
:1048C0001A70FB681A68BB681B01134403F5DE739A
:1048D0001B681A0E3B680733D2B21A70BB68002BF4
:1048E00008D1FB681B68DA68FB681B6842F020028D
:1048F000DA6007E0FB681B681A69FB681B6842F016
:1049000020021A61002306E0FB685B6A43F4802200
:10491000FB685A62012318461C37BD4680BC7047AD
:1049200080B485B000AF786039607B6893F8203040
:10493000FB73FB7B012B02D0FB7B022B09D17B6835
:104940001B6859697B681B683A680A435A610023EF
:1049500006E07B685B6A43F480227B685A6201232D
:1049600018461437BD4680BC704780B58AB000AF8A
:10497000786000237B627B681B685B693B627B68B5
:104980001B685B68FB617B681B689B68BB617B681D
:104990001B68DB687B617B681B681B693B617B680C
:1049A0001B689B69FB603B6A03F00103002B7CD012
:1049B000BB6903F00103002B23D07B681B68012235
:1049C0009A60BB6903F00203002B03D0786800F003
:1049D00083F916E0BB6903F00403002B04D07B6A63
:1049E00043F400637B620CE0BB6903F00803002B17
:1049F00004D07B6A43F480537B6202E0786800F065
:104A000086F9BB6903F48073002B24D07B681B6894
:104A10004FF480729A60BB6903F40073002B03D0DB
:104A2000786800F062F916E0BB6903F48063002B3C
:104A300004D07B6A43F400537B620CE0BB6903F44F
:104A40000063002B04D07B6A43F480437B6202E066
:104A5000786800F065F9BB6903F48033002B24D03B
:104A60007B681B684FF480329A60BB6903F40033A3
:104A7000002B03D0786800F041F916E0BB6903F41D
:104A80008023002B04D07B6A43F400437B620CE05C
:104A9000BB6903F40023002B04D07B6A43F480330A
:104AA0007B6202E0786800F044F93B6A03F0080397
:104AB000002B0CD07B6903F01003002B07D07B6A1E
:104AC00043F400737B627B681B681022DA603B6AE8
:104AD00003F00403002B0BD07B6903F00803002BC9
:104AE00006D07B681B680822DA60786800F02AF933
:104AF0003B6A03F00203002B09D07B681B68DB686C
:104B000003F00303002B02D07868FDF7DDFF3B6A5A
:104B100003F04003002B0CD03B6903F01003002B83
:104B200007D07B6A43F480637B627B681B6810223A
:104B30001A613B6A03F02003002B0BD03B6903F0A2
:104B40000803002B06D07B681B6808221A6178686E
:104B500000F00AF93B6A03F01003002B09D07B68D0
:104B60001B681B6903F00303002B02D0786800F078
:104B7000F2F83B6A03F40033002B0BD0FB6903F01F
:104B80001003002B06D07B681B6810225A607868DF
:104B900000F0F3F83B6A03F48033002B0BD0FB6981
:104BA00003F00803002B06D07B681B6808225A60BC
:104BB000786800F0EBF83B6A03F40043002B7BD0ED
:104BC000FB6903F00403002B72D03B6A03F480738B
:104BD000002B08D0FB6803F00103002B03D07B6A95
:104BE00043F001037B623B6A03F40073002B08D09F
:104BF000FB6803F00203002B03D07B6A43F002033F
:104C00007B623B6A03F48063002B08D0FB6803F0EF
:104C10000403002B03D07B6A43F004037B623B6AEE
:104C200003F40063002B43D0FB6803F07003002BF8
:104C30003ED0FB6803F07003602B2BD0602B2ED886
:104C4000502B22D0502B2AD8402B19D0402B26D8BD
:104C5000302B10D0302B22D8102B02D0202B05D097
:104C60001DE07B6A43F008037B6219E07B6A43F036
:104C700010037B6214E07B6A43F020037B620FE049
:104C80007B6A43F040037B620AE07B6A43F0800367
:104C90007B6205E07B6A43F480737B6200E000BFC7
:104CA0007B681B689A697B681B6822F070029A61B6
:104CB0007B681B6804225A607B6A002B08D07B68E3
:104CC0005A6A7B6A1A437B685A62786800F067F810
:104CD00000BF2837BD4680BD80B483B000AF786088
:104CE00000BF0C37BD4680BC704780B483B000AFB6
:104CF000786000BF0C37BD4680BC704780B483B07D
:104D000000AF786000BF0C37BD4680BC704780B4F0
:104D100083B000AF786000BF0C37BD4680BC7047E1
:104D200080B483B000AF786000BF0C37BD4680BC54
:104D3000704780B483B000AF786000BF0C37BD46C9
:104D400080BC704780B483B000AF786000BF0C3780
:104D5000BD4680BC704780B483B000AF786000BFB0
:104D60000C37BD4680BC704780B483B000AF78601C
:104D700000BF0C37BD4680BC704780B483B000AF25
:104D8000786000BF0C37BD4680BC704780B483B0EC
:104D900000AF786000BF0C37BD4680BC704780B460
:104DA00083B000AF786000BF0C37BD4680BC704751
:104DB00080B485B000AF78607B6803F00703FB60C8
:104DC0000C4BDB68BB60BA684FF6FF031340BB6057
:104DD000FB681A02BB68134343F0BF6343F400331C
:104DE000BB60044ABB68D36000BF1437BD4680BCBB
:104DF000704700BF00ED00E080B400AF044BDB68FB
:104E00001B0A03F007031846BD4680BC704700BF6D
:104E100000ED00E080B483B000AF0346FB7197F96A
:104E20000730002B0BDBFB7903F01F02064997F9D3
:104E300007305B09012000FA02F241F8232000BF8D
:104E40000C37BD4680BC704700E100E080B483B001
:104E500000AF03463960FB7197F90730002B0ADB7E
:104E60003B68DAB20C4997F907301201D2B20B4411
:104E700083F800230AE03B68DAB20849FB7903F0C3
:104E80000F03043B1201D2B20B441A7600BF0C3759
:104E9000BD4680BC704700BF00E100E000ED00E0CF
:104EA00080B489B000AFF860B9607A60FB6803F045
:104EB0000703FB61FB69C3F10703042B28BF04232D
:104EC000BB61FB690433062B02D9FB69033B00E09D
:104ED00000237B614FF0FF32BB6902FA03F3DA4330
:104EE000BB681A407B699A404FF0FF317B6901FA39
:104EF00003F3D9437B680B40134318462437BD4660
:104F000080BC704780B400AFBFF34F8F00BF064B2B
:104F1000DB6803F4E0620449044B1343CB60BFF346
:104F20004F8F00BF00BFFDE700ED00E00400FA0571
:104F300080B582B000AF78607B68013BB3F1807FC1
:104F400001D301230FE00A4A7B68013B53600F2124
:104F50004FF0FF30FFF77AFF054B00229A60044BB9
:104F600007221A60002318460837BD4680BD00BFDF
:104F700010E000E080B582B000AF78607868FFF79D
:104F800017FF00BF0837BD4680BD80B586B000AFB3
:104F90000346B9607A60FB7300237B61FFF72CFF47
:104FA00078617A68B9687869FFF77AFF024697F9FD
:104FB0000F3011461846FFF749FF00BF1837BD46AE
:104FC00080BD80B582B000AF0346FB7197F9073012
:104FD0001846FFF71FFF00BF0837BD4680BD80B5EC
:104FE00000AFFFF78FFF80B582B000AF78607868C0
:104FF000FFF79EFF034618460837BD4680BD0000F8
:1050000080B48BB000AF7860396000237B620023EE
:105010003B6269E101227B6A02FA03F3FB613B68B0
:105020001B68FA691340BB61BA69FB699A4240F098
:1050300058813B685B689A4A93425ED0984A934293
:1050400075D8984A934258D0964A93426FD8964A58
:10505000934252D0944A934269D8944A93424CD096
:10506000924A934263D8924A934246D0904A9342DE
:105070005DD8122B2AD8122B59D801A252F823F04E
:10508000FB500008D5500008E750000829510008DF
:105090002F5100082F5100082F5100082F510008F0
:1050A0002F5100082F5100082F5100082F510008E0
:1050B0002F5100082F5100082F5100082F510008D0
:1050C0002F510008DD500008F1500008794A934242
:1050D00013D02CE03B68DB683B6229E03B68DB686F
:1050E00004333B6224E03B68DB6808333B621FE02B
:1050F0003B68DB680C333B621AE03B689B68002B23
:1051000002D104233B6213E03B689B68012B05D16D
:1051100008233B627B68FA691A6109E008233B6255
:105120007B68FA695A6103E000233B6200E000BF3C
:10513000BB69FF2B01D87B6801E07B6804337B618E
:10514000BB69FF2B02D87B6A9B0002E07B6A083BAD
:105150009B003B617B691A680F213B6901FA03F3ED
:10516000DB431A40396A3B6901FA03F31A437B694E
:105170001A603B685B6803F08053002B00F0B1803D
:105180004D4B9B694C4A43F0010393614A4B9B6929
:1051900003F00103BB60BB68484A7B6A9B0802338B
:1051A00052F82330FB607B6A03F003039B000F225D
:1051B00002FA03F3DB43FA681340FB607B68404A62
:1051C000934213D07B683F4A93420DD07B683E4A9E
:1051D000934207D07B683D4A934201D1032306E006
:1051E000042304E0022302E0012300E000237A6AA2
:1051F00002F0030292009340FA681343FB602F49C8
:105200007B6A9B080233FA6841F823203B685B689D
:1052100003F48013002B06D02D4B9A682C49BB69F0
:1052200013438B6006E02A4B9A68BB69DB4328492D
:1052300013408B603B685B6803F40013002B06D0BF
:10524000234BDA682249BB691343CB6006E0204B4D
:10525000DA68BB69DB431E491340CB603B685B687F
:1052600003F40033002B06D0194B5A681849BB6968
:1052700013434B6006E0164B5A68BB69DB43144985
:1052800013404B603B685B6803F48033002B21D0F4
:105290000F4B1A680E49BB6913430B6021E000BF36
:1052A0000000321000003110000022100000211018
:1052B0000000121000001110001002400000014018
:1052C00000080140000C01400010014000140140A2
:1052D000000401400B4B1A68BB69DB4309491340CA
:1052E0000B607B6A01337B623B681A687B6A22FA37
:1052F00003F3002B7FF48EAE00BF00BF2C37BD46FA
:1053000080BC70470004014080B485B000AF786075
:105310000B467B807B689A687B881340002B02D009
:105320000123FB7301E00023FB73FB7B184614375A
:10533000BD4680BC704780B483B000AF78600B4638
:105340007B8013467B707B78002B03D07A887B6848
:105350001A6103E07B881A047B681A6100BF0C376E
:10536000BD4680BC704780B485B000AF78600B4606
:105370007B807B68DB68FB607A88FB6813401A04DB
:10538000FB68D9437B880B401A437B681A6100BFD6
:105390001437BD4680BC704780B582B000AF03466D
:1053A000FB80084B5A69FB881340002B06D0054A46
:1053B000FB885361FB881846FEF798FA00BF083750
:1053C000BD4680BD0004014080B584B000AF786068
:1053D0007B68002B01D101232BE17B6893F83D30E2
:1053E000DBB2002B06D17B68002283F83C20786872
:1053F000FEF728FD7B68242283F83D207B681B682C
:105400001A687B681B6822F001021A607B681B68BF
:105410001A687B681B6842F400421A607B681B684C
:105420001A687B681B6822F400421A6001F040FC95
:10543000F8607B685B68814A934207D8FB68804AC2
:10544000934294BF01230023DBB206E0FB687D4A50
:10545000934294BF01230023DBB2002B01D0012330
:10546000E7E0FB68784AA2FB03239B0CBB607B68E8
:105470001B685B6823F03F017B681B68BA680A43BE
:105480005A607B681B681B6A23F03F017B685B687E
:105490006A4A934202D8BB68013309E0BB684FF403
:1054A000967202FB03F3694AA2FB03239B090133B3
:1054B0007A6812680B4313627B681B68DB6923F40C
:1054C0004F4222F0FF027B685B685C498B4219D82F
:1054D000FB68591E7B685B685B00B1FBF3F3591CEA
:1054E00040F6FC730B40002B0AD0FB68591E7B680A
:1054F0005B685B00B1FBF3F30133C3F30B0351E0D3
:1055000004234FE07B689B68002B11D1FB68581E79
:105510007B6859680B465B000B44B0FBF3F3013327
:10552000C3F30B03002B0CBF01230023DBB212E0FB
:10553000FB68581E7B6859680B469B000B4499001A
:105540000B44B0FBF3F30133C3F30B03002B0CBF8D
:1055500001230023DBB2002B01D0012322E07B6872
:105560009B68002B0ED1FB68581E7B6859680B4660
:105570005B000B44B0FBF3F30133C3F30B0343F4C1
:1055800000430FE0FB68581E7B6859680B469B0080
:105590000B4499000B44B0FBF3F30133C3F30B034B
:1055A00043F44043796809681343CB617B681B6807
:1055B0001B6823F0C0017B68DA697B681B6A1A43A9
:1055C0007B681B680A431A607B681B689B6823F42E
:1055D000034323F0FF037A6811697A68D2681143A4
:1055E0007A6812680B4393607B681B68DB6823F062
:1055F000FF017B685A697B689B691A437B681B685B
:105600000A43DA607B681B681A687B681B6842F093
:1056100001021A607B6800221A647B68202283F8EA
:105620003D207B6800221A637B68002283F83E20BD
:10563000002318461037BD4680BD00BFA08601007C
:105640007F841E00FF083D0083DE1B43D34D6210A4
:1056500080B588B002AFF860084611461A46034686
:105660007B810B463B811346FB80FEF733FD78615F
:10567000FB6893F83D30DBB2202B40F0D9807B698A
:105680000093192301226D49F86800F0C1FC03461C
:10569000002B01D00223CCE0FB6893F83C30012BB7
:1056A00001D10223C5E0FB68012283F83C20FB689E
:1056B0001B681B6803F00103012B07D0FB681B6804
:1056C0001A68FB681B6842F001021A60FB681B68DD
:1056D0001A68FB681B6822F400621A60FB682122CA
:1056E00083F83D20FB68402283F83E20FB680022BF
:1056F0001A64FB683A6A5A62FB68BA8C5A85FB687E
:105700005B8D9AB2FB681A85FB684D4ADA62F888AD
:105710003A8979897B690193BB6A00930346F868EB
:1057200000F0F8FA0346002B52D0012381E07A6999
:10573000B96AF86800F086FD0346002B0DD0FB68BF
:105740001B6C042B07D1FB681B681A68FB681B687D
:1057500042F400721A6001236BE0FB685B6A1A78FE
:10576000FB681B681A61FB685B6A5A1CFB685A621B
:10577000FB681B8D013B9AB2FB681A85FB685B8D49
:105780009BB2013B9AB2FB685A85FB681B685B6958
:1057900003F00403042B1BD1FB681B8D002B17D0D7
:1057A000FB685B6A1A78FB681B681A61FB685B6AB6
:1057B0005A1CFB685A62FB681B8D013B9AB2FB685E
:1057C0001A85FB685B8D9BB2013B9AB2FB685A85D8
:1057D000FB681B8D002BAAD17A69B96AF86800F0C2
:1057E00079FD0346002B0DD0FB681B6C042B07D101
:1057F000FB681B681A68FB681B6842F400721A6039
:10580000012316E0FB681B681A68FB681B6842F4FA
:1058100000721A60FB68202283F83D20FB6800229A
:1058200083F83E20FB68002283F83C20002300E040
:10583000022318461837BD4680BD00BF0200100085
:105840000000FFFF80B58CB002AFF860084611463B
:105850001A4603467B810B463B811346FB8000239F
:105860003B62FEF737FC7862FB6893F83D30DBB2B1
:10587000202B40F044827B6A009319230122824945
:10588000F86800F0C5FB0346002B01D0022337E285
:10589000FB6893F83C30012B01D1022330E2FB6816
:1058A000012283F83C20FB681B681B6803F001039E
:1058B000012B07D0FB681B681A68FB681B6842F065
:1058C00001021A60FB681B681A68FB681B6822F4F7
:1058D00000621A60FB68222283F83D20FB684022A8
:1058E00083F83E20FB6800221A64FB683A6B5A6218
:1058F000FB68BA8E5A85FB685B8D9AB2FB681A8585
:10590000FB68624ADA62F8883A8979897B6A01938E
:10591000BB6B00930346F86800F092FA0346002B35
:1059200001D00123ECE1FB681B8D002B13D1002378
:10593000FB61FB681B685B69FB61FB681B689B691B
:10594000FB61FB69FB681B681A68FB681B6842F413
:1059500000721A60C0E1FB681B8D012B1ED1FB6831
:105960001B681A68FB681B6822F480621A6072B6B2
:1059700000BF0023BB61FB681B685B69BB61FB6800
:105980001B689B69BB61BB69FB681B681A68FB6885
:105990001B6842F400721A6062B635E0FB681B8D2A
:1059A000022B1ED1FB681B681A68FB681B6842F457
:1059B00000621A6072B600BF00237B61FB681B683F
:1059C0005B697B61FB681B689B697B617B69FB682A
:1059D0001B681A68FB681B6822F480621A6062B652
:1059E00012E0FB681B681A68FB681B6842F480625F
:1059F0001A6000233B61FB681B685B693B61FB68C5
:105A00001B689B693B613B6966E1FB681B8D032B4F
:105A100000F21F81FB681B8D012B23D17A6AB96BC1
:105A2000F86800F09FFC0346002B01D0012367E1DA
:105A3000FB681B681A69FB685B6AD2B21A70FB6864
:105A40005B6A5A1CFB685A62FB681B8D013B9AB269
:105A5000FB681A85FB685B8D9BB2013B9AB2FB68C1
:105A60005A8539E1FB681B8D022B52D17B6A00936A
:105A7000BB6B00220649F86800F0CAFA0346002B07
:105A800008D001233CE100BF020010000000FFFF2E
:105A90000400010072B600BFFB681B681A68FB684F
:105AA0001B6842F400721A60FB681B681A69FB6885
:105AB0005B6AD2B21A70FB685B6A5A1CFB685A6256
:105AC000FB681B8D013B9AB2FB681A85FB685B8DF6
:105AD0009BB2013B9AB2FB685A8562B600BFFB6875
