:020000040800F2
:10000000005000203D1F0008A91E0008AF1E000878
:10001000B51E0008BB1E0008C11E0008000000003D
:10002000000000000000000000000000C71E0008E3
:10003000D31E000800000000DF1E0008EB1E0008B1
:10004000851F0008851F0008851F0008851F000800
:10005000851F0008851F0008851F0008851F0008F0
:10006000851F0008851F0008851F0008851F0008E0
:10007000851F0008851F0008851F0008851F0008D0
:10008000851F0008851F0008851F0008851F0008C0
:10009000F91E0008851F0008851F0008851F00083D
:1000A000851F0008851F0008851F0008851F0008A0
:1000B0000D1F0008851F0008851F0008851F000808
:1000C000851F0008851F0008851F0008851F000880
:1000D000851F0008851F0008851F0008851F000870
:1000E000211F0008851F0008851F00080000000070
:1000F0000000000000000000000000000000000000
:0C01000000000000000000005FF808F1A3
:10010C0010B5054C237833B9044B13B10448AFF345
:10011C0000800123237010BD40040020000000006B
:10012C00E84F000808B5034B1BB103490348AFF374
:10013C00008008BD0000000044040020E84F0008C7
:10014C0080B582B000AF0346FB71134B5B69124A5A
:10015C0043F001035361104B5B690F4A43F4806316
:10016C005361FB79184601F057F90B4BDB680A4ACF
:10017C0043F00203D360084B5B69074A43F0020368
:10018C005361054BDB68044A43F48063D36000BFC2
:10019C000837BD4680BD00BF000C014080B582B061
:1001AC0000AF00237B603FE07B68DBB2503BDBB2EF
:1001BC001846FFF7C5FF00233B602FE03B68DBB21E
:1001CC00184600F07FF81C4BDB681B4A43F0010318
:1001DC00D360194BDB68184A43F00203D360164B0B
:1001EC005B69154A43F480635361144A7B68DB01F5
:1001FC001A443B6813441B78184601F00DF90E4B5A
:10020C00DB680D4A43F48063D3600B4B5B690A4A8D
:10021C0043F0020353613B6801333B603B687F2B27
:10022C00CCDD7B6801337B607B68072BBCDD00BFBA
:10023C0000BF0837BD4680BD000C01405C080020A3
:10024C0080B500AF1E4B5B691D4A43F4806353615C
:10025C00002204211A4802F0E9FF4FF4FA7001F071
:10026C00EFFE01220421164802F0E0FFA220FFF766
:10027C0067FFA020FFF764FFC020FFF761FF40205D
:10028C00FFF75EFF2C20FFF75BFF322001F0D8FE5A
:10029C002E20FFF755FF322001F0D2FE2F20FFF762
:1002AC004FFF322001F0CCFE2420FFF749FFAF2096
:1002BC00FFF746FFA420FFF743FF00BF80BD00BF40
:1002CC00000C014080B582B000AF0346FB71FB7996
:1002DC001B09DBB243F01003DBB21846FFF730FF0B
:1002EC00FB7903F00F03DBB21846FFF729FF00BFC1
:1002FC000837BD4680BD000080B485B000AF002338
:10030C00FB601FE00023FB727F237B6014E0FB7A11
:10031C005A1CFA721846104AFB68DB011A447B68B7
:10032C00134419780D4AFB68DB01134403440A4655
:10033C001A707B68013B7B607B68002BE7DAFB68FB
:10034C000133FB60FB68072BDCDD00BF00BF1437FB
:10035C00BD4680BC704700BF5C0400205C080020D8
:10036C0090B585B000AF03463A60FB710B46BB718C
:10037C000123FB73FB7963F04F03DBB21846FFF7E5
:10038C00DFFEBB791846FFF79DFFADE00023BB6095
:10039C0096E03B681B78402B1ED93B681B785A2B88
:1003AC001AD83B681A78554B1A70F879BB795A1CD5
:1003BC00BA711C46514B1B78A3F1410250491346AC
:1003CC009B001344CA18BB6813441B781A46214679
:1003DC0000F03AF90123FB733B681B78602B1ED9A4
:1003EC003B681B787C2B1AD83B681A78434B1A70E5
:1003FC00F879BB795A1CBA711C46404B1B78A3F197
:10040C0047023F4913469B001344CA18BB68134468
:10041C001B781A46214600F017F90023FB733B6842
:10042C001B782F2B1FD93B681B78392B1BD83B68AB
:10043C001A78324B1A70F879BB795A1CBA711C466F
:10044C002E4B1B78A3F130022E4913465B0013444C
:10045C005B00CA18BB6813441B781A46214600F08F
:10046C00F3F80123FB733B681B782E2B08D1F8792A
:10047C00BB795A1CBA714022194600F0E5F823E00A
:10048C003B681B78202B08D1F879BB795A1CBA71C0
:10049C000022194600F0D8F816E03B681B78252B93
:1004AC000BD1F879BB795A1CBA711946164ABB683C
:1004BC0013441B781A4600F0C7F8BB680133BB60C5
:1004CC00BB68042B7FF765AF3B6801333B60FB7B5C
:1004DC00002B09D0F879BB795A1CBA710022194645
:1004EC0000F0B2F80023FB733B681B78002B7FF401
:1004FC004DAF00BF00BF1437BD4690BD5C0C002053
:10050C0090500008545000084C50000880B485B03E
:10051C0000AF0346FB710B46BB7113467B71002386
:10052C00FB730DE0FA79BB79591CB971184609496E
:10053C00D3010B44034400221A70FB7B0133FB7381
:10054C00FA7B7B799A42EDD900BF00BF1437BD46C8
:10055C0080BC70475C04002090B585B000AF0346AA
:10056C00FB710B46BB7113467B71FB7963F04F0338
:10057C00DBB21846FFF7E4FDBB791846FFF7A2FE85
:10058C000023FB6015E0F879BB795A1CBA711C4644
:10059C007A790F4913465B0013445B00CA18FB6859
:1005AC0013441B781A46214600F04EF8FB680133C1
:1005BC00FB60FB68042BE6DDF879BB795A1CBA7139
:1005CC000022194600F040F800BF1437BD4690BD1C
:1005DC005450000880B582B000AF0023FB8000238C
:1005EC007B7117E000233B710DE078793979FB883A
:1005FC005A1CFA801A46134B9B5C1A4600F024F8DE
:10060C003B7901333B7197F90430002BEDDA7B79A0
:10061C0001337B717B79072BE4D9A220FFF790FD86
:10062C00A020FFF78DFDC020FFF78AFD4020FFF7CB
:10063C0087FDFFF761FEFFF7B1FD00BF0837BD4630
:10064C0080BD00BF0000002080B483B000AF034623
:10065C00FB710B46BB7113467B71FA79BB7905496B
:10066C00D2010A4413447A791A7000BF0C37BD4684
:10067C0080BC70475C04002080B483B000AF78600D
:10068C007B68784A934200F021847B68754A9342D8
:10069C0000F2B4867B68744A934200F09D817B68BB
:1006AC00714A934200F2AA867B68704A934200F02A
:1006BC0071817B686D4A934200F2A0867B686C4A1C
:1006CC00934200F09D867B68694A934200F29686BD
:1006DC007B68684A934200F0DF807B68654A9342EE
:1006EC0000F28C867B68644A934200F096807B68AB
:1006FC00614A934200F282867B68604A93427AD0C8
:10070C007B685E4A934200F279867B685C4A93422E
:10071C004FD07B685A4A934200F270867B68594AE4
:10072C00934210D07B68574A934200F267867B68ED
:10073C00554A934200F052867B68544A934200F02B
:10074C003F8600F05BBE524B1B781B021AB2504B1B
:10075C005B781BB213431BB29AB24E4B1A804C4BB4
:10076C009B781B021AB24A4BDB781BB213431BB2A9
:10077C009AB2484B5A80464B1B791B021AB2444B17
:10078C005B791BB213431BB29BB2A3F5EA43303B1C
:10079C009AB2404B9A803E4B9B791B021AB23C4B4F
:1007AC00DB791BB213431BB29AB23A4B1A8100F09D
:1007BC0028BE374B1B781B021AB2354B5B781BB229
:1007CC0013431BB29AB2334B5A81314B9A78314B4B
:1007DC001A732F4BDB781B021AB22D4B1B791BB2F1
:1007EC0013431BB29AB22B4BDA81294B5A79294B02
:1007FC001A7400F006BE264B1A78264B5A74244BFA
:10080C005A78244B9A74224B9A78224BDA74204BE8
:10081C00DA78204B1A7500F0F4BD1D4B1A781D4B7D
:10082C005A751B4B5A781B4B9A75194B9A78194B66
:10083C00DA75174BDA78174B1A76154B1B791A4663
:10084C00134B5B791B021A43114B9B791B041A4304
:10085C000F4BDB791B0613431A460E4BDA6100F083
:10086C00D0BD00BF01409818014097180140961860
:10087C0001409518014094180140931801409218BA
:10088C000140911801409018014050180140521835
:10089C00600C0020680C00204D4B1A784D4B83F8EF
:1008AC0020204B4B5A784B4B83F82120484B9A789D
:1008BC00484B83F82220464BDA78464B83F82320AA
:1008CC00434B1B7903F00103D9B2424A92F824300E
:1008DC0061F3000382F824303D4B1B795B1003F06D
:1008EC000103D9B23B4A92F8243061F3410382F8F8
:1008FC002430374B1B799B1003F00103D9B2354AD6
:10090C0092F8243061F3820382F82430304B1B7947
:10091C00DB1003F00103D9B22E4A92F8243061F3B4
:10092C00C30382F824302A4B1B791B1103F00103FB
:10093C00D9B2284A92F8243061F3041382F8243097
:10094C00234B1B795B1103F00103D9B2214A92F8B6
:10095C00243061F3451382F824301D4B1B799B1115
:10096C0003F00103D9B21B4A92F8243061F38613C9
:10097C0082F82430164B1B79DB09DBB203F0010340
:10098C00D9B2144A92F8243061F3C71382F8243098
:10099C0000F037BD0E4B5B78283BDAB20D4B83F879
:1009AC002A200B4B9B78283BDAB20A4B83F82B207E
:1009BC00074BDB78283BDAB2064B83F82C20044B30
:1009CC001B79283BDAB2034B83F82D2000F019BDBC
:1009DC00600C0020680C0020C04B1B7803F0010356
:1009EC00D9B2BF4A92F82E3061F3000382F82E3050
:1009FC00BA4B1B785B1003F00103D9B2B84A92F8DA
:100A0C002E3061F3410382F82E30B44B1B789B10CF
:100A1C0003F00103D9B2B24A92F82E3061F382038B
:100A2C0082F82E30AD4B1B78DB1003F00103D9B2EA
:100A3C00AB4A92F82E3061F3C30382F82E30A74BE9
:100A4C001B781B1103F00103D9B2A54A92F82E3082
:100A5C0061F3041382F82E30A04B1B785B1103F06A
:100A6C000103D9B29E4A92F82E3061F3451382F8F5
:100A7C002E309A4B1B789B1103F00103D9B2984A84
:100A8C0092F82E3061F3861382F82E30934B1B783C
:100A9C00DB09DBB203F00103D9B2914A92F82E3094
:100AAC0061F3C71382F82E308C4B5B7803F0010393
:100ABC00D9B28B4A92F82F3061F3000382F82F30B1
:100ACC00864B5B785B1003F00103D9B2844A92F831
:100ADC002F3061F3410382F82F30804B5B789B10F1
:100AEC0003F00103D9B27E4A92F82F3061F38203EE
:100AFC0082F82F30794B5B78DB1003F00103D9B20D
:100B0C00774A92F82F3061F3C30382F82F30734B7E
:100B1C005B781B1103F00103D9B2714A92F82F30A4
:100B2C0061F3041382F82F306C4B5B785B1103F08C
:100B3C000103D9B26A4A92F82F3061F3451382F857
:100B4C002F30664B5B789B1103F00103D9B2644ADA
:100B5C0092F82F3061F3861382F82F305F4B5B785D
:100B6C00DB09DBB203F00103D9B25D4A92F82F30F6
:100B7C0061F3C71382F82F30584B9B7803F00103B5
:100B8C00D9B2574A92F8303061F3000382F8303012
:100B9C00524B9B785B1003F00103D9B2504A92F888
:100BAC00303061F3410382F830304C4B9B789B1012
:100BBC0003F00103D9B24A4A92F8303061F3820350
:100BCC0082F83030454B9B78DB1003F00103D9B22F
:100BDC00434A92F8303061F3C30382F830303F4B14
:100BEC009B781B1103F00103D9B23D4A92F83030C7
:100BFC0061F3041382F83030384B9B785B1103F0AF
:100C0C000103D9B2364A92F8303061F3451382F8B9
:100C1C003030324B9B789B1103F00103D9B2304A30
:100C2C0092F8303061F3861382F830302B4B9B787E
:100C3C00DB09DBB203F00103D9B2294A92F8303058
:100C4C0061F3C71382F83030244BDB7803F00103D7
:100C5C00D9B2234A92F8313061F3000382F8313073
:100C6C001E4BDB785B1003F00103D9B21C4A92F8DF
:100C7C00313061F3410382F83130184BDB789B1033
:100C8C0003F00103D9B2164A92F8313061F38203B2
:100C9C0082F83130114BDB78DB1003F00103D9B251
:100CAC000F4A92F8313061F3C30382F831300B4BA9
:100CBC00DB781B1103F00103D9B2094A92F83130E9
:100CCC0061F3041382F83130044BDB785B1103F0D1
:100CDC000103D9B2024A92F8313003E0600C0020D3
:100CEC00680C002061F3451382F83130754BDB78CA
:100CFC009B1103F00103D9B2734A92F8313061F3BE
:100D0C00861382F831306F4BDB78DB09DBB203F0F2
:100D1C000103D9B26C4A92F8313061F3C71382F8EF
:100D2C003130684B1B7903F00103D9B2664A92F853
:100D3C00323061F3000382F83230624B1B795B1066
:100D4C0003F00103D9B2604A92F8323061F34103E7
:100D5C0082F832305B4B1B799B1003F00103D9B244
:100D6C00594A92F8323061F3820382F83230554B93
:100D7C001B79DB1003F00103D9B2534A92F83230DD
:100D8C0061F3C30382F832304E4B1B791B1103F015
:100D9C000103D9B24C4A92F8323061F3041382F851
:100DAC003230484B1B795B1103F00103D9B2464A30
:100DBC0092F8323061F3451382F83230414B1B7993
:100DCC009B1103F00103D9B23F4A92F8323061F320
:100DDC00861382F832303B4B1B79DB09DBB203F014
:100DEC000103D9B2384A92F8323061F3C71382F852
:100DFC003230344B5B7903F00103D9B2324A92F8AA
:100E0C00333061F3000382F833302E4B5B795B1087
:100E1C0003F00103D9B22C4A92F8333061F3410349
:100E2C0082F83330274B5B799B1003F00103D9B266
:100E3C00254A92F8333061F3820382F83330214B28
:100E4C005B79DB1003F00103D9B21F4A92F83330FF
:100E5C0061F3C30382F833301A4B5B791B1103F037
:100E6C000103D9B2184A92F8333061F3041382F8B3
:100E7C003330144B5B795B1103F00103D9B2124A86
:100E8C0092F8333061F3451382F833300D4B5B79B4
:100E9C009B1103F00103D9B20B4A92F8333061F382
:100EAC00861382F83330074B5B79DB09DBB203F036
:100EBC000103D9B2044A92F8333061F3C71382F8B4
:100ECC0033309EE2600C0020680C0020C04B1B7875
:100EDC0003F00103D9B2BF4A92F8343061F3000336
:100EEC0082F83430BA4B1B785B1003F00103D9B293
:100EFC00B84A92F8343061F3410382F83430B44B81
:100F0C001B789B1003F00103D9B2B24A92F834302B
:100F1C0061F3820382F83430AD4B1B78DB1003F0A5
:100F2C000103D9B2AB4A92F8343061F3C30382F8AF
:100F3C003430A74B1B781B1103F00103D9B2A54A1F
:100F4C0092F8343061F3041382F83430A04B1B78E0
:100F5C005B1103F00103D9B29E4A92F8343061F36D
:100F6C00451382F834309A4B1B789B1103F0010324
:100F7C00D9B2984A92F8343061F3861382F834303F
:100F8C00934B1B78DB09DBB203F00103D9B2914A16
:100F9C0092F8343061F3C71382F834308C4B5B78A1
:100FAC0003F00103D9B28B4A92F8353061F3000398
:100FBC0082F83530864B5B785B1003F00103D9B2B5
:100FCC00844A92F8353061F3410382F83530804B16
:100FDC005B789B1003F00103D9B27E4A92F835304E
:100FEC0061F3820382F83530794B5B78DB1003F0C8
:100FFC000103D9B2774A92F8353061F3C30382F812
:10100C003530734B5B781B1103F00103D9B2714A75
:10101C0092F8353061F3041382F835306C4B5B7801
:10102C005B1103F00103D9B26A4A92F8353061F3CF
:10103C00451382F83530664B5B789B1103F0010346
:10104C00D9B2644A92F8353061F3861382F83530A0
:10105C005F4B5B78DB09DBB203F00103D9B25D4A6D
:10106C0092F8353061F3C71382F83530584B9B78C2
:10107C0003F00103D9B2574A92F8363061F30003FA
:10108C0082F83630524B9B785B1003F00103D9B2D7
:10109C00504A92F8363061F3410382F836304C4BAB
:1010AC009B789B1003F00103D9B24A4A92F8363070
:1010BC0061F3820382F83630454B9B78DB1003F0EA
:1010CC000103D9B2434A92F8363061F3C30382F874
:1010DC0036303F4B9B781B1103F00103D9B23D4ACC
:1010EC0092F8363061F3041382F83630384B9B7823
:1010FC005B1103F00103D9B2364A92F8363061F332
:10110C00451382F83630324B9B789B1103F0010368
:10111C00D9B2304A92F8363061F3861382F8363001
:10112C002B4B9B78DB09DBB203F00103D9B2294AC4
:10113C0092F8363061F3C71382F83630244BDB78E3
:10114C0003F00103D9B2234A92F8373061F300035C
:10115C0082F837301E4BDB785B1003F00103D9B2F9
:10116C001C4A92F8373061F3410382F83730184B40
:10117C00DB789B1003F00103D9B2164A92F8373092
:10118C0061F3820382F83730114BDB78DB1003F00C
:10119C000103D9B20F4A92F8373061F3C30382F8D6
:1011AC0037300B4B1B7903F00103D9B2094A92F883
:1011BC00383061F3000382F83830054B1B795B1033
:1011CC0003F00103D9B2034A92F8383004E000BFAF
:1011DC00600C0020680C002061F3410382F8383069
:1011EC008A4B1B799B1003F00103D9B2884A92F801
:1011FC00383061F3820382F83830844B1B79DB1072
:10120C0003F00103D9B2824A92F8383061F3C30378
:10121C0082F838307D4B1B791B1103F00103D9B2D6
:10122C007B4A92F8383061F3041382F83830774BEC
:10123C001B795B1103F00103D9B2754A92F838306F
:10124C0061F3451382F83830704B1B799B1103F016
:10125C000103D9B26E4A92F8383061F3861382F8E2
:10126C0038306A4B1B79DB09DBB203F00103D9B2CE
:10127C00674A92F8383061F3C71382F83830634B01
:10128C005B7903F00103D9B2614A92F8393061F30A
:10129C00000382F839305D4B5B795B1003F001037E
:1012AC00D9B25B4A92F8393061F3410382F8393094
:1012BC00564B5B799B1003F00103D9B2544A92F858
:1012CC00393061F3820382F83930504B5B79DB1093
:1012DC0003F00103D9B24E4A92F8393061F3C303DB
:1012EC0082F83930494B5B791B1103F00103D9B2F9
:1012FC00474A92F8393061F3041382F83930434B82
:10130C005B795B1103F00103D9B2414A92F8393091
:10131C0061F3451382F839303C4B5B799B1103F038
:10132C000103D9B23A4A92F8393061F3861382F844
:10133C003930364B5B79DB09DBB203F00103D9B2F0
:10134C00334A92F8393061F3C71382F839302F4B96
:10135C009B7903F00103D9B22D4A92F83A3061F32C
:10136C00000382F83A30294B9B795B1003F00103A0
:10137C00D9B2274A92F83A3061F3410382F83A30F5
:10138C00224B9B799B1003F00103D9B2204A92F8AF
:10139C003A3061F3820382F83A301C4B9B79DB10B4
:1013AC0003F00103D9B21A4A92F83A3061F3C3033D
:1013BC0082F83A30154BDA79154B83F83B2020E054
:1013CC00124B5B781A04114B9B781B0213430F4A88
:1013DC00D27813431A460E4BDA6312E00B4B9B7810
:1013EC001B020A4AD27813430A4A82FB0312921157
:1013FC00DB17D31A9AB2064BDA8002E000BF00E08A
:10140C0000BF00BF0C37BD4680BC7047600C00208D
:10141C00680C0020D34D621080B483B000AF03463B
:10142C00FB71044AFB79D36000BF0C37BD4680BC0E
:10143C00704700BF0008014080B400AF084B9B7898
:10144C001A04074B5B781B021343054A12781343AB
:10145C001A46044B1A6000BFBD4680BC704700BFE3
:10146C008C0D0020900D002080B500AF03220449A4
:10147C00202000F021F8FFF7DFFF00BF80BD00BF88
:10148C008C0D002080B500AF04220949302000F0FB
:10149C0013F8074B5B881B021AB2054B1B881BB257
:1014AC0013431BB29AB2034B1A8000BF80BD00BF1E
:1014BC00980D00200204002080B586B004AF0346CE
:1014CC003960FB801346BB80FA884FF0FF330293E0
:1014DC00BB8801933B6800930123A021044802F0D0
:1014EC0019F8052000F0ACFD00BF0837BD4680BDE3
:1014FC00D00C002080B500AF1A4B00221A7027E0E8
:10150C00184B1B781A46184B53F82230174A536065
:10151C00164B04229A60154B0022DA60134B0822FA
:10152C001A61134B00221A70124B114A0F491248C0
:10153C0000F0B2FF0346002B01D000F0AFFB1920E6
:10154C0000F07EFD074B1B780133DAB2054B1A70A5
:10155C00044B1B780A2BD3D9024B00221A7000BF04
:10156C0080BD00BF700D0020080400209C0D0020E1
:10157C00740D00207C0D0020A80C002080B582B0DA
:10158C0000AF774A60210120FEF7EAFE754BDB6B5A
:10159C00744AD288B3FBF2F3734AA2FB03239B0970
:1015AC001A465D210220FEF7D7FF6E4BDB6B6D4AAE
:1015BC00D288B3FBF2F26C4BA3FB02139B094FF4E2
:1015CC007A7101FB03F3D31A684AA2FB03235B096C
:1015DC001A4663210220FEF7BFFF624BDB6B614AA8
:1015EC00D288B3FBF2F2604BA3FB02139B094FF4BE
:1015FC007A7101FB03F3D31A5C4AA2FB0312520962
:10160C00642101FB02F29A1A594BA3FB0223DB085B
:10161C001A4669210220FEF79FFF524BDB6B514AA1
:10162C00D288B3FBF2F2504BA3FB02139B094FF48D
:10163C007A7101FB03F3D31A4C4AA2FB0312520931
:10164C00642101FB02F29A1A494BA3FB0213D9083D
:10165C000B469B000B445B00D11A0A466F210220FB
:10166C00FEF77AFF434A0C210120FEF779FE424A2D
:10167C0011210220FEF774FE404B1B685B003A4AB6
:10168C00A2FB03239B091A461D210220FEF764FFCF
:10169C003A4B1B685A00344BA3FB02139B094FF4C3
:1016AC007A7101FB03F3D31A304AA2FB03235B09C3
:1016BC001A4623210220FEF74FFF304B1B685A00BD
:1016CC00294BA3FB02139B094FF47A7101FB03F323
:1016DC00D31A264AA2FB03125209642101FB02F21F
:1016EC009A1A234BA3FB0223DB081A46292102205A
:1016FC00FEF732FF214B1B685A001B4BA3FB021356
:10170C009B094FF47A7101FB03F3D31A174AA2FB1E
:10171C0003125209642101FB02F29A1A144BA3FB27
:10172C000213D9080B469B000B445B00D11A0A46E6
:10173C002F210220FEF710FF114A28210520FEF769
:10174C000FFE104A34210620FEF70AFE0023FB8010
:10175C00FEF7D2FDFEF722FD00BF0837BD4680BD67
:10176C0018500008680C0020D34D62101F85EB51F7
:10177C00CDCCCCCC1C50000828500008900D00207B
:10178C002C5000083C50000880B582B000AF786047
:10179C000A4B0B4A0021786800F04DFF0346002BE2
:1017AC0008D1074B5B68074A1360064B1B68184649
:1017BC00FEF762FF00BF0837BD4680BD600C0020FD
:1017CC00B40D0020780D002080B500AF00F0D6FBE2
:1017DC0000F060F800F070F900F0A2F800F020F9C9
:1017EC0000F0F0F8274803F01FF8274801F04EFDF1
:1017FC00FEF726FD254800F00BFE0221234801F0E0
:10180C003BF8FEF7E7FEFFF775FE4FF47A7000F039
:10181C0017FC7F2200210020FEF778FE7F2200219A
:10182C000120FEF773FE7F2200210220FEF76EFEE0
:10183C007F2200210320FEF769FE7F220021042075
:10184C00FEF764FE7F2200210520FEF75FFE7F225B
:10185C0000210620FEF75AFE7F2200210720FEF70A
:10186C0055FEFFF747FEFFF7FFFDFFF70BFEFFF7F7
:10187C0085FE4FF47A7000F0E3FB054B01221A70E1
:10188C00FEE700BF240D0020D00C0020A80C002087
:10189C000004002080B590B000AF07F11803282297
:1018AC000021184603F06EFB3B1D00221A605A60A3
:1018BC009A60DA601A610123BB614FF48033FB61DB
:1018CC0000233B620123BB6202237B634FF4803312
:1018DC00BB634FF4E013FB6307F11803184602F0E7
:1018EC0057FB0346002B01D000F0D8F90F237B6087
:1018FC000223BB600023FB604FF480633B61002339
:10190C007B613B1D0221184602F0C4FD0346002BEF
:10191C0001D000F0C3F900BF4037BD4680BD0000C8
:10192C0080B58AB000AF254B254A1A60234B08229C
:10193C005A60224B00229A60204B0022DA601F4B27
:10194C004FF460221A611D4B4FF480125A611B4BED
:10195C0000221A76194B00225A76184B00229A76DE
:10196C00164B0022DA76154B00221A77134B002205
:10197C005A77124800F088FB0346002B01D000F088
:10198C008DF901233B6201237B6100233B61002322
:10199C003B6000237B600023BB600023FB600023C3
:1019AC00BB610123FB6100237B623B461946034864
:1019BC0000F065FC00BF2837BD4680BDA80C002098
:1019CC000064004080B500AF124B134A1A60114BF3
:1019DC00124A5A600F4B00229A600E4B0022DA60BA
:1019EC000C4B4FF480421A610A4B00225A61094B8E
:1019FC0000229A61074B0022DA61064B00221A6220
:101A0C00044801F043FC0346002B01D000F046F9DA
:101A1C0000BF80BDD00C002000540040801A06008E
:101A2C0080B586B000AF07F1080300221A605A6037
:101A3C009A60DA603B4600221A605A601D4B4FF0E8
:101A4C0080421A601B4B63225A601A4B00229A6028
:101A5C00184B4722DA60174B00221A61154B0022F3
:101A6C009A61144802F090FE0346002B01D000F05E
:101A7C0015F94FF48053BB6007F1080319460D4864
:101A8C0003F02CF80346002B01D000F007F90023DB
:101A9C003B6000237B603B461946064803F002FA84
:101AAC000346002B01D000F0F9F800BF1837BD46F3
:101ABC0080BD00BF240D002080B588B000AF07F1B9
:101ACC00100300221A605A609A60DA60384B9B69E6
:101ADC00374A43F010039361354B9B6903F01003B5
:101AEC00FB60FB68324B9B69314A43F020039361E6
:101AFC002F4B9B6903F02003BB60BB682C4B9B698D
:101B0C002B4A43F004039361294B9B6903F00403B4
:101B1C007B607B68264B9B69254A43F008039361E5
:101B2C00234B9B6903F008033B603B680022FF21B9
:101B3C00204801F07BFB002240F607411E4801F0D3
:101B4C0075FB4FF400533B611C4B7B610123BB6164
:101B5C0007F1100319461A4801F0E4F9FF233B6121
:101B6C0001237B610023BB610223FB6107F110039E
:101B7C001946104801F0D6F940F607433B610123A2
:101B8C007B610023BB610223FB6107F11003194643
:101B9C00094801F0C7F900220021282001F08BF937
:101BAC00282001F0A4F900BF2037BD4680BD00BF3E
:101BBC000010024000080140000C01400000211000
:101BCC000010014080B483B000AF78607B681B6864
:101BDC00B3F1804F37D11E4B1B889BB201339AB2A5
:101BEC001B4B1A801A4B1B889BB20A2B08D1194B22
:101BFC001B8801339AB2174B1A80154B00221A809E
:101C0C00144B1A88144B1B889A421CD1114B1B88FD
:101C1C0003F57A739AB2104B1A80104B01221A708A
:101C2C000F4B1B8801339AB20D4B1A800D4B64225B
:101C3C001A600C4B1B680C4A13600C4B01221A7077
:101C4C00084B00221A6000BF0C37BD4680BC7047A1
:101C5C006C0D00206E0D0020040400208F0D002060
:101C6C00D00D0020840D0020800D0020880D002058
:101C7C0080B483B000AF0346FB80FB88B3F5005FF4
:101C8C0004D1054B1B680133034A136000BF0C37AA
:101C9C00BD4680BC704700BF840D002080B400AFEF
:101CAC0072B600BFFEE7000080B485B000AF154BE4
:101CBC009B69144A43F001039361124B9B6903F037
:101CCC000103BB60BB680F4BDB690E4A43F08053CA
:101CDC00D3610C4BDB6903F080537B607B680A4B50
:101CEC005B68FB60FB6823F0E063FB60FB6843F020
:101CFC000073FB60044AFB68536000BF1437BD4699
:101D0C0080BC7047001002400000014080B588B0D4
:101D1C0000AF786007F1100300221A605A609A60D5
:101D2C00DA607B681B68204A934239D11F4BDB6910
:101D3C001E4A43F00073D3611C4BDB6903F0007344
:101D4C00FB60FB68194B9B69184A43F004039361D1
:101D5C00164B9B6903F00403BB60BB684FF4006334
:101D6C003B6100237B610023BB6107F11003194623
:101D7C000F4801F0D7F84FF480533B6102237B618D
:101D8C000323FB6107F110031946094801F0CAF857
:101D9C0000220021142001F08EF8142001F0A7F885
:101DAC0000BF2037BD4680BD0064004000100240DB
:101DBC000008014080B58AB000AF786007F11403C9
:101DCC0000221A605A609A60DA607B681B681D4AB0
:101DDC00934232D11C4B9B691B4A43F0080393611D
:101DEC00194B9B6903F008033B613B694FF440734B
:101DFC007B611223BB6103233B6207F11403194679
:101E0C00124801F08FF8124B5B687B627B6A43F0DF
:101E1C00E0637B627B6A43F002037B620C4A7B6A61
:101E2C005360094BDB69084A43F40013D361064B3A
:101E3C00DB6903F40013FB60FB6800BF2837BD4669
:101E4C0080BD00BF0054004000100240000C014057
:101E5C000000014080B584B000AF78607B681B68DF
:101E6C00B3F1804F13D10C4BDB690B4A43F00103E8
:101E7C00D361094BDB6903F00103FB60FB680022B3
:101E8C0000211C2001F017F81C2001F030F800BFD5
:101E9C001037BD4680BD00BF0010024080B400AFBB
:101EAC00FEE780B400AFFEE780B400AFFEE780B47D
:101EBC0000AFFEE780B400AFFEE780B400AF00BF18
:101ECC00BD4680BC704780B400AF00BFBD4680BC2F
:101EDC00704780B400AF00BFBD4680BC704780B572
:101EEC0000AF00F091F800BF80BD000080B500AFDE
:101EFC00024800F0E6FC00BF80BD00BFA80C00202B
:101F0C0080B500AF024802F0E1FC00BF80BD00BF0D
:101F1C00240D002080B500AF4FF4005001F09EF965
:101F2C0000BF80BD80B400AF00BFBD4680BC704711
:101F3C00FFF7F8FF0B480C490C4A002302E0D45879
:101F4C00C4500433C4188C42F9D3094A094C0023F9
:101F5C0001E013600432A242FBD303F01BF8FFF73D
:101F6C0033FC70470000002040040020F8510008AA
:101F7C0040040020D80D0020FEE7000080B500AF23
:101F8C00084B1B68074A43F010031360032000F052
:101F9C0087FF0F2000F008F8FFF786FE0023184695
:101FAC0080BD00BF0020024080B582B000AF7860D9
:101FBC00124B1A68124B1B7819464FF47A73B3FB09
:101FCC00F1F3B2FBF3F3184600F09FFF0346002B2E
:101FDC0001D001230EE07B680F2B0AD80022796810
:101FEC004FF0FF3000F067FF064A7B681360002358
:101FFC0000E0012318460837BD4680BD340400209C
:10200C003C0400203804002080B400AF054B1B7842
:10201C001A46054B1B681344034A136000BFBD46A8
:10202C0080BC70473C040020D40D002080B400AF6D
:10203C00024B1B681846BD4680BC7047D40D00206F
:10204C0080B584B000AF7860FFF7F0FFB8607B68B4
:10205C00FB60FB68B3F1FF3F05D00A4B1B781A46B7
:10206C00FB681344FB6000BFFFF7E0FF0246BB6850
:10207C00D31AFA689A42F7D800BF00BF1037BD4692
:10208C0080BD00BF3C04002080B584B000AF7860F8
:10209C007B68002B01D10123EDE07B6893F82030A5
:1020AC00DBB2002B02D17868FFF730FE7B681B682F
:1020BC001A687B681B6842F001021A60FFF7B6FFD2
:1020CC00F86012E0FFF7B2FF0246FB68D31A0A2B46
:1020DC000BD97B685B6A43F400327B685A627B687D
:1020EC00052283F820200123C5E07B681B685B6810
:1020FC0003F00103002BE5D07B681B681A687B6832
:10210C001B6822F002021A60FFF790FFF86012E0E1
:10211C00FFF78CFF0246FB68D31A0A2B0BD97B689E
:10212C005B6A43F400327B685A627B68052283F851
:10213C00202001239FE07B681B685B6803F002038F
:10214C00002BE5D17B681B7E012B08D17B681B68BB
:10215C001A687B681B6842F080021A6007E07B6893
:10216C001B681A687B681B6822F080021A607B6807
:10217C005B7E012B08D17B681B681A687B681B6827
:10218C0042F040021A6007E07B681B681A687B68A3
:10219C001B6822F040021A607B689B7E012B08D1E1
:1021AC007B681B681A687B681B6842F020021A6007
:1021BC0007E07B681B681A687B681B6822F02002AA
:1021CC001A607B68DB7E012B08D17B681B681A6860
:1021DC007B681B6822F010021A6007E07B681B68A2
:1021EC001A687B681B6842F010021A607B681B7FC0
:1021FC00012B08D17B681B681A687B681B6842F04E
:10220C0008021A6007E07B681B681A687B681B6809
:10221C0022F008021A607B685B7F012B08D17B6877
:10222C001B681A687B681B6842F004021A6007E09E
:10223C007B681B681A687B681B6822F004021A60B2
:10224C007B689A687B68DB681A437B681B691A4356
:10225C007B685B6942EA03017B685B685A1E7B689A
:10226C001B680A43DA617B6800225A627B68012290
:10227C0083F82020002318461037BD4680BD80B45B
:10228C0087B000AF786039607B681B687B617B68C6
:10229C0093F82030FB74FB7C012B03D0FB7C022BCE
:1022AC0040F0AA807B69D3F8003243F001027B69CD
:1022BC00C3F800223B685B6903F01F03012202FA9A
:1022CC0003F3FB607B69D3F81C22FB68DB431A40E9
:1022DC007B69C3F81C223B68DB69002B23D17B692B
:1022EC00D3F80C22FB68DB431A407B69C3F80C2241
:1022FC003B68DB6819043B685B689BB23A685269BF
:10230C0019437B69483243F832103B689B681904C7
:10231C003B681B689AB23B685B690A43796948332E
:10232C00DB000B445A603B68DB69012B22D17B69D3
:10233C00D3F80C22FB681A437B69C3F80C223B6868
:10234C001B6819043B685B689BB23A685269194375
:10235C007B69483243F832103B689B6819043B6830
:10236C00DB689AB23B685B690A4379694833DB00E6
:10237C000B445A603B689B69002B09D17B69D3F8ED
:10238C000422FB68DB431A407B69C3F8042207E094
:10239C007B69D3F80422FB681A437B69C3F80422D7
:1023AC003B681B69002B09D17B69D3F81422FB68AD
:1023BC00DB431A407B69C3F8142207E07B69D3F82E
:1023CC001422FB681A437B69C3F814223B681B6A0E
:1023DC00012B07D17B69D3F81C22FB681A437B695C
:1023EC00C3F81C227B69D3F8003223F001027B690D
:1023FC00C3F80022002306E07B685B6A43F480226A
:10240C007B685A62012318461C37BD4680BC704756
:10241C0080B584B000AF78607B6893F82030DBB275
:10242C00012B2ED17B68022283F820207B681B684D
:10243C001A687B681B6822F001021A60FFF7F6FD30
:10244C00F86012E0FFF7F2FD0246FB68D31A0A2B84
:10245C000BD97B685B6A43F400327B685A627B68F9
:10246C00052283F82020012312E07B681B685B683F
:10247C0003F00103002BE5D17B6800225A62002394
:10248C0006E07B685B6A43F400227B685A62012396
:10249C0018461037BD4680BD80B489B000AFF860D7
:1024AC00B9607A603B60FB6893F82030FB77FB687F
:1024BC001B689B68BB61FB7F012B03D0FB7F022B4E
:1024CC0040F0AD80BB6903F08063002B0AD1BB697F
:1024DC0003F00063002B05D1BB6903F08053002B84
:1024EC0000F09580BB691B0E03F003037B61012296
:1024FC007B699A403B681A60BB689B68002B0DD1C6
:10250C00BB681B685A05BB68DB68F96809681A4325
:10251C007B6918331B010B441A600FE0BB685B68C6
:10252C00DA00BB689B681A43BB68DB68F96809680A
:10253C001A437B6918331B010B441A60FB6819683A
:10254C00BB681A697B6918331B010B4404331A608E
:10255C00BB681B7D012B11D1FB681A687B69183392
:10256C001B01134404331B68FA68116843F480722E
:10257C007B6918331B010B4404331A607B680733E7
:10258C001B781A067B6806331B781B041A437B687E
:10259C0005331B781B0213437A68043212781046F9
:1025AC00FA68116843EA00027B691B010B4403F5CE
:1025BC00C6731A607B6803331B781A067B68023378
:1025CC001B781B041A437B6801331B781B021343D3
:1025DC007A6812781046FA68116843EA00027B693F
:1025EC001B010B4403F5C4731A60FB681A687B6902
:1025FC0018331B0113441B68FA68116843F001027D
:10260C007B6918331B010B441A6000230EE0FB6836
:10261C005B6A43F40012FB685A62012306E0FB6814
:10262C005B6A43F48022FB685A6201231846243704
:10263C00BD4680BC704780B487B000AFF860B9600D
:10264C007A603B60FB6893F82030FB75FB7D012BB7
:10265C0003D0FB7D022B40F00381BB68002B0ED115
:10266C00FB681B68DB6803F00303002B16D1FB68C7
:10267C005B6A43F40012FB685A620123F7E0FB68C3
:10268C001B681B6903F00303002B07D1FB685B6A13
:10269C0043F40012FB685A620123E8E0FB681A68F5
:1026AC00BB681B331B0113441B6803F004027B68DB
:1026BC009A607B689B68002B0CD1FB681A68BB681E
:1026CC001B331B0113441B685B0DC3F30A027B68AD
:1026DC001A600BE0FB681A68BB681B331B011344C0
:1026EC001B68DB0823F060427B685A60FB681A6841
:1026FC00BB681B331B0113441B6803F002027B688D
:10270C00DA60FB681A68BB681B331B011344043383
:10271C001B6803F00803002B03D07B6808221A61A6
:10272C000BE0FB681A68BB681B331B0113440433B2
:10273C001B6803F00F027B681A61FB681A68BB68A0
:10274C001B331B01134404331B681B0ADAB27B686E
:10275C009A61FB681A68BB681B331B011344043372
:10276C001B681B0C9AB27B685A61FB681A68BB68C1
:10277C001B01134403F5DC731B68DAB23B681A7057
:10278C00FB681A68BB681B01134403F5DC731B68F8
:10279C001A0A3B680133D2B21A70FB681A68BB681C
:1027AC001B01134403F5DC731B681A0C3B680233E2
:1027BC00D2B21A70FB681A68BB681B01134403F58C
:1027CC00DC731B681A0E3B680333D2B21A70FB68B9
:1027DC001A68BB681B01134403F5DE731A683B6867
:1027EC000433D2B21A70FB681A68BB681B0113441D
:1027FC0003F5DE731B681A0A3B680533D2B21A70F4
:10280C00FB681A68BB681B01134403F5DE731B6875
:10281C001A0C3B680633D2B21A70FB681A68BB6894
:10282C001B01134403F5DE731B681A0E3B68073358
:10283C00D2B21A70BB68002B08D1FB681B68DA682F
:10284C00FB681B6842F02002DA6007E0FB681B683B
:10285C001A69FB681B6842F020021A61002306E02B
:10286C00FB685B6A43F48022FB685A6201231846BA
:10287C001C37BD4680BC704780B485B000AF786013
:10288C0039607B6893F82030FB73FB7B012B02D003
:10289C00FB7B022B09D17B681B6859697B681B6821
:1028AC003A680A435A61002306E07B685B6A43F48A
:1028BC0080227B685A62012318461437BD4680BCBF
:1028CC00704780B58AB000AF786000237B627B686C
:1028DC001B685B693B627B681B685B68FB617B68A0
:1028EC001B689B68BB617B681B68DB687B617B68D2
:1028FC001B681B693B617B681B689B69FB603B6ABF
:10290C0003F00103002B7CD0BB6903F00103002B07
:10291C0023D07B681B6801229A60BB6903F0020319
:10292C00002B03D0786800F083F916E0BB6903F044
:10293C000403002B04D07B6A43F400637B620CE03D
:10294C00BB6903F00803002B04D07B6A43F480536B
:10295C007B6202E0786800F086F9BB6903F480734F
:10296C00002B24D07B681B684FF480729A60BB6983
:10297C0003F40073002B03D0786800F062F916E0C2
:10298C00BB6903F48063002B04D07B6A43F40053CF
:10299C007B620CE0BB6903F40063002B04D07B6A00
:1029AC0043F480437B6202E0786800F065F9BB6910
:1029BC0003F48033002B24D07B681B684FF48032E7
:1029CC009A60BB6903F40033002B03D0786800F0E5
:1029DC0041F916E0BB6903F48023002B04D07B6A19
:1029EC0043F400437B620CE0BB6903F40023002B2F
:1029FC0004D07B6A43F480337B6202E0786800F099
:102A0C0044F93B6A03F00803002B0CD07B6903F0FC
:102A1C001003002B07D07B6A43F400737B627B6846
:102A2C001B681022DA603B6A03F00403002B0BD006
:102A3C007B6903F00803002B06D07B681B68082217
:102A4C00DA60786800F02AF93B6A03F00203002B85
:102A5C0009D07B681B68DB6803F00303002B02D0F2
:102A6C007868FEF791FE3B6A03F04003002B0CD014
:102A7C003B6903F01003002B07D07B6A43F480639F
:102A8C007B627B681B6810221A613B6A03F020038F
:102A9C00002B0BD03B6903F00803002B06D07B689E
:102AAC001B6808221A61786800F00AF93B6A03F087
:102ABC001003002B09D07B681B681B6903F0030310
:102ACC00002B02D0786800F0F2F83B6A03F4003374
:102ADC00002B0BD0FB6903F01003002B06D07B6896
:102AEC001B6810225A60786800F0F3F83B6A03F414
:102AFC008033002B0BD0FB6903F00803002B06D0AE
:102B0C007B681B6808225A60786800F0EBF83B6A17
:102B1C0003F40043002B7BD0FB6903F00403002B70
:102B2C0072D03B6A03F48073002B08D0FB6803F06F
:102B3C000103002B03D07B6A43F001037B623B6AE9
:102B4C0003F40073002B08D0FB6803F00203002B86
:102B5C0003D07B6A43F002037B623B6A03F480631D
:102B6C00002B08D0FB6803F00403002B03D07B6A16
:102B7C0043F004037B623B6A03F40063002B43D0F5
:102B8C00FB6803F07003002B3ED0FB6803F070036E
:102B9C00602B2BD0602B2ED8502B22D0502B2AD828
:102BAC00402B19D0402B26D8302B10D0302B22D8CC
:102BBC00102B02D0202B05D01DE07B6A43F00803BC
:102BCC007B6219E07B6A43F010037B6214E07B6A42
:102BDC0043F020037B620FE07B6A43F040037B628F
:102BEC000AE07B6A43F080037B6205E07B6A43F476
:102BFC0080737B6200E000BF7B681B689A697B680E
:102C0C001B6822F070029A617B681B6804225A6070
:102C1C007B6A002B08D07B685A6A7B6A1A437B68F4
:102C2C005A62786800F067F800BF2837BD4680BD4F
:102C3C0080B483B000AF786000BF0C37BD4680BC59
:102C4C00704780B483B000AF786000BF0C37BD46CE
:102C5C0080BC704780B483B000AF786000BF0C3785
:102C6C00BD4680BC704780B483B000AF786000BFB5
:102C7C000C37BD4680BC704780B483B000AF786021
:102C8C0000BF0C37BD4680BC704780B483B000AF2A
:102C9C00786000BF0C37BD4680BC704780B483B0F1
:102CAC0000AF786000BF0C37BD4680BC704780B465
:102CBC0083B000AF786000BF0C37BD4680BC704756
:102CCC0080B483B000AF786000BF0C37BD4680BCC9
:102CDC00704780B483B000AF786000BF0C37BD463E
:102CEC0080BC704780B483B000AF786000BF0C37F5
:102CFC00BD4680BC704780B483B000AF786000BF25
:102D0C000C37BD4680BC704780B485B000AF78608E
:102D1C007B6803F00703FB600C4BDB68BB60BA6895
:102D2C004FF6FF031340BB60FB681A02BB681343EA
:102D3C0043F0BF6343F40033BB60044ABB68D36009
:102D4C0000BF1437BD4680BC704700BF00ED00E0EB
:102D5C0080B400AF044BDB681B0A03F00703184672
:102D6C00BD4680BC704700BF00ED00E080B483B06E
:102D7C0000AF0346FB7197F90730002B0BDBFB7997
:102D8C0003F01F02064997F907305B09012000FA8E
:102D9C0002F241F8232000BF0C37BD4680BC7047BF
:102DAC0000E100E080B483B000AF03463960FB71F2
:102DBC0097F90730002B0ADB3B68DAB20C4997F91C
:102DCC0007301201D2B20B4483F800230AE03B68AF
:102DDC00DAB20849FB7903F00F03043B1201D2B2BB
:102DEC000B441A7600BF0C37BD4680BC704700BF41
:102DFC0000E100E000ED00E080B489B000AFF860C5
:102E0C00B9607A60FB6803F00703FB61FB69C3F1EF
:102E1C000703042B28BF0423BB61FB690433062B77
:102E2C0002D9FB69033B00E000237B614FF0FF32CA
:102E3C00BB6902FA03F3DA43BB681A407B699A4018
:102E4C004FF0FF317B6901FA03F3D9437B680B40E8
:102E5C00134318462437BD4680BC704780B582B0FA
:102E6C0000AF78607B68013BB3F1807F01D3012315
:102E7C000FE00A4A7B68013B53600F214FF0FF3093
:102E8C00FFF790FF054B00229A60044B07221A6053
:102E9C00002318460837BD4680BD00BF10E000E097
:102EAC0080B582B000AF78607868FFF72DFF00BF67
:102EBC000837BD4680BD80B586B000AF0346B9600B
:102ECC007A60FB7300237B61FFF742FF78617A68BD
:102EDC00B9687869FFF790FF024697F90F301146F1
:102EEC001846FFF75FFF00BF1837BD4680BD80B5A1
:102EFC0082B000AF0346FB7197F907301846FFF715
:102F0C0035FF00BF0837BD4680BD80B582B000AF2D
:102F1C0078607868FFF7A2FF034618460837BD466D
:102F2C0080BD000080B48BB000AF786039600023A6
:102F3C007B6200233B6269E101227B6A02FA03F3A4
:102F4C00FB613B681B68FA691340BB61BA69FB699A
:102F5C009A4240F058813B685B689A4A93425ED033
:102F6C00984A934275D8984A934258D0964A9342BD
:102F7C006FD8964A934252D0944A934269D8944A55
:102F8C0093424CD0924A934263D8924A934246D091
:102F9C00904A93425DD8122B2AD8122B59D801A2F1
:102FAC0052F823F02B3000080530000817300008C9
:102FBC00593000085F3000085F3000085F300008AF
:102FCC005F3000085F3000085F3000085F30000899
:102FDC005F3000085F3000085F3000085F30000889
:102FEC005F3000085F3000080D3000082130000809
:102FFC00794A934213D02CE03B68DB683B6229E0B2
:10300C003B68DB6804333B6224E03B68DB680833D5
:10301C003B621FE03B68DB680C333B621AE03B68A9
:10302C009B68002B02D104233B6213E03B689B6836
:10303C00012B05D108233B627B68FA691A6109E010
:10304C0008233B627B68FA695A6103E000233B6208
:10305C0000E000BFBB69FF2B01D87B6801E07B68F7
:10306C0004337B61BB69FF2B02D87B6A9B0002E0B7
:10307C007B6A083B9B003B617B691A680F213B69AB
:10308C0001FA03F3DB431A40396A3B6901FA03F393
:10309C001A437B691A603B685B6803F08053002B12
:1030AC0000F0B1804D4B9B694C4A43F00103936196
:1030BC004A4B9B6903F00103BB60BB68484A7B6ABF
:1030CC009B08023352F82330FB607B6A03F0030346
:1030DC009B000F2202FA03F3DB43FA681340FB60F8
:1030EC007B68404A934213D07B683F4A93420DD091
:1030FC007B683E4A934207D07B683D4A934201D19C
:10310C00032306E0042304E0022302E0012300E091
:10311C0000237A6A02F0030292009340FA68134388
:10312C00FB602F497B6A9B080233FA6841F8232025
:10313C003B685B6803F48013002B06D02D4B9A6818
:10314C002C49BB6913438B6006E02A4B9A68BB6918
:10315C00DB43284913408B603B685B6803F4001326
:10316C00002B06D0234BDA682249BB691343CB6092
:10317C0006E0204BDA68BB69DB431E491340CB6089
:10318C003B685B6803F40033002B06D0194B5A687C
:10319C001849BB6913434B6006E0164B5A68BB6970
:1031AC00DB43144913404B603B685B6803F480338A
:1031BC00002B21D00F4B1A680E49BB6913430B60CF
:1031CC0021E000BF0000321000003110000022107E
:1031DC00000021100000121000001110001002401D
:1031EC000000014000080140000C014000100140AB
:1031FC0000140140000401400B4B1A68BB69DB430F
:10320C00094913400B607B6A01337B623B681A6887
:10321C007B6A22FA03F3002B7FF48EAE00BF00BF53
:10322C002C37BD4680BC70470004014080B483B08D
:10323C0000AF78600B467B8013467B707B78002B4D
:10324C0003D07A887B681A6103E07B881A047B6858
:10325C001A6100BF0C37BD4680BC704780B582B088
:10326C0000AF0346FB80084B5A69FB881340002BC8
:10327C0006D0054AFB885361FB881846FEF7F8FC1C
:10328C0000BF0837BD4680BD0004014080B584B046
:10329C0000AF78607B68002B01D101232BE17B68A8
:1032AC0093F83D30DBB2002B06D17B68002283F80B
:1032BC003C207868FEF77EFD7B68242283F83D2055
:1032CC007B681B681A687B681B6822F001021A6015
:1032DC007B681B681A687B681B6842F400421A60A2
:1032EC007B681B681A687B681B6822F400421A60B2
:1032FC0001F018FAF8607B685B68814A934207D842
:10330C00FB68804A934294BF01230023DBB206E0A2
:10331C00FB687D4A934294BF01230023DBB2002B50
:10332C0001D00123E7E0FB68784AA2FB03239B0C46
:10333C00BB607B681B685B6823F03F017B681B6884
:10334C00BA680A435A607B681B681B6A23F03F010A
:10335C007B685B686A4A934202D8BB68013309E018
:10336C00BB684FF4967202FB03F3694AA2FB03237A
:10337C009B0901337A6812680B4313627B681B68E4
:10338C00DB6923F44F4222F0FF027B685B685C49E7
:10339C008B4219D8FB68591E7B685B685B00B1FBDC
:1033AC00F3F3591C40F6FC730B40002B0AD0FB685E
:1033BC00591E7B685B685B00B1FBF3F30133C3F30D
:1033CC000B0351E004234FE07B689B68002B11D169
:1033DC00FB68581E7B6859680B465B000B44B0FBBE
:1033EC00F3F30133C3F30B03002B0CBF01230023B6
:1033FC00DBB212E0FB68581E7B6859680B469B00D9
:10340C000B4499000B44B0FBF3F30133C3F30B03F0
:10341C00002B0CBF01230023DBB2002B01D00123B6
:10342C0022E07B689B68002B0ED1FB68581E7B68E2
:10343C0059680B465B000B44B0FBF3F30133C3F349
:10344C000B0343F400430FE0FB68581E7B6859687C
:10345C000B469B000B4499000B44B0FBF3F3013378
:10346C00C3F30B0343F44043796809681343CB61FE
:10347C007B681B681B6823F0C0017B68DA697B687A
:10348C001B6A1A437B681B680A431A607B681B68BB
:10349C009B6823F4034323F0FF037A6811697A686D
:1034AC00D26811437A6812680B4393607B681B687F
:1034BC00DB6823F0FF017B685A697B689B691A43C0
:1034CC007B681B680A43DA607B681B681A687B6838
:1034DC001B6842F001021A607B6800221A647B6848
:1034EC00202283F83D207B6800221A637B6800222F
:1034FC0083F83E20002318461037BD4680BD00BF20
:10350C00A08601007F841E00FF083D0083DE1B4364
:10351C00D34D621080B58CB002AFF86008461146EE
:10352C001A4603467B810B463B811346FB800023E6
:10353C003B62FEF77BFD7862FB6893F83D30DBB2B3
:10354C00202B40F044827B6A00931923012282498C
:10355C00F86800F02FFB0346002B01D0022337E262
:10356C00FB6893F83C30012B01D1022330E2FB685D
:10357C00012283F83C20FB681B681B6803F00103E5
:10358C00012B07D0FB681B681A68FB681B6842F0AC
:10359C0001021A60FB681B681A68FB681B6822F43E
:1035AC0000621A60FB68222283F83D20FB684022EF
:1035BC0083F83E20FB6800221A64FB683A6B5A625F
:1035CC00FB68BA8E5A85FB685B8D9AB2FB681A85CC
:1035DC00FB68624ADA62F8883A8979897B6A0193D6
:1035EC00BB6B00930346F86800F0FCF90346002B14
:1035FC0001D00123ECE1FB681B8D002B13D10023C0
:10360C00FB61FB681B685B69FB61FB681B689B6962
:10361C00FB61FB69FB681B681A68FB681B6842F45A
:10362C0000721A60C0E1FB681B8D012B1ED1FB6878
:10363C001B681A68FB681B6822F480621A6072B6F9
:10364C0000BF0023BB61FB681B685B69BB61FB6847
:10365C001B689B69BB61BB69FB681B681A68FB68CC
:10366C001B6842F400721A6062B635E0FB681B8D71
:10367C00022B1ED1FB681B681A68FB681B6842F49E
:10368C0000621A6072B600BF00237B61FB681B6886
:10369C005B697B61FB681B689B697B617B69FB6871
:1036AC001B681A68FB681B6822F480621A6062B699
:1036BC0012E0FB681B681A68FB681B6842F48062A6
:1036CC001A6000233B61FB681B685B693B61FB680C
:1036DC001B689B693B613B6966E1FB681B8D032B97
:1036EC0000F21F81FB681B8D012B23D17A6AB96B09
:1036FC00F86800F0C1FB0346002B01D0012367E101
:10370C00FB681B681A69FB685B6AD2B21A70FB68AB
:10371C005B6A5A1CFB685A62FB681B8D013B9AB2B0
:10372C00FB681A85FB685B8D9BB2013B9AB2FB6808
:10373C005A8539E1FB681B8D022B52D17B6A0093B1
:10374C00BB6B00220649F86800F034FA0346002BE4
:10375C0008D001233CE100BF020010000000FFFF75
:10376C000400010072B600BFFB681B681A68FB6896
:10377C001B6842F400721A60FB681B681A69FB68CC
:10378C005B6AD2B21A70FB685B6A5A1CFB685A629D
:10379C00FB681B8D013B9AB2FB681A85FB685B8D3D
:1037AC009BB2013B9AB2FB685A8562B600BFFB68BC
:1037BC001B681A69FB685B6AD2B21A70FB685B6A99
:1037CC005A1CFB685A62FB681B8D013B9AB2FB6862
:1037DC001A85FB685B8D9BB2013B9AB2FB685A85DC
:1037EC00E2E07B6A0093BB6B00227B49F86800F037
:1037FC00E1F90346002B01D00123E9E0FB681B68CB
:10380C001A68FB681B6822F480621A6072B600BFEB
:10381C00FB681B681A69FB685B6AD2B21A70FB689A
:10382C005B6A5A1CFB685A62FB681B8D013B9AB29F
:10383C00FB681A85FB685B8D9BB2013B9AB2FB68F7
:10384C005A85664B1B68DB08654AA2FB03231A0AE0
:10385C0013469B001344DA00D31A3B623B6A013BCC
:10386C003B623B6A002B18D1FB6800221A63FB6891
:10387C00202283F83D20FB68002283F83E20FB6861
:10388C001B6C43F02002FB681A6462B600BFFB6835
:10389C00002283F83C2001239AE0FB681B685B69DB
:1038AC0003F00403042BD9D1FB681B681A68FB686E
:1038BC001B6842F400721A60FB681B681A69FB688B
:1038CC005B6AD2B21A70FB685B6A5A1CFB685A625C
:1038DC00FB681B8D013B9AB2FB681A85FB685B8DFC
:1038EC009BB2013B9AB2FB685A8562B600BFFB687B
:1038FC001B681A69FB685B6AD2B21A70FB685B6A58
:10390C005A1CFB685A62FB681B8D013B9AB2FB6820
:10391C001A85FB685B8D9BB2013B9AB2FB685A859A
:10392C0042E07A6AB96BF86800F0A6FA0346002BFD
:10393C0001D001234CE0FB681B681A69FB685B6AC9
:10394C00D2B21A70FB685B6A5A1CFB685A62FB683D
:10395C001B8D013B9AB2FB681A85FB685B8D9BB291
:10396C00013B9AB2FB685A85FB681B685B6903F0E4
:10397C000403042B18D1FB681B681A69FB685B6A8B
:10398C00D2B21A70FB685B6A5A1CFB685A62FB68FD
:10399C001B8D013B9AB2FB681A85FB685B8D9BB251
:1039AC00013B9AB2FB685A85FB681B8D002B7FF498
:1039BC0094AEFB68202283F83D20FB68002283F83C
:1039CC003E20FB68002283F83C20002300E0022309
:1039DC0018462837BD4680BD040001003404002081
:1039EC0089B5F81480B588B002AFF8600846114666
:1039FC001A4603467B810B463B811346FB80FB68D2
:103A0C001B681A68FB681B6842F480621A60FB68CA
:103A1C001B681A68FB681B6842F480721A607B6A28
:103A2C0000933B6A00224FF00111F86800F0C2F8D5
:103A3C000346002B0DD0FB681B681B6803F48073D6
:103A4C00B3F5807F03D1FB684FF400721A64032333
:103A5C00AAE07B89DBB21A46FB681B6802F0FE0207
:103A6C001A617B6A3A6A5249F86800F01DF90346FC
:103A7C00002B01D0012397E000237B61FB681B68BE
:103A8C005B697B61FB681B689B697B617B697A6AFC
:103A9C00396AF86800F0A8F90346002B0DD0FB68D2
:103AAC001B6C042B07D1FB681B681A68FB681B682E
:103ABC0042F400721A60012376E0FB88012B05D1D9
:103ACC003B89DAB2FB681B681A6121E03B891B0A4F
:103ADC009BB2DAB2FB681B681A617A6A396AF868B9
:103AEC0000F082F90346002B0DD0FB681B6C042BF5
:103AFC0007D1FB681B681A68FB681B6842F40072EC
:103B0C001A60012350E03B89DAB2FB681B681A612A
:103B1C007A6A396AF86800F067F90346002B0DD011
:103B2C00FB681B6C042B07D1FB681B681A68FB68CD
:103B3C001B6842F400721A60012335E0FB681B68B5
:103B4C001A68FB681B6842F480721A607B6A0093E7
:103B5C003B6A00224FF00111F86800F02BF8034685
:103B6C00002B0DD0FB681B681B6803F48073B3F546
:103B7C00807F03D1FB684FF400721A64032313E0B7
:103B8C007B89DBB243F00103DAB2FB681B681A6174
:103B9C007B6A3A6A0649F86800F086F80346002BFF
:103BAC0001D0012300E0002318461837BD4680BD24
:103BBC000200010080B584B000AFF860B9603B60D2
:103BCC001346FB7148E03B68B3F1FF3F44D0FEF76E
:103BDC002DFA0246BB69D31A3A689A4202D33B6863
:103BEC00002B39D1BB681B0CDBB2012B0DD1FB6850
:103BFC001B685B69DA43BB6813409BB2002B0CBF9C
:103C0C0001230023DBB21A460CE0FB681B689B699E
:103C1C00DA43BB6813409BB2002B0CBF012300237B
:103C2C00DBB21A46FB799A4216D1FB6800221A6362
:103C3C00FB68202283F83D20FB68002283F83E209D
:103C4C00FB681B6C43F02002FB681A64FB680022C3
:103C5C0083F83C20012323E0BB681B0CDBB2012B57
:103C6C000DD1FB681B685B69DA43BB6813409BB2E0
:103C7C00002B0CBF01230023DBB21A460CE0FB68BF
:103C8C001B689B69DA43BB6813409BB2002B0CBFCB
:103C9C0001230023DBB21A46FB799A4293D000230E
:103CAC0018461037BD4680BD80B584B000AFF860B3
:103CBC00B9607A603B6071E0FB681B685B6903F478
:103CCC008063B3F5806F23D1FB681B681A68FB68AF
:103CDC001B6842F400721A60FB681B686FF4806208
:103CEC005A61FB6800221A63FB68202283F83D208E
:103CFC00FB68002283F83E20FB681B6C43F0040237
:103D0C00FB681A64FB68002283F83C20012367E0FF
:103D1C007B68B3F1FF3F41D0FEF788F902463B6860
:103D2C00D31A7A689A4202D37B68002B36D1BB68CF
:103D3C001B0CDBB2012B0CD1FB681B685B69DA43F3
:103D4C00BB6813409BB2002B14BF01230023DBB2D2
:103D5C000BE0FB681B689B69DA43BB6813409BB2A2
:103D6C00002B14BF01230023DBB2002B16D0FB6801
:103D7C0000221A63FB68202283F83D20FB68002296
:103D8C0083F83E20FB681B6C43F02002FB681A642E
:103D9C00FB68002283F83C20012321E0BB681B0C4C
:103DAC00DBB2012B0CD1FB681B685B69DA43BB6887
:103DBC0013409BB2002B14BF01230023DBB20BE09A
:103DCC00FB681B689B69DA43BB6813409BB2002BF2
:103DDC0014BF01230023DBB2002B7FF46DAF002353
:103DEC0018461037BD4680BD80B584B000AFF86072
:103DFC00B9607A6034E0F86800F09BF80346002B59
:103E0C0001D0012334E0BB68B3F1FF3F28D0FEF7AB
:103E1C000DF902467B68D31ABA689A4202D3BB6882
:103E2C00002B1DD1FB681B685B6903F08003802BA2
:103E3C0016D0FB6800221A63FB68202283F83D2011
:103E4C00FB68002283F83E20FB681B6C43F02002C9
:103E5C00FB681A64FB68002283F83C20012307E00E
:103E6C00FB681B685B6903F08003802BC3D10023C4
:103E7C0018461037BD4680BD80B584B000AFF860E1
:103E8C00B9607A6049E0FB681B685B6903F010035A
:103E9C00102B19D1FB681B686FF010025A61FB687C
:103EAC0000221A63FB68202283F83D20FB68002265
:103EBC0083F83E20FB681A6CFB681A64FB680022CE
:103ECC0083F83C20012330E0FEF7B0F802467B6813
:103EDC00D31ABA689A4202D3BB68002B1DD1FB6877
:103EEC001B685B6903F04003402B16D0FB68002273
:103EFC001A63FB68202283F83D20FB68002283F8BC
:103F0C003E20FB681B6C43F02002FB681A64FB68C4
:103F1C00002283F83C20012307E0FB681B685B69E7
:103F2C0003F04003402BAED1002318461037BD469A
:103F3C0080BD80B483B000AF78607B681B685B6920
:103F4C0003F48063B3F5806F1BD17B681B686FF43F
:103F5C0080625A617B6800221A637B68202283F896
:103F6C003D207B68002283F83E207B681B6C43F06D
:103F7C0004027B681A647B68002283F83C200123CE
:103F8C0000E0002318460C37BD4680BC704700008B
:103F9C0080B586B000AF78607B68002B01D101231F
:103FAC0072E27B681B6803F00103002B00F0878032
:103FBC00924B5B6803F00C03042B0CD08F4B5B68AB
:103FCC0003F00C03082B12D18C4B5B6803F4803389
:103FDC00B3F5803F0BD1894B1B6803F40033002BE6
:103FEC006CD07B685B68002B68D101234CE27B684A
:103FFC005B68B3F5803F06D1804B1B687F4A43F466
:10400C00803313602EE07B685B68002B0CD17B4BFC
:10401C001B687A4A23F480331360784B1B68774A09
:10402C0023F4802313601DE07B685B68B3F5A02F3D
:10403C000CD1724B1B68714A43F4802313606F4B95
:10404C001B686E4A43F4803313600BE06B4B1B68A8
:10405C006A4A23F480331360684B1B68674A23F465
:10406C00802313607B685B68002B13D0FDF7DEFFA9
:10407C00386108E0FDF7DAFF02463B69D31A642B7E
:10408C0001D9032300E25D4B1B6803F40033002BC2
:10409C00F0D014E0FDF7CAFF386108E0FDF7C6FF69
:1040AC0002463B69D31A642B01D90323ECE1534B31
:1040BC001B6803F40033002BF0D100E000BF7B68D9
:1040CC001B6803F00203002B63D04C4B5B6803F0BE
:1040DC000C03002B0BD0494B5B6803F00C03082B33
:1040EC001CD1464B5B6803F48033002B16D1434B39
:1040FC001B6803F00203002B05D07B681B69012BA6
:10410C0001D00123C0E13D4B1B6823F0F8027B6812
:10411C005B69DB00394913430B603AE07B681B6930
:10412C00002B20D0364B01221A60FDF77FFF38613F
:10413C0008E0FDF77BFF02463B69D31A022B01D93D
:10414C000323A1E12D4B1B6803F00203002BF0D0DD
:10415C002A4B1B6823F0F8027B685B69DB0027495C
:10416C0013430B6015E0264B00221A60FDF75EFF2F
:10417C00386108E0FDF75AFF02463B69D31A022B5F
:10418C0001D9032380E11D4B1B6803F00203002BB4
:10419C00F0D17B681B6803F00803002B3AD07B68D6
:1041AC009B69002B19D0174B01221A60FDF73EFFBB
:1041BC00386108E0FDF73AFF02463B69D31A022B3F
:1041CC0001D9032360E10D4B5B6A03F00203002B62
:1041DC00F0D0012000F0BAFA1CE00A4B00221A6061
:1041EC00FDF724FF38610FE0FDF720FF02463B6925
:1041FC00D31A022B08D9032346E100BF001002405A
:10420C000000424280044242924B5B6A03F002037C
:10421C00002BE9D17B681B6803F00403002B00F032
:10422C00A6800023FB758B4BDB6903F08053002BBE
:10423C000DD1884BDB69874A43F08053D361854BA2
:10424C00DB6903F08053BB60BB680123FB75824BB9
:10425C001B6803F48073002B18D17F4B1B687E4ABC
:10426C0043F480731360FDF7E1FE386108E0FDF75D
:10427C00DDFE02463B69D31A642B01D9032303E10B
:10428C00754B1B6803F48073002BF0D07B68DB68E4
:10429C00012B06D16F4B1B6A6E4A43F0010313626C
:1042AC002DE07B68DB68002B0CD16A4B1B6A694ADA
:1042BC0023F001031362674B1B6A664A23F0040365
:1042CC0013621CE07B68DB68052B0CD1614B1B6A0D
:1042DC00604A43F0040313625E4B1B6A5D4A43F071
:1042EC00010313620BE05B4B1B6A5A4A23F0010378
:1042FC001362584B1B6A574A23F0040313627B6802
:10430C00DB68002B15D0FDF791FE38610AE0FDF754
:10431C008DFE02463B69D31A41F28832934201D991
:10432C000323B1E04B4B1B6A03F00203002BEED0CE
:10433C0014E0FDF77BFE38610AE0FDF777FE0246DC
:10434C003B69D31A41F28832934201D903239BE093
:10435C00404B1B6A03F00203002BEED1FB7D012BBB
:10436C0005D13C4BDB693B4A23F08053D3617B681E
:10437C00DB69002B00F08780364B5B6803F00C0385
:10438C00082B61D07B68DB69022B46D1334B0022B2
:10439C001A60FDF74BFE386108E0FDF747FE024658
:1043AC003B69D31A022B01D903236DE0294B1B68FF
:1043BC0003F00073002BF0D17B681B6AB3F5803FD0
:1043CC0008D1244B5B6823F400327B689B6821493D
:1043DC0013434B601F4B5B6823F474127B68196AA0
:1043EC007B685B6A0B431B4913434B601B4B0122DD
:1043FC001A60FDF71BFE386108E0FDF717FE024658
:10440C003B69D31A022B01D903233DE0114B1B68E6
:10441C0003F00073002BF0D035E0104B00221A6033
:10442C00FDF704FE386108E0FDF700FE02463B692B
:10443C00D31A022B01D9032326E0064B1B6803F089
:10444C000073002BF0D11EE07B68DB69012B07D1D8
:10445C00012319E00010024000700040600042424D
:10446C000B4B5B68FB60FB6803F480327B681B6A58
:10447C009A4206D1FB6803F470127B685B6A9A421D
:10448C0001D0012300E0002318461837BD4680BD3B
:10449C000010024080B584B000AF786039607B6852
:1044AC00002B01D10123D0E06A4B1B6803F00703FA
:1044BC003A689A4210D9674B1B6823F0070265498A
:1044CC003B6813430B60634B1B6803F007033A68AC
:1044DC009A4201D00123B8E07B681B6803F0020309
:1044EC00002B20D07B681B6803F00403002B05D045
:1044FC00594B5B68584A43F4E06353607B681B6814
:10450C0003F00803002B05D0534B5B68524A43F46D
:10451C0060535360504B5B6823F0F0027B689B68E0
:10452C004D4913434B607B681B6803F00103002B60
:10453C0040D07B685B68012B07D1474B1B6803F4A9
:10454C000033002B15D101237FE07B685B68022BC5
:10455C0007D1414B1B6803F00073002B09D10123D9
:10456C0073E03D4B1B6803F00203002B01D10123C8
:10457C006BE0394B5B6823F003027B685B68364960
:10458C0013434B60FDF752FDF8600AE0FDF74EFD5A
:10459C000246FB68D31A41F28832934201D90323B5
:1045AC0053E02D4B5B6803F00C027B685B689B004F
:1045BC009A42EBD1274B1B6803F007033A689A42E7
:1045CC0010D2244B1B6823F0070222493B6813438B
:1045DC000B60204B1B6803F007033A689A4201D02A
:1045EC00012332E07B681B6803F00403002B08D026
:1045FC00194B5B6823F4E0627B68DB681649134354
:10460C004B607B681B6803F00803002B09D0124B2E
:10461C005B6823F460527B681B69DB000E49134313
:10462C004B6000F021F802460B4B5B681B0903F052
:10463C000F030A49CB5C22FA03F3094A1360094BB6
:10464C001B681846FDF7B0FC002318461037BD4612
:10465C0080BD00BF0020024000100240C451000881
:10466C00340400203804002080B487B000AF00234D
:10467C00FB600023BB6000237B6100237B60002375
:10468C003B611E4B5B68FB60FB6803F00C03042B67
:10469C0002D0082B03D027E0194B3B6127E0FB68C5
:1046AC009B0C03F00F03174AD35C7B60FB6803F48D
:1046BC008033002B10D0114B5B685B0C03F00103B3
:1046CC00114AD35CBB607B680D4A03FB02F2BB68EA
:1046DC00B2FBF3F37B6104E07B680C4A02FB03F34F
:1046EC007B617B693B6102E0054B3B6100BF3B6931
:1046FC0018461C37BD4680BC704700BF00100240F6
:10470C0000127A00DC510008EC51000800093D0051
:10471C0080B400AF024B1B681846BD4680BC704786
:10472C003404002080B500AFFFF7F2FF0246054BC2
:10473C005B681B0A03F007030349CB5C22FA03F303
:10474C00184680BD00100240D451000880B485B0DA
:10475C0000AF78600A4B1B680A4AA2FB03235B0A72
:10476C007A6802FB03F3FB6000BFFB685A1EFA6019
:10477C00002BF9D100BF00BF1437BD4680BC704779
:10478C0034040020D34D621080B582B000AF786045
:10479C007B68002B01D1012341E07B6893F83D300D
:1047AC00DBB2002B06D17B68002283F83C207868B2
:1047BC00FDF750FB7B68022283F83D207B681A686A
:1047CC007B6804331946104600F074FA7B680122AA
:1047DC0083F846207B68012283F83E207B68012207
:1047EC0083F83F207B68012283F840207B680122FC
:1047FC0083F841207B68012283F842207B680122E8
:10480C0083F843207B68012283F844207B680122D3
:10481C0083F845207B68012283F83D20002318464D
:10482C000837BD4680BD000080B485B000AF78600D
:10483C007B6893F83D30DBB2012B01D001233AE0C9
:10484C007B68022283F83D207B681B68DA687B68F2
:10485C001B6842F00102DA607B681B68184A9342BD
:10486C000ED07B681B68B3F1804F09D07B681B6846
:10487C00144A934204D07B681B68134A934211D1AB
:10488C007B681B689B6803F00703FB60FB68062BC7
:10489C0010D07B681B681A687B681B6842F00102A9
:1048AC001A6007E07B681B681A687B681B6842F01B
:1048BC0001021A60002318461437BD4680BC7047AD
:1048CC00002C0140000400400008004080B582B07C
:1048DC0000AF78607B681B681B6903F00203022B36
:1048EC0022D17B681B68DB6803F00203022B1BD10F
:1048FC007B681B686FF002021A617B6801221A77D1
:10490C007B681B689B6903F00303002B03D078685A
:10491C0000F0B4F905E0786800F0A7F9786800F0C9
:10492C00B6F97B6800221A777B681B681B6903F059
:10493C000403042B22D17B681B68DB6803F004039F
:10494C00042B1BD17B681B686FF004021A617B6817
:10495C0002221A777B681B689B6903F44073002B57
:10496C0003D0786800F08AF905E0786800F07DF9EA
:10497C00786800F08CF97B6800221A777B681B68DA
:10498C001B6903F00803082B22D17B681B68DB68CA
:10499C0003F00803082B1BD17B681B686FF008021F
:1049AC001A617B6804221A777B681B68DB6903F049
:1049BC000303002B03D0786800F060F905E07868F9
:1049CC0000F053F9786800F062F97B6800221A77DE
:1049DC007B681B681B6903F01003102B22D17B68CA
:1049EC001B68DB6803F01003102B1BD17B681B6862
:1049FC006FF010021A617B6808221A777B681B68BB
:104A0C00DB6903F44073002B03D0786800F036F9AF
:104A1C0005E0786800F029F9786800F038F97B68CF
:104A2C0000221A777B681B681B6903F00103012BBA
:104A3C000ED17B681B68DB6803F00103012B07D1E7
:104A4C007B681B686FF001021A617868FDF7BAF891
:104A5C007B681B681B6903F08003802B0ED17B687D
:104A6C001B68DB6803F08003802B07D17B681B6815
:104A7C006FF080021A61786800F07BFA7B681B6823
:104A8C001B6903F04003402B0ED17B681B68DB686D
:104A9C0003F04003402B07D17B681B686FF040028A
:104AAC001A61786800F0FCF87B681B681B6903F0DE
:104ABC002003202B0ED17B681B68DB6803F02003DE
:104ACC00202B07D17B681B686FF020021A61786875
:104ADC0000F046FA00BF0837BD4680BD80B584B0F3
:104AEC0000AF786039600023FB737B6893F83C302F
:104AFC00012B01D10223B4E07B68012283F83C2016
:104B0C007B68022283F83D207B681B689B68BB6036
:104B1C00BB6823F07703BB60BB6823F47F43BB60A7
:104B2C007B681B68BA689A603B681B68B3F5005FCA
:104B3C003ED0B3F5005F00F28780B3F5805F00F0E4
:104B4C008680B3F5805F7FD8702B1AD0702B7BD802
:104B5C00602B50D0602B77D8502B3CD0502B73D877
:104B6C00402B58D0402B6FD8302B64D0302B6BD8C7
:104B7C00202B60D0202B67D8002B5CD0102B5AD068
:104B8C0062E07B6818683B6899683B685A683B68C8
:104B9C00DB6800F068F97B681B689B68BB60BB68CE
:104BAC0043F07703BB607B681B68BA689A604FE080
:104BBC007B6818683B6899683B685A683B68DB6897
:104BCC0000F051F97B681B689A687B681B6842F49B
:104BDC0080429A603CE07B6818683B6859683B6887
:104BEC00DB681A4600F0C8F87B681B685021184631
:104BFC0000F01FF92CE07B6818683B6859683B682B
:104C0C00DB681A4600F0E6F87B681B6860211846E2
:104C1C0000F00FF91CE07B6818683B6859683B682A
:104C2C00DB681A4600F0A8F87B681B684021184620
:104C3C0000F0FFF80CE07B681A683B681B681946AB
:104C4C00104600F0F6F803E00123FB7300E000BF10
:104C5C007B68012283F83D207B68002283F83C208E
:104C6C00FB7B18461037BD4680BD80B483B000AFC7
:104C7C00786000BF0C37BD4680BC704780B483B0F1
:104C8C0000AF786000BF0C37BD4680BC704780B465
:104C9C0083B000AF786000BF0C37BD4680BC704756
:104CAC0080B483B000AF786000BF0C37BD4680BCC9
:104CBC007047000080B485B000AF786039607B68C5
:104CCC001B68FB607B68294A93420BD07B68B3F16D
:104CDC00804F07D07B68264A934203D07B68254AD5
:104CEC00934208D1FB6823F07003FB603B685B6860
:104CFC00FA681343FB607B681C4A93420BD07B68B9
:104D0C00B3F1804F07D07B68194A934203D07B687C
:104D1C00184A934208D1FB6823F44073FB603B684C
:104D2C00DB68FA681343FB60FB6823F080023B6886
:104D3C005B691343FB607B68FA681A603B689A688E
:104D4C007B68DA623B681A687B689A627B68074A00
:104D5C00934203D13B681A697B681A637B68012212
:104D6C005A6100BF1437BD4680BC7047002C01400F
:104D7C00000400400008004080B487B000AFF86029
:104D8C00B9607A60FB681B6A7B61FB681B6A23F065
:104D9C000102FB681A62FB689B693B613B6923F06B
:104DAC00F0033B617B681B013A6913433B617B69F0
:104DBC0023F00A037B617A69BB6813437B61FB6850
:104DCC003A699A61FB687A691A6200BF1C37BD4662
:104DDC0080BC704780B487B000AFF860B9607A606F
:104DEC00FB681B6A7B61FB681B6A23F01002FB6883
:104DFC001A62FB689B693B613B6923F470433B611E
:104E0C007B681B033A6913433B617B6923F0A00366
:104E1C007B61BB681B017A6913437B61FB683A6950
:104E2C009A61FB687A691A6200BF1C37BD4680BC68
:104E3C00704780B485B000AF786039607B689B6840
:104E4C00FB60FB6823F07003FB603A68FB6813435C
:104E5C0043F00703FB607B68FA689A6000BF143765
:104E6C00BD4680BC704780B487B000AFF860B960B5
:104E7C007A603B60FB689B687B617B6923F47F43B2
:104E8C007B613B681A027B681A43BB6813437A69DF
:104E9C0013437B61FB687A699A6000BF1C37BD467F
:104EAC0080BC704780B485B000AF786039607B6897
:104EBC0093F83C30012B01D1022346E07B680122A0
:104ECC0083F83C207B68022283F83D207B681B68BA
:104EDC005B68FB607B681B689B68BB60FB6823F0AE
:104EEC007003FB603B681B68FA681343FB607B68CC
:104EFC001B68FA685A607B681B68164A93420ED08E
:104F0C007B681B68B3F1804F09D07B681B68124A21
:104F1C00934204D07B681B68104A93420CD1BB6847
:104F2C0023F08003BB603B685B68BA681343BB60CB
:104F3C007B681B68BA689A607B68012283F83D2005
:104F4C007B68002283F83C20002318461437BD46AA
:104F5C0080BC7047002C0140000400400008004059
:104F6C0080B483B000AF786000BF0C37BD4680BC06
:104F7C00704780B483B000AF786000BF0C37BD467B
:104F8C0080BC704703460244934200D1704703F83B
:104F9C00011BF9E770B500260C4D0D4C641BA410D9
:104FAC00A64209D100F01AF800260A4D0A4C641BDF
:104FBC00A410A64205D170BD55F8043B98470136A4
:104FCC00EEE755F8043B98470136F2E7F05100083C
:104FDC00F0510008F0510008F4510008F8B500BF7A
:104FEC00F8BC08BC9E467047F8B500BFF8BC08BCBE
:044FFC009E46704716
:105000007C0000005600000041000000430000004A
:10501000250000006B6D000042434300594F5520AE
:10502000534156454400000052730000504C454126
:1050300053452020205745415200000048454C4D23
:1050400045540000680000006D0000002313086450
:10505000620000003E5149453E0000427F40000092
:105060004261514946002141454B31001814127FDD
:1050700010002745454539003C4A49493000017137
:1050800009050300364949493600064949291E00E9
:105090007C1211127C7F494949363E414141227FB1
:1050A0004141413E7F494949417F090909013E414A
:1050B0004151737F0808087F00417F410020404133
:1050C0003F017F081422417F404040407F021C0284
:1050D0007F7F0408107F3E4141413E7F0909090658
:1050E0003E4151215E7F091929462649494932032B
:1050F000017F01033F4040403F1F2040201F3F40B1
:1051000038403F6314081463030478040361514971
:10511000454320545478407F28444438384444441C
:1051200028384444287F385454541800087E090213
:1051300018A4A49C787F0804047800447D400020D3
:1051400040403D007F1028440000417F40007C0427
:105150007804787C080404783844444438FC1824E3
:10516000241818242418FC7C0804040848545454B7
:105170002404043F44243C4040207C1C2040201C4C
:105180003C4030403C44281028444C9090907C4453
:1051900064544C444020100804007E5B5B7E004158
:1051A00036080000000000000000000000000000C1
:1051B00000000000000000000000000000000000EF
:1051C00000000000000000000000000001020304D5
:1051D0000607080900000000010203040203040599
:1051E000060708090A0B0C0D0E0F10100102000033
:0451F0003101000881
:0451F4000D010008A1
:1051F80000000000000000000000000000000000A7
:105208000000000000000000000000000000000096
:105218000000000000000000008080C0E0E0F0F026
:10522800F8F8FC7C7C3E3E3E3E3E1EFFFFFFFFFF43
:10523800FE3E3E3E3E3E7C7C7CF8F8F0F0E0E0C06E
:105248008080000000000000000000000000000056
:105258000000000000000000000000000000000046
:105268000000000000000000000000000000000036
:105278000000000000000000000000000000000026
:105288000000000000000000000000000000000016
:10529800000080E0F0F8FCFE7F3F1F0F07030301CA
:1052A80000000000000000000000C0FFFFFFFFFF3B
:1052B800FFC0000000000000000000010103070F0C
:1052C8001F3F7FFEFCF8F0E08000000000000000B7
:1052D80000000000000000000000000000000000C6
:1052E80000000000000000000000000000000000B6
:1052F80000000000000000000000000000000000A6
:10530800000000000000000000000000000000E0B5
:10531800F8FEFFFF1F07010000000000000000006A
:105328000000000000000080E0FCFFFFFF1F3FFFBF
:10533800FFFFFCE08000000000000000000000000B
:105348000000000001071FFFFFFEFCE00000000056
:105358000000000000000000000000000000000045
:105368000000000000000000000000000000000035
:105378000000000000000000000000000000000025
:1053880000000000000000000000000000E0FFFF37
:10539800FFFF1F00000000000000000000000000E8
:1053A800000080C0F0F8FEFF7F3F0F030000000000
:1053B800030F3F7FFFFEF8F0C080000000000000F0
:1053C80000000000000000000FFFFFFFFFE00000EA
:1053D80000000000000000000000000000000000C5
:1053E80000000000000000000000000000000000B5
:1053F80000000000000000000000000000000000A5
:105408000000000000000000000000000007FFFF8F
:10541800FFFFF8000000000000000080C0E0F0F886
:10542800FCFEFFBF9F8F83C1C0C0C0C0C0C0C0C04A
:10543800C0C0C0C0C1C38F9FBFFFFEFCF8F0E0C072
:105448008000000000000000F0FFFFFFFF070000E1
:105458000000000000000000000000000000000044
:105468000000000000000000000000000000000034
:105478000000000000000000000000000000000024
:10548800000000000000000000000000000000070D
:105498001F7FFFFFF8F8F8FCFE7E7F3F3F3F1F1F8E
:1054A8001F0F0F0F0F07070707070707070707074C
:1054B800070707070707070F0F0F0F1F1F1F1F3FBC
:1054C8003F7F7EFEFCF8F8FFFFFF3F07000000006B
:1054D80000000000000000000000000000000000C4
:1054E80000000000000000000000000000000000B4
:1054F80000000000000000000000000000000000A4
:105508000000000000000000000000000000000093
:10551800000001070F1F3F7FFEFCF8F0E0C0C080CD
:105528000000000000000000000000000000000073
:1055380000000000000000000000008080C0E0F0D3
:10554800F8FCFE7F3F1F0F0701000000000000006D
:105558000000000000000000000000000000000043
:105568000000000000000000000000000000000033
:105578000000000000000000000000000000000023
:105588000000000000000000000000000000000013
:1055980000000000000000000001010307070F0FD2
:1055A8001F1F3F3E3E7C7C7C7C7C78F8F8F8F8F83E
:1055B800787C7C7C7C7C3E3E3E1F1F0F0F070703D8
:1055C80001010000000000000000000000000000D1
:1055D80000000000000000000000000000000000C3
:1055E80000000000000000000000000000000000B3
:1055F8000100B801D007000040019018400191183F
:1056080040019218400193184001941840019518E0
:105618004001961840019718400198184001521807
:10562800400150180024F4001000000001000000A0
:0400000508001F3D93
:00000001FF
