:020000040800F2
:1000000000500020E9330008553300085B33000836
:1000100061330008673300086D33000800000000FA
:100020000000000000000000000000007333000822
:100030007F330008000000008B330008973300086E
:1000400031340008313400083134000831340008FC
:1000500031340008313400083134000831340008EC
:1000600031340008313400083134000831340008DC
:1000700031340008313400083134000831340008CC
:1000800031340008313400083134000831340008BC
:10009000A533000831340008313400083134000839
:1000A000313400083134000831340008313400089C
:1000B000B933000831340008313400083134000805
:1000C000313400083134000831340008313400087C
:1000D000313400083134000831340008313400086C
:1000E000CD3300083134000831340008000000002E
:1000F0000000000000000000000000000000000000
:0C01000000000000000000005FF808F1A3
:1001100010B5054C237833B9044B13B10448AFF341
:1001200000800123237010BDD807002000000000CC
:10013000D868000808B5034B1BB103490348AFF367
:10014000008008BD00000000DC070020D86800081F
:1001500070B54FF0FF0C4CF4E06C1CEA11541DBF5D
:100160001CEA135594EA0C0F95EA0C0F00F0DEF828
:100170002C4481EA030621EA4C5123EA4C5350EA0D
:10018000013518BF52EA033541F4801143F480135E
:1001900038D0A0FB02CE4FF00005E1FB02E506F0EF
:1001A0000042E0FB03E54FF00006E1FB03569CF044
:1001B000000F18BF4EF0010EA4F1FF04B6F5007F4A
:1001C00064F5407404D25FEA4E0E6D4146EB0606BC
:1001D00042EAC62141EA55514FEAC52040EA5E5045
:1001E0004FEACE2EB4F1FD0C88BFBCF5E06F1ED8EF
:1001F000BEF1004F08BF5FEA500E50F1000041EB26
:10020000045170BD06F0004646EA010140EA0200D2
:1002100081EA0301B4EB5C04C2BFD4EB0C0541EAF4
:10022000045170BD41F480114FF0000E013C00F309
:10023000AB8014F1360FDEBF002001F0004170BD2D
:10024000C4F10004203C35DA0C341BDC04F1140446
:10025000C4F1200500FA05F320FA04F001FA05F2D2
:1002600040EA020001F0004221F0004110EBD3709F
:1002700021FA04F642EB06015EEA430E08BF20EACB
:10028000D37070BDC4F10C04C4F1200500FA04F36E
:1002900020FA05F001FA04F240EA020001F0004100
:1002A00010EBD37041F100015EEA430E08BF20EA73
:1002B000D37070BDC4F1200500FA05F24EEA020EBB
:1002C00020FA04F301FA05F243EA020321FA04F0EA
:1002D00001F0004121FA04F220EA020000EBD370A1
:1002E0005EEA430E08BF20EAD37070BD94F0000FA1
:1002F0000FD101F00046400041EB010111F4801FD5
:1003000008BF013CF7D041EA060195F0000F18BF85
:10031000704703F00046520043EB030313F4801FC1
:1003200008BF013DF7D043EA0603704794EA0C0F7B
:100330000CEA135518BF95EA0C0F0CD050EA410691
:1003400018BF52EA4306D1D181EA030101F000410E
:100350004FF0000070BD50EA410606BF1046194636
:1003600052EA430619D094EA0C0F02D150EA013642
:1003700013D195EA0C0F05D152EA03361CBF104683
:1003800019460AD181EA030101F0004141F0FE4122
:1003900041F470014FF0000070BD41F0FE4141F4A6
:1003A000780170BD81F0004102E000BF83F000439E
:1003B00030B54FEA41044FEA430594EA050F08BF00
:1003C00090EA020F1FBF54EA000C55EA020C7FEAC4
:1003D000645C7FEA655C00F0E2804FEA5454D4EB41
:1003E0005555B8BF6D420CDD2C4480EA020281EA0B
:1003F000030382EA000083EA010180EA020281EA43
:100400000303362D88BF30BD11F0004F4FEA013194
:100410004FF4801C4CEA113102D0404261EB4101A3
:1004200013F0004F4FEA03334CEA133302D0524229
:1004300063EB430394EA050F00F0A780A4F10104E5
:10044000D5F1200E0DDB02FA0EFC22FA05F280181F
:1004500041F1000103FA0EF2801843FA05F3594105
:100460000EE0A5F120050EF1200E012A03FA0EFC84
:1004700028BF4CF0020C43FA05F3C01851EBE371AE
:1004800001F0004507D54FF0000EDCF1000C7EEBCB
:1004900000006EEB0101B1F5801F1BD3B1F5001F09
:1004A0000CD349085FEA30004FEA3C0C04F1010428
:1004B0004FEA445212F5800F80F09A80BCF1004F51
:1004C00008BF5FEA500C50F1000041EB045141EAD3
:1004D000050130BD5FEA4C0C404141EB0101013C9C
:1004E00028BFB1F5801FE9D291F0000F04BF01468B
:1004F0000020B1FA81F308BF2033A3F10B03B3F15D
:1005000020020CDA0C3208DD02F1140CC2F10C02EC
:1005100001FA0CF021FA02F10CE002F11402D8BF4A
:10052000C2F1200C01FA02F120FA0CFCDCBF41EA16
:100530000C019040E41AA2BF01EB0451294330BDE5
:100540006FEA04041F3C1CDA0C340EDC04F11404C2
:10055000C4F1200220FA04F001FA02F340EA030099
:1005600021FA04F345EA030130BDC4F10C04C4F1DF
:10057000200220FA02F001FA04F340EA03002946BF
:1005800030BD21FA04F0294630BD94F0000F83F409
:10059000801306BF81F480110134013D4EE77FEAEC
:1005A000645C18BF7FEA655C29D094EA050F08BF38
:1005B00090EA020F05D054EA000C04BF1946104619
:1005C00030BD91EA030F1EBF0021002030BD5FEA5D
:1005D000545C05D14000494128BF41F0004130BD85
:1005E00014F580043CBF01F5801130BD01F00045D9
:1005F00045F0FE4141F470014FF0000030BD7FEA4C
:10060000645C1ABF194610467FEA655C1CBF0B4646
:10061000024650EA013406BF52EA033591EA030F5D
:1006200041F4002130BD00BF90F0000F04BF002155
:10063000704730B54FF4806404F132044FF0000588
:100640004FF0000150E700BF90F0000F04BF002101
:10065000704730B54FF4806404F1320410F0004567
:1006600048BF40424FF000013EE700BF42004FEA62
:10067000E2014FEA31014FEA02701FBF12F07F43DF
:1006800093F07F4F81F06051704732F07F4208BF96
:10069000704793F07F4F04BF41F40021704730B59D
:1006A0004FF4607401F0004521F000411CE700BFE9
:1006B00050EA010208BF704730B54FF000050AE06C
:1006C00050EA010208BF704730B511F0004502D56D
:1006D000404261EB41014FF4806404F132045FEA6F
:1006E000915C3FF4D8AE4FF003025FEADC0C18BF18
:1006F00003325FEADC0C18BF033202EBDC02C2F10A
:10070000200300FA03FC20FA02F001FA03FE40EA9B
:100710000E0021FA02F11444BDE600BF4A0011D2D6
:1007200012F5001211D20DD56FF47873B3EB62524B
:100730000ED44FEAC12343F0004343EA505323FA57
:1007400002F070474FF00000704750EA013002D1CC
:100750004FF0FF3070474FF00000704780B582B017
:1007600000AF0346FB71134B5B69124A43F0010370
:100770005361104B5B690F4A43F480635361FB790B
:10078000184601F0ABFB0B4BDB680A4A43F002034F
:10079000D360084B5B69074A43F002035361054B82
:1007A000DB68044A43F48063D36000BF0837BD466A
:1007B00080BD00BF000C014080B582B000AF0023B7
:1007C0007B603FE07B68DBB2503BDBB21846FFF753
:1007D000C5FF00233B602FE03B68DBB2184600F00A
:1007E0007FF81C4BDB681B4A43F00103D360194BB5
:1007F000DB68184A43F00203D360164B5B69154A65
:1008000043F480635361144A7B68DB011A443B68FC
:1008100013441B78184601F061FB0E4BDB680D4A50
:1008200043F48063D3600B4B5B690A4A43F00203D5
:1008300053613B6801333B603B687F2BCCDD7B68B9
:1008400001337B607B68072BBCDD00BF00BF08372E
:10085000BD4680BD000C0140F40B002080B500AF08
:100860001E4B5B691D4A43F48063536100220421DF
:100870001A4803F068FF4FF4FA7002F03DFE0122BF
:100880000421164803F05FFFA220FFF767FFA020B6
:10089000FFF764FFC020FFF761FF4020FFF75EFF16
:1008A0002C20FFF75BFF322002F026FE2E20FFF700
:1008B00055FF322002F020FE2F20FFF74FFF32209D
:1008C00002F01AFE2420FFF749FFAF20FFF746FF92
:1008D000A420FFF743FF00BF80BD00BF000C014014
:1008E00080B582B000AF0346FB71FB791B09DBB218
:1008F00043F01003DBB21846FFF730FFFB7903F03B
:100900000F03DBB21846FFF729FF00BF0837BD46CB
:1009100080BD000080B485B000AF0023FB601FE005
:100920000023FB727F237B6014E0FB7A5A1CFA726F
:100930001846104AFB68DB011A447B681344197897
:100940000D4AFB68DB01134403440A461A707B68B6
:10095000013B7B607B68002BE7DAFB680133FB60BF
:10096000FB68072BDCDD00BF00BF1437BD4680BC31
:10097000704700BFF4070020F40B0020B0B584B02E
:1009800000AF0346FB7100237B73FB79504AA2FB47
:1009900003235B093B73FB794D4AA2FB0312520907
:1009A000642101FB02F29B1ADBB24A4AA2FB032339
:1009B000DB08FB72FB79464AA2FB03125209642151
:1009C00001FB02F29B1ADAB2424BA3FB0213D908D5
:1009D0000B469B000B445B00D31ABB7200237B7356
:1009E0000023BB7320E00023FB7317E0B87BFB7B85
:1009F00003F12E04FA7A797B374D13469B0013449A
:100A0000DB012B440B441B781A46214600F05AFBAD
:100A10007B7B01337B73FB7B0133FB73FB7B0F2BF6
:100A2000E4D9BB7B0133BB73BB7B032BDBD9002336
:100A30007B730023BB7320E00023FB7317E0B87BBC
:100A4000FB7B03F14004BA7A797B234D13469B006C
:100A50001344DB012B440B441B781A46214600F05B
:100A600031FB7B7B01337B73FB7B0133FB73FB7BB4
:100A70000F2BE4D9BB7B0133BB73BB7B032BDBD9CF
:100A800000237B730023BB7319E00023FB7310E08A
:100A9000BB7B181DFB7B03F134017B7B0F4AD35CCE
:100AA0001A4600F00FFB7B7B01337B73FB7B01332A
:100AB000FB73FB7B142BEBD9BB7B0133BB73BB7B81
:100AC000002BE2D000BF00BF1037BD46B0BD00BF55
:100AD0001F85EB51CDCCCCCCDC6A00085C860008CD
:100AE000B0B584B000AF0346FB710023FB73FB7904
:100AF000002B1DD10323BB7316E000237B730DE095
:100B0000B87B797BFB7B5A1CFA731A461D4B9B5CA6
:100B10001A4600F0D7FA7B7B01337B737B7B1C2B5F
:100B2000EED9BB7B0133BB73BB7B032BE5D925E03F
:100B300003233B731FE00023FB7216E0387BF97A36
:100B4000FB795A1EFB7B5C1CFC731D460E4C134646
:100B50005B001344DA00D21AA3182B441B781A4600
:100B600000F0B0FAFB7A0133FB72FB7A142BE5D963
:100B70003B7B01333B733B7B032BDCD900BF10373E
:100B8000BD46B0BDBC6A00087C6A0008B0B584B040
:100B900000AF0346FB710023FB730623BB731CE00D
:100BA0001A237B7313E0B87B797BFA79FB7B5C1C9F
:100BB000FC731D460D4C9A2302FB03F323442B4484
:100BC0001B781A4600F07EFA7B7B01337B737B7BBC
:100BD000662BE8D9BB7B0133BB73BB7B072BDFD90B
:100BE0000023FB7300BF1037BD46B0BD00040020DA
:100BF00080B582B000AF0023FB712023BB710DE0F4
:100C0000B979FB795A1CFA711A46084B9B5C1A4653
:100C1000052000F057FABB790133BB71BB792F2B4C
:100C2000EED900BF00BF0837BD4680BD74860008FE
:100C300080B582B000AF0023FB715323BB710DE080
:100C4000B979FB795A1CFA711A46084B9B5C1A4613
:100C5000002000F037FABB790133BB71BB79612BFF
:100C6000EED900BF00BF0837BD4680BD84860008AE
:100C700080B582B000AF0023FB712423BB710DE06F
:100C8000B979FB795A1CFA711A46084B9B5C1A46D3
:100C9000052000F017FABB790133BB71BB79322B09
:100CA000EED900BF00BF0837BD4680BD948600085E
:100CB00090B585B000AF03463A60FB710B46BB713F
:100CC0000123FB73FB7963F04F03DBB21846FFF798
:100CD00045FDBB791846FFF703FEB1E00023BB607A
:100CE0009AE03B681B78402B1FD93B681B785A2B36
:100CF0001BD83B681A78574B1A70F879BB795A1C85
:100D0000BA711C46534B1B78A3F14102524913465A
:100D10009B001344CA18BB6813441B785B001A4637
:100D2000214600F0CFF90123FB733B681B78602B51
:100D30001FD93B681B787C2B1BD83B681A78454B26
:100D40001A70F879BB795A1CBA711C46414B1B7852
:100D5000A3F14702404913469B001344CA18BB68DD
:100D600013441B785B001A46214600F0ABF90023C0
:100D7000FB733B681B782F2B20D93B681B78392BE2
:100D80001CD83B681A78334B1A70F879BB795A1C17
:100D9000BA711C462F4B1B78A3F130022F49134622
:100DA0005B0013445B00CA18BB6813441B785B00EC
:100DB0001A46214600F086F90123FB733B681B7835
:100DC0002E2B08D1F879BB795A1CBA7140221946EA
:100DD00000F078F924E03B681B78202B08D1F879E3
:100DE000BB795A1CBA710022194600F06BF917E062
:100DF0003B681B78252B0CD1F879BB795A1CBA714A
:100E00001946174ABB6813441B785B001A4600F06A
:100E100059F9BB680133BB60BB68042B7FF761AF36
:100E20003B6801333B60FB7B002B09D0F879BB7931
:100E30005A1CBA710022194600F044F90023FB73D2
:100E40003B681B78002B7FF449AF00BF00BF14370D
:100E5000BD4690BDF40F0020486900080C690008E9
:100E60000469000880B485B000AF0346FB710B46EF
:100E7000BB7113467B710023FB730DE0FA79BB79DC
:100E8000591CB97118460949D3010B440344002287
:100E90001A70FB7B0133FB73FA7B7B799A42EDD9A5
:100EA00000BF00BF1437BD4680BC7047F407002068
:100EB00090B585B000AF0346FB710B46BB7113467E
:100EC0007B71FB7963F04F03DBB21846FFF746FCFA
:100ED000BB791846FFF704FD0023FB6016E0F879A4
:100EE000BB795A1CBA711C467A79104913465B00CB
:100EF00013445B00CA18FB6813441B785B001A4656
:100F0000214600F0DFF8FB680133FB60FB68042B2F
:100F1000E5DDF879BB795A1CBA710022194600F058
:100F2000D1F800BF1437BD4690BD00BF0C69000862
:100F300090B58BB000AF0346FB710B46BB711346F7
:100F4000BB80002387F82730BB883B62FB7963F0C6
:100F50004F03DBB21846FFF701FCBB791846FFF7D9
:100F6000BFFC0023FB600CE097F82730013387F8C3
:100F700027303B6A344A82FB03129210DB17D31AE4
:100F80003B623B6A002BEFDC97F82730013BDBB27A
:100F9000FB774EE00123BB610023FB7508E0BA69D3
:100FA00013469B0013445B00BB61FB7D0133FB7563
:100FB000FA7D97F91F309A42F1DBBA88BB6992FB40
:100FC000F3F2214B83FB02139910D317C91A0B4676
:100FD0009B000B445B00D11A0B46BB7200233B61A4
:100FE00016E0F879BB795A1CBA711C46BA7A1749CF
:100FF00013465B0013445B00CA183B6913441B781B
:101000005B001A46214600F05DF83B6901333B6105
:101010003B69042BE5DDF879BB795A1CBA710022D3
:10102000194600F04FF897F91F30DBB2013BDBB2F5
:10103000FB7797F91F30002BACDA0023FB7200BF5F
:101040002C37BD4690BD00BF676666660C69000818
:1010500080B582B000AF0023FB8000237B7117E0D6
:1010600000233B710DE078793979FB885A1CFA80AE
:101070001A46134B9B5C1A4600F024F83B79013367
:101080003B7197F90430002BEDDA7B7901337B71EA
:101090007B79072BE4D9A220FFF760FBA020FFF7A4
:1010A0005DFBC020FFF75AFB4020FFF757FBFFF71F
:1010B00031FCFFF781FB00BF0837BD4680BD00BF94
:1010C0000000002080B483B000AF0346FB710B46E4
:1010D000BB7113467B71FA79BB790549D2010A4489
:1010E00013447A791A7000BF0C37BD4680BC704734
:1010F000F407002080B582B000AF0023FB7114E03C
:101100000023BB710AE0FB790633DBB2B979042214
:101110001846FFF7D7FFBB790133BB7197F906304B
:10112000002BF0DAFB790133FB71FB79002BE7D060
:1011300000BF00BF0837BD4680BD000080B483B04B
:1011400000AF78607B68784A934200F021847B6826
:10115000754A934200F2B4867B68744A934200F069
:101160009D817B68714A934200F2AA867B68704A2F
:10117000934200F071817B686D4A934200F2A08631
:101180007B686C4A934200F09D867B68694A934273
:1011900000F296867B68684A934200F0DF807B68A5
:1011A000654A934200F28C867B68644A934200F061
:1011B00096807B68614A934200F282867B68604A2F
:1011C00093427AD07B685E4A934200F279867B68CC
:1011D0005C4A93424FD07B685A4A934200F2708631
:1011E0007B68594A934210D07B68574A934200F279
:1011F00067867B68554A934200F052867B68544A62
:10120000934200F03F8600F05BBE524B1B781B02FE
:101210001AB2504B5B781BB213431BB29AB24E4BBF
:101220001A804C4B9B781B021AB24A4BDB781BB2DC
:1012300013431BB29AB2484B5A80464B1B791B0290
:101240001AB2444B5B791BB213431BB29BB2A3F59A
:10125000EA43303B9AB2404B9A803E4B9B791B024B
:101260001AB23C4BDB791BB213431BB29AB23A4B16
:101270001A8100F028BE374B1B781B021AB2354B7F
:101280005B781BB213431BB29AB2334B5A81314B7A
:101290009A78314B1A732F4BDB781B021AB22D4B05
:1012A0001B791BB213431BB29AB22B4BDA81294B29
:1012B0005A79294B1A7400F006BE264B1A78264B31
:1012C0005A74244B5A78244B9A74224B9A78224BA6
:1012D000DA74204BDA78204B1A7500F0F4BD1D4B00
:1012E0001A781D4B5A751B4B5A781B4B9A75194B24
:1012F0009A78194BDA75174BDA78174B1A76154B23
:101300001B791A46134B5B791B021A43114B9B79CD
:101310001B041A430F4BDB791B0613431A460E4B73
:10132000DA6100F0D0BD00BF014098180140971865
:1013300001409618014095180140941801409318F7
:101340000140921801409118014090180140501836
:1013500001405218F80F0020001000204D4B1A7861
:101360004D4B83F820204B4B5A784B4B83F8212070
:10137000484B9A78484B83F82220464BDA78464B04
:1013800083F82320434B1B7903F00103D9B2424A6F
:1013900092F8243061F3000382F824303D4B1B792E
:1013A0005B1003F00103D9B23B4A92F8243061F399
:1013B000410382F82430374B1B799B1003F0010363
:1013C000D9B2354A92F8243061F3820382F824308E
:1013D000304B1B79DB1003F00103D9B22E4A92F88F
:1013E000243061F3C30382F824302A4B1B791B118C
:1013F00003F00103D9B2284A92F8243061F30413B0
:1014000082F82430234B1B795B1103F00103D9B21E
:10141000214A92F8243061F3451382F824301D4BA1
:101420001B799B1103F00103D9B21B4A92F82430B7
:1014300061F3861382F82430164B1B79DB09DBB28B
:1014400003F00103D9B2144A92F8243061F3C713B0
:1014500082F8243000F037BD0E4B5B78283BDAB2BF
:101460000D4B83F82A200B4B9B78283BDAB20A4BB2
:1014700083F82B20074BDB78283BDAB2064B83F846
:101480002C20044B1B79283BDAB2034B83F82D2028
:1014900000F019BDF80F002000100020C04B1B7891
:1014A00003F00103D9B2BF4A92F82E3061F3000372
:1014B00082F82E30BA4B1B785B1003F00103D9B2CF
:1014C000B84A92F82E3061F3410382F82E30B44BC3
:1014D0001B789B1003F00103D9B2B24A92F82E3068
:1014E00061F3820382F82E30AD4B1B78DB1003F0E2
:1014F0000103D9B2AB4A92F82E3061F3C30382F8EC
:101500002E30A74B1B781B1103F00103D9B2A54A5B
:1015100092F82E3061F3041382F82E30A04B1B7822
:101520005B1103F00103D9B29E4A92F82E3061F3A9
:10153000451382F82E309A4B1B789B1103F0010360
:10154000D9B2984A92F82E3061F3861382F82E3081
:10155000934B1B78DB09DBB203F00103D9B2914A4C
:1015600092F82E3061F3C71382F82E308C4B5B78E3
:1015700003F00103D9B28B4A92F82F3061F30003D4
:1015800082F82F30864B5B785B1003F00103D9B2F1
:10159000844A92F82F3061F3410382F82F30804B58
:1015A0005B789B1003F00103D9B27E4A92F82F308A
:1015B00061F3820382F82F30794B5B78DB1003F004
:1015C0000103D9B2774A92F82F3061F3C30382F84E
:1015D0002F30734B5B781B1103F00103D9B2714AB2
:1015E00092F82F3061F3041382F82F306C4B5B7844
:1015F0005B1103F00103D9B26A4A92F82F3061F30C
:10160000451382F82F30664B5B789B1103F0010382
:10161000D9B2644A92F82F3061F3861382F82F30E2
:101620005F4B5B78DB09DBB203F00103D9B25D4AA3
:1016300092F82F3061F3C71382F82F30584B9B7804
:1016400003F00103D9B2574A92F8303061F3000336
:1016500082F83030524B9B785B1003F00103D9B213
:10166000504A92F8303061F3410382F830304C4BED
:101670009B789B1003F00103D9B24A4A92F83030AC
:1016800061F3820382F83030454B9B78DB1003F026
:101690000103D9B2434A92F8303061F3C30382F8B0
:1016A00030303F4B9B781B1103F00103D9B23D4A08
:1016B00092F8303061F3041382F83030384B9B7865
:1016C0005B1103F00103D9B2364A92F8303061F36E
:1016D000451382F83030324B9B789B1103F00103A5
:1016E000D9B2304A92F8303061F3861382F8303044
:1016F0002B4B9B78DB09DBB203F00103D9B2294AFB
:1017000092F8303061F3C71382F83030244BDB7825
:1017100003F00103D9B2234A92F8313061F3000398
:1017200082F831301E4BDB785B1003F00103D9B235
:101730001C4A92F8313061F3410382F83130184B82
:10174000DB789B1003F00103D9B2164A92F83130CE
:1017500061F3820382F83130114BDB78DB1003F048
:101760000103D9B20F4A92F8313061F3C30382F812
:1017700031300B4BDB781B1103F00103D9B2094A5E
:1017800092F8313061F3041382F83130044BDB7886
:101790005B1103F00103D9B2024A92F8313003E041
:1017A000F80F00200010002061F3451382F831305B
:1017B000754BDB789B1103F00103D9B2734A92F8A1
:1017C000313061F3861382F831306F4BDB78DB09FF
:1017D000DBB203F00103D9B26C4A92F8313061F305
:1017E000C71382F83130684B1B7903F00103D9B27B
:1017F000664A92F8323061F3000382F83230624B6D
:101800001B795B1003F00103D9B2604A92F83230C1
:1018100061F3410382F832305B4B1B799B1003F07C
:101820000103D9B2594A92F8323061F3820382F847
:101830003230554B1B79DB1003F00103D9B2534A08
:1018400092F8323061F3C30382F832304E4B1B7989
:101850001B1103F00103D9B24C4A92F8323061F304
:10186000041382F83230484B1B795B1103F00103FB
:10187000D9B2464A92F8323061F3451382F83230D9
:10188000414B1B799B1103F00103D9B23F4A92F8F7
:10189000323061F3861382F832303B4B1B79DB091F
:1018A000DBB203F00103D9B2384A92F8323061F367
:1018B000C71382F83230344B5B7903F00103D9B29D
:1018C000324A92F8333061F3000382F833302E4B02
:1018D0005B795B1003F00103D9B22C4A92F83330E4
:1018E00061F3410382F83330274B5B799B1003F09F
:1018F0000103D9B2254A92F8333061F3820382F8AA
:101900003330214B5B79DB1003F00103D9B21F4A5E
:1019100092F8333061F3C30382F833301A4B5B79AA
:101920001B1103F00103D9B2184A92F8333061F366
:10193000041382F83330144B5B795B1103F001031D
:10194000D9B2124A92F8333061F3451382F833303A
:101950000D4B5B799B1103F00103D9B20B4A92F84E
:10196000333061F3861382F83330074B5B79DB0940
:10197000DBB203F00103D9B2044A92F8333061F3C9
:10198000C71382F833309EE2F80F002000100020C9
:10199000C04B1B7803F00103D9B2BF4A92F8343030
:1019A00061F3000382F83430BA4B1B785B1003F00C
:1019B0000103D9B2B84A92F8343061F3410382F896
:1019C0003430B44B1B789B1003F00103D9B2B24AF8
:1019D00092F8343061F3820382F83430AD4B1B78D7
:1019E000DB1003F00103D9B2AB4A92F8343061F353
:1019F000C30382F83430A74B1B781B1103F001039B
:101A0000D9B2A54A92F8343061F3041382F8343025
:101A1000A04B1B785B1103F00103D9B29E4A92F8E8
:101A2000343061F3451382F834309A4B1B789B11A4
:101A300003F00103D9B2984A92F8343061F3861367
:101A400082F83430934B1B78DB09DBB203F00103DF
:101A5000D9B2914A92F8343061F3C71382F8343026
:101A60008C4B5B7803F00103D9B28B4A92F8353086
:101A700061F3000382F83530864B5B785B1003F02E
:101A80000103D9B2844A92F8353061F3410382F8F8
:101A90003530804B5B789B1003F00103D9B27E4A4E
:101AA00092F8353061F3820382F83530794B5B78F8
:101AB000DB1003F00103D9B2774A92F8353061F3B5
:101AC000C30382F83530734B5B781B1103F00103BD
:101AD000D9B2714A92F8353061F3041382F8353087
:101AE0006C4B5B785B1103F00103D9B26A4A92F840
:101AF000353061F3451382F83530664B5B789B11C6
:101B000003F00103D9B2644A92F8353061F38613C9
:101B100082F835305F4B5B78DB09DBB203F0010301
:101B2000D9B25D4A92F8353061F3C71382F8353087
:101B3000584B9B7803F00103D9B2574A92F83630DC
:101B400061F3000382F83630524B9B785B1003F050
:101B50000103D9B2504A92F8363061F3410382F85A
:101B600036304C4B9B789B1003F00103D9B24A4AA4
:101B700092F8363061F3820382F83630454B9B7819
:101B8000DB1003F00103D9B2434A92F8363061F317
:101B9000C30382F836303F4B9B781B1103F00103DF
:101BA000D9B23D4A92F8363061F3041382F83630E8
:101BB000384B9B785B1103F00103D9B2364A92F897
:101BC000363061F3451382F83630324B9B789B11E7
:101BD00003F00103D9B2304A92F8363061F386132C
:101BE00082F836302B4B9B78DB09DBB203F0010324
:101BF000D9B2294A92F8363061F3C71382F83630E9
:101C0000244BDB7803F00103D9B2234A92F8373032
:101C100061F3000382F837301E4BDB785B1003F072
:101C20000103D9B21C4A92F8373061F3410382F8BC
:101C30003730184BDB789B1003F00103D9B2164AFA
:101C400092F8373061F3820382F83730114BDB783A
:101C5000DB1003F00103D9B20F4A92F8373061F379
:101C6000C30382F837300B4B1B7903F00103D9B261
:101C7000094A92F8383061F3000382F83830054B96
:101C80001B795B1003F00103D9B2034A92F8383094
:101C900004E000BFF80F00200010002061F34103B2
:101CA00082F838308A4B1B799B1003F00103D9B2BC
:101CB000884A92F8383061F3820382F83830844BD6
:101CC0001B79DB1003F00103D9B2824A92F8383055
:101CD00061F3C30382F838307D4B1B791B1103F08D
:101CE0000103D9B27B4A92F8383061F3041382F8C9
:101CF0003830774B1B795B1103F00103D9B2754A79
:101D000092F8383061F3451382F83830704B1B7904
:101D10009B1103F00103D9B26E4A92F8383061F397
:101D2000861382F838306A4B1B79DB09DBB203F08B
:101D30000103D9B2674A92F8383061F3C71382F8C9
:101D40003830634B5B7903F00103D9B2614A92F8F2
:101D5000393061F3000382F839305D4B5B795B10F9
:101D600003F00103D9B25B4A92F8393061F34103C1
:101D700082F83930564B5B799B1003F00103D9B2DE
:101D8000544A92F8393061F3820382F83930504B6B
:101D90005B79DB1003F00103D9B24E4A92F8393077
:101DA00061F3C30382F83930494B5B791B1103F0AF
:101DB0000103D9B2474A92F8393061F3041382F82B
:101DC0003930434B5B795B1103F00103D9B2414ACF
:101DD00092F8393061F3451382F839303C4B5B7926
:101DE0009B1103F00103D9B23A4A92F8393061F3FA
:101DF000861382F83930364B5B79DB09DBB203F0AE
:101E00000103D9B2334A92F8393061F3C71382F82B
:101E100039302F4B9B7903F00103D9B22D4A92F848
:101E20003A3061F3000382F83A30294B9B795B101A
:101E300003F00103D9B2274A92F83A3061F3410323
:101E400082F83A30224B9B799B1003F00103D9B200
:101E5000204A92F83A3061F3820382F83A301C4B00
:101E60009B79DB1003F00103D9B21A4A92F83A3099
:101E700061F3C30382F83A30154BDA79154B83F8D6
:101E80003B2020E0124B5B781A04114B9B781B021D
:101E900013430F4AD27813431A460E4BDA6312E00B
:101EA0000B4B9B781B020A4AD27813430A4A82FBE7
:101EB00003129211DB17D31A9AB2064BDA8002E0B2
:101EC00000BF00E000BF00BF0C37BD4680BC7047BC
:101ED000F80F002000100020D34D621080B483B0B2
:101EE00000AF0346FB71044AFB79D36000BF0C3797
:101EF000BD4680BC704700BF0008014080B483B07D
:101F000000AF78607B68DAB2084B1A707B681B0AF6
:101F1000DAB2064B5A707B681B0CDAB2034B9A702C
:101F200000BF0C37BD4680BC704700BF3811002091
:101F300080B582B000AF78600B46FB707868FFF721
:101F4000DDFFFB789BB203220349184600F022F81C
:101F500000BF0837BD4680BD3811002080B582B073
:101F600000AF0346FB71FB799BB203220849184678
:101F700000F02EF8064B9B781A04054B5B781B0289
:101F80001343034A1278134318460837BD4680BDF1
:101F90002411002080B586B004AF03463960FB8071
:101FA0001346BB80FA884FF0FF330293BB8801933E
:101FB0003B6800930123A021044802F051FD052055
:101FC00001F09AFA00BF0837BD4680BD68100020B6
:101FD00080B586B004AF03463960FB801346BB80F2
:101FE000FA884FF0FF330293BB8801933B6800935C
:101FF0000123A021044802F02DFE052001F07CFA07
:1020000000BF0837BD4680BD6810002080B500AF16
:102010000C2200210720FEF725FF144B1B88144AD1
:10202000A2FB03235B099BB21A4600210720FEF79F
:102030003FFF0E4B1B880F4AA2FB0323DB089AB21B
:102040000C4BA3FB0213D9080B469B000B445B000F
:10205000D31A9BB21A4606210720FEF729FF064A2B
:102060000C210720FEF724FE00BF80BD00100020D9
:102070001F85EB51CDCCCCCCF068000880B500AF0B
:10208000324B5B7C002B1AD1304BDB7C002B16D102
:102090002E4B5B7C1A4600210020FEF749FF0322ED
:1020A0000C210020FFF70EF803220D210020FFF77E
:1020B00009F8274A0F210020FEF7FAFD35E0234BEF
:1020C0005B7C322B16D9214B5B7C283B1A460021C6
:1020D0000020FEF72DFF03220C210020FEF7F2FF67
:1020E00003220D210020FEF7EDFF194A0F210020E9
:1020F000FEF7DEFD154BDB7C322B16D8134BDB7C59
:10210000283B1A4600210020FEF712FF03220C2173
:102110000020FEF7D7FF03220D210020FEF7D2FF9B
:102120000B4A0F210020FEF7C3FD084B5B7C5F2BA1
:1021300002D9084B01221A70044B5B7C592B02D840
:10214000044B00221A7000BF80BD00BF00100020A9
:10215000F86800082A11002080B500AF3C4B1B89AD
:102160001846FEF771FA02460B464FF00000394957
:10217000FEF71CF902460B461046194632A3D3E976
:102180000023FDF7E5FF02460B464FF00000314902
:10219000FEF70CF902460B4610461946FEF7BEFA4A
:1021A00003469AB22C4B1A802B4B1B88B3F57A7FCF
:1021B00019D11D2262210720FEF754FE0122682159
:1021C0000720FEF775FE00226E210720FEF770FE45
:1021D000002274210720FEF76BFE204A7A21072097
:1021E000FEF766FD2BE01D2262210720FEF73AFE76
:1021F000194B1B881A4AA2FB03235B099BB21A46A0
:102200006E210720FEF754FE134B1B88154AA2FBD4
:102210000323DB089AB2134BA3FB0213D9080B4626
:102220009B000B445B00D31A9BB21A467421072013
:10223000FEF73EFE094A7A210720FEF739FD00BF6E
:1022400080BD00BFAFF30080D3D2D2D2D2D2F23F52
:102250000010002000408F4028110020FC6800087A
:102260001F85EB51CDCCCCCC80B582B000AF002324
:10227000FB71514B4FF088321A604F4BDB684E4A6E
:1022800043F0FF03D36000224FF400614B4802F09B
:102290005AFA322001F030F90221474802F03CFAA4
:1022A0000346012B02D10023FB7155E0444B002271
:1022B0001A700421404802F02FFA0346012B18D16E
:1022C00008213D4802F028FA0346002B11D10123D2
:1022D000FB713C4B1B881A4613469B0113445B0061
:1022E000394A82FB03125211DB17D31A9AB2374BC9
:1022F0001A800421304802F00FFA0346002B0CD15B
:1023000008212D4802F008FA0346002B05D10223CC
:10231000FB712C4B1A882D4B1A800421264802F0A1
:10232000FBF90346002B17D10821234802F0F4F9EA
:102330000346012B10D10323FB71224B1B881A4645
:10234000462302FB03F3204A82FB03125211DB17E0
:10235000D31A9AB21D4B1A802021174802F0DCF9DB
:102360000346002B12D11A4B1B780133DAB2184BFB
:102370001A70174B1B78022B02D9154B01221A70C9
:10238000134B1B7840211846FFF7D2FD0A4B4FF044
:1023900022321A60322001F0AFF8FB791846FEF7BE
:1023A0009FFB01224FF40061044802F0CCF900BF0A
:1023B0000837BD4680BD00BF00080140000C014049
:1023C00071110020281100201F85EB51721100208F
:1023D0007011002080B500AF1B4B00221A7029E05D
:1023E000194B1B781A46194B53F82230184A536080
:1023F000174B04229A60164B0022DA60144B082215
:102400001A61114B1B781A46124B002199540E4B3E
:102410001B781A460F4B1A440F4B0D490F4801F019
:1024200097FA322001F068F8074B1B780133DAB2D3
:10243000054B1A70044B1B780A2BD1D9024B002292
:102440001A7000BF80BD00BF08110020A007002047
:102450003C1100200C11002014110020401000201D
:1024600080B500AF324B1B8840F2B532934208D999
:102470002F4B1B88B3F57A7F03D80520FEF786FB28
:1024800054E02B4B1B88B3F5487F09D3284B1B889E
:1024900040F2B532934203D80420FEF777FB45E0C3
:1024A000234B1B88B3F5167F08D3214B1B88B3F54C
:1024B000487F03D20320FEF769FB37E01C4B1B88E3
:1024C000B3F5C87F08D31A4B1B88B3F5167F03D228
:1024D0000220FEF75BFB29E0154B1B88C72B08D9B0
:1024E000134B1B88B3F5C87F03D20120FEF74EFBC8
:1024F0001CE00F4B1B88C72B14D80E4B1B78002BEE
:102500000CBF01230023DBB21A460A4B1A70094B99
:102510001B78002B03D00020FEF738FB06E0FEF707
:10252000E9FD03E00020FEF731FBFFE700BF80BDBF
:10253000281100202C11002080B582B000AF7860F7
:102540000A4B0B4A0021786801F0D1FA0346002BB0
:1025500008D1074B5B68074A1360064B1B68184697
:10256000FEF7ECFD00BF0837BD4680BDF80F002028
:10257000541100201011002080B584B000AF514BE1
:102580001B684FF4B47202FB03F3DB084E4AA2FB54
:1025900003235B08FB73FB7B1846FEF7EFF94B4BFD
:1025A0001B78002B0BD0474B1B689AB2484B1B88FB
:1025B00013449AB2464B1A80444B00221A70444B83
:1025C0001B88B3F5DC7F19D3414B00221A80414BA5
:1025D0001B6801333F4A13603E4B9B8801339AB21C
:1025E0003C4B9A803B4B1B6820211846FFF7A0FC10
:1025F000384B9B8830211846FFF79AFC354B9B8857
:1026000042F20F72934208D9324B00229A80314B2A
:102610009B8830211846FFF78BFC33226021002075
:10262000FEF720FC2C4B1B882C4AA2FB03235B09E2
:102630009BB2BB73284B1B88284AA2FB031252098A
:10264000642101FB02F29B1A9BB2254AA2FB0323E1
:10265000DB089BB27B73204B1B88204AA2FB031232
:102660005209642101FB02F29B1A9AB21C4BA3FB94
:102670000213D9080B469B000B445B00D31A9BB294
:102680003B73FEF7D5FABB7B1A4662210020FEF7AA
:102690000FFC7B7B1A4668210020FEF709FC3B7B80
:1026A0001A466E210020FEF703FC0E4A742100201A
:1026B000FEF7FEFA0C4B1B78012B17D0022B00F013
:1026C0003F8137E21811002095204F09201100208A
:1026D0007411002030110020721100201F85EB5171
:1026E000CDCCCCCC00690008701100208A4B1B684F
:1026F0008A4AA2FB03239B0CBB71874B1A68874B4A
:10270000A3FB02139B0C864901FB03F3D31A5B095D
:10271000844AA2FB0323DB097B717F4B1A687F4B42
:10272000A3FB02139B0C7E4901FB03F3D31A5A0946
:102730007C49A1FB0212D2097B4901FB02F29A1AE1
:102740007A4BA3FB02235B0B3B71734B1B68734AF1
:10275000A2FB0312920C724901FB02F29A1A53096E
:102760007049A1FB0313DB096F4901FB03F3D31A83
:102770006E4AA2FB0312520B42F2107101FB02F2ED
:102780009A1A6B4BA3FB02239B09FB70624B1A68DE
:10279000624BA3FB02139B0C614901FB03F3D31AA9
:1027A0005A096049A1FB0212D2095F4901FB02F2FA
:1027B0009A1A5E4BA3FB02135B0B42F2107101FBF2
:1027C00003F3D31A5A4AA2FB031292094FF47A7107
:1027D00001FB02F29A1A574BA3FB02235B09BB7061
:1027E0004D4B1B684D4AA2FB0312920C4C4901FB56
:1027F00002F29A1A53094B49A1FB0313DB094A4918
:1028000001FB03F3D31A494AA2FB0312520B42F213
:10281000107101FB02F29A1A454BA3FB02139B09AC
:102820004FF47A7101FB03F3D31A424AA2FB03125D
:102830005209642101FB02F29A1A3F4BA3FB0223C7
:10284000DB087B70344B1B68344AA2FB0312920CEA
:10285000334901FB02F29A1A53093249A1FB0313CF
:10286000DB09314901FB03F3D31A304AA2FB0312FF
:10287000520B42F2107101FB02F29A1A2C4BA3FB8D
:1028800002139B094FF47A7101FB03F3D31A294A0F
:10289000A2FB03125209642101FB02F29A1A264B91
:1028A000A3FB0213D9080B469B000B445B00D11A13
:1028B0000B463B70402220210520FEF7D3FAFEF79D
:1028C00097F9BB791A4632210520FEF7F1FA7B7998
:1028D0001A4638210520FEF7EBFA3B791A463E21CD
:1028E0000520FEF7E5FAFB781A4644210520FEF79D
:1028F000DFFABB781A464A210520FEF7D9FA7B7821
:102900001A4650210520FEF7D3FA0C4A592105201A
:10291000FEF7CEF912E100BF3011002083DE1B4329
:1029200040420F00C55A7C0AA08601005917B7D152
:10293000D34D62101F85EB51CDCCCCCC0069000883
:10294000804B9B881A46804B83FB02135913D31785
:10295000CB1A7E4901FB03F3D31A7D4A82FB031293
:102960001213DB17D31AFB72764B9B881A46764BF1
:1029700083FB02135913D317CB1A744901FB03F3DA
:10298000D31A734A82FB03121113DA178A1A42F21E
:10299000107101FB02F29A1A6E4B83FB021399111C
:1029A000D317CB1ABB72674B9B88674A82FB031213
:1029B0005113DA178A1A654901FB02F29A1A644B1D
:1029C00083FB02131913D317CB1A42F2107101FBC8
:1029D00003F3D31A5F4A82FB03129111DA178A1AA2
:1029E0004FF47A7101FB02F29A1A5B4B83FB0213DC
:1029F0005911D317CB1A7B72524B9B881A46524BF4
:102A000083FB02135913D317CB1A504901FB03F36D
:102A1000D31A4F4A82FB03121113DA178A1A42F2B1
:102A2000107101FB02F29A1A4A4B83FB02139911AF
:102A3000D317CB1A4FF47A7101FB03F3D31A464A2A
:102A400082FB03125111DA178A1A642101FB02F288
:102A50009A1A424B83FB02139910D317CB1A3B727D
:102A6000384B9B881A46384B83FB02135913D317F4
:102A7000CB1A364901FB03F3D31A354A82FB031202
:102A80001113DA178A1A42F2107101FB02F29A1A34
:102A9000304B83FB02139911D317CB1A4FF47A7181
:102AA00001FB03F3D31A2C4A82FB03125111DA17EC
:102AB0008A1A642101FB02F29A1A284B83FB021343
:102AC0009910D317C91A0B469B000B445B00D11A0F
:102AD0000B46FB71332228210520FEF7C3F9FEF7D0
:102AE000C7F8FB7A1A4634210520FEF7E1F9BB7AD4
:102AF0001A463A210520FEF7DBF97B7A1A46402177
:102B00000520FEF7D5F93B7A1A4646210520FEF747
:102B1000CFF940224C210520FEF7D4FAFB791A4662
:102B20004E210520FEF7C4F90D4A54210520FEF779
:102B3000BFF803E00B4B01221A7000BF00BF103733
:102B4000BD4680BD3011002089B5F814A086010073
:102B5000AD8BDB68D34D62101F85EB5167666666EF
:102B6000006900087011002080B582B000AF00F04D
:102B700061FC00F0BDF800F0CDF900F0FFF800F0C6
:102B80007DF900F04DF9534801F026FE524800F05F
:102B90009BFE0221504801F0CBF8504803F0C2FAE6
:102BA000FDF75CFEFEF754FA4FF47A7000F0A4FCD7
:102BB0007F2200210020FEF755F97F22002101200D
:102BC000FEF750F97F2200210220FEF74BF97F2209
:102BD00000210320FEF746F97F2200210420FEF7A2
:102BE00041F97F2200210520FEF73CF97F220021D8
:102BF0000620FEF737F97F2200210720FEF732F981
:102C00002020FFF7ABF903461A46354B1A603020F7
:102C1000FFF7A4F903469AB2314B9A804020FFF7A0
:102C20009DF90346DAB22F4B1A702F4B01221A700E
:102C30000023FB712D4B1B78002BFBD02B4B00226C
:102C40001A70FFF7C7FB7F2200210020FEF70AF968
:102C50007F2200210120FEF705F97F2200210220BA
:102C6000FEF700F97F2200210320FEF7FBF87F2208
:102C700000210420FEF7F6F87F2200210520FEF750
:102C8000F1F87F2200210620FEF7ECF87F220021D8
:102C90000720FEF7E7F8FFF7F1F9FFF75DFAFEF717
:102CA00029FAFFF7DDFBFFF767FCFFF7DDFAFFF717
:102CB000ADF9A220FDF752FDA020FDF74FFDC02089
:102CC000FDF74CFD4020FDF749FDFDF723FEFDF724
:102CD00073FDAFE76810002040100020BC100020FA
:102CE00030110020701100209C0700202B110020C3
:102CF00080B590B000AF07F11803282200211846D4
:102D000003F0BEFD3B1D00221A605A609A60DA6033
:102D10001A610123BB614FF48033FB6100233B62E6
:102D20000123BB6202237B634FF48033BB634FF408
:102D3000E013FB6307F11803184602F0A7FD0346F2
:102D4000002B01D000F004FA0F237B600223BB604C
:102D50000023FB604FF480633B6100237B613B1DDC
:102D60000221184603F014F80346002B01D000F0AE
:102D7000EFF900BF4037BD4680BD000080B58AB086
:102D800000AF254B254A1A60234B08225A60224B7C
:102D900000229A60204B0022DA601F4B4FF4602221
:102DA0001A611D4B4FF480125A611B4B00221A7698
:102DB000194B00225A76184B00229A76164B0022A5
:102DC000DA76154B00221A77134B00225A771248F5
:102DD00000F0B6FB0346002B01D000F0B9F9012347
:102DE0003B6201237B6100233B6100233B600023A6
:102DF0007B600023BB600023FB600023BB610123D9
:102E0000FB6100237B623B461946034800F093FCBC
:102E100000BF2837BD4680BD401000200064004040
:102E200080B500AF124B134A1A60114B124A5A6018
:102E30000F4B00229A600E4B0022DA600C4B4FF4CD
:102E400080421A610A4B00225A61094B00229A61A2
:102E5000074B0022DA61064B00221A62044801F097
:102E6000BBFC0346002B01D000F072F900BF80BD0F
:102E70006810002000540040801A060080B586B01B
:102E800000AF07F1080300221A605A609A60DA6006
:102E90003B4600221A605A601D4B4FF080421A6078
:102EA0001B4B63225A601A4B00229A60184B472230
:102EB000DA60174B00221A61154B00229A61144800
:102EC00003F0E0F80346002B01D000F041F94FF485
:102ED0008053BB6007F1080319460D4803F07CFAE4
:102EE0000346002B01D000F033F900233B600023A0
:102EF0007B603B461946064803F052FC0346002B14
:102F000001D000F025F900BF1837BD4680BD00BFD5
:102F1000BC10002080B588B000AF07F1100300227C
:102F20001A605A609A60DA60394B9B69384A43F0FC
:102F300010039361364B9B6903F01003FB60FB6841
:102F4000334B9B69324A43F020039361304B9B69BA
:102F500003F02003BB60BB682D4B9B692C4A43F0F8
:102F6000040393612A4B9B6903F004037B607B6835
:102F7000274B9B69264A43F008039361244B9B69C6
:102F800003F008033B603B68002240F2FF11214838
:102F900001F0D9FB002240F607411F4801F0D3FBA6
:102FA0004FF400533B611D4B7B610123BB6107F173
:102FB000100319461A4801F02BFA40F2FF133B6147
:102FC00001237B610023BB610223FB6107F1100336
:102FD0001946104801F01CFA40F607433B610123F3
:102FE0007B610023BB610223FB6107F110031946DB
:102FF000094801F00DFA00220021282001F0CDF946
:10300000282001F0E6F900BF2037BD4680BD00BF93
:103010000010024000080140000C01400000211097
:103020000010014080B582B000AF78607B681B68FB
:10303000B3F1804F59D12F4B1B889BB201339AB209
:103040002C4B1A802B4B1B889BB20A2B08D12A4B86
:103050001B8801339AB2284B1A80264B00221A8013
:10306000254B1A88254B1B889A4213D1224B1B886B
:1030700003F57A739AB2214B1A80214B01221A7000
:10308000204B1B68204A1360204B01221A701D4BF5
:1030900000221A60184B1A881D4B1B889A420FD1C8
:1030A000154B1B8803F5FA739AB2194B1A80194B0A
:1030B0001B78012B04D14FF48071174801F05BFBA2
:1030C0000D4B1A88154B1B889A420ED10A4B1B8850
:1030D00064339AB2114B1A80114B1B78012B04D127
:1030E0004FF480710C4801F046FB00BF0837BD4625
:1030F00080BD00BF04110020061100209E070020A3
:103100002B1100201C11002018110020201100207C
:103110007611002071110020000801407811002074
:103120002A11002080B483B000AF0346FB80FB88E7
:10313000B3F5005F04D1054B1B680133034A1360EC
:1031400000BF0C37BD4680BC704700BF1C1100207B
:1031500080B500AF72B600BF01F049F9FCE700008E
:1031600080B485B000AF154B9B69144A43F001034E
:103170009361124B9B6903F00103BB60BB680F4B6B
:10318000DB690E4A43F08053D3610C4BDB6903F0DB
:1031900080537B607B680A4B5B68FB60FB6823F0B5
:1031A000E063FB60FB6843F00073FB60044AFB686C
:1031B000536000BF1437BD4680BC7047001002400A
:1031C0000000014080B588B000AF786007F11003BF
:1031D00000221A605A609A60DA607B681B68204A95
:1031E000934239D11F4BDB691E4A43F00073D36110
:1031F0001C4BDB6903F00073FB60FB68194B9B6998
:10320000184A43F004039361164B9B6903F00403CF
:10321000BB60BB684FF400633B6100237B6100230C
:10322000BB6107F1100319460F4801F0F1F84FF4A4
:1032300080533B6102237B610323FB6107F1100391
:103240001946094801F0E4F800220021142001F099
:10325000A4F8142001F0BDF800BF2037BD4680BDA2
:1032600000640040001002400008014080B58AB0B0
:1032700000AF786007F1140300221A605A609A6068
:10328000DA607B681B681D4A934232D11C4B9B69F4
:103290001B4A43F008039361194B9B6903F0080331
:1032A0003B613B694FF440737B611223BB61032395
:1032B0003B6207F114031946124801F0A9F8124BBA
:1032C0005B687B627B6A43F0E0637B627B6A43F00E
:1032D00002037B620C4A7B6A5360094BDB69084A34
:1032E00043F40013D361064BDB6903F40013FB6066
:1032F000FB6800BF2837BD4680BD00BF00540040BA
:1033000000100240000C01400000014080B584B074
:1033100000AF78607B681B68B3F1804F13D10C4B12
:10332000DB690B4A43F00103D361094BDB6903F00E
:103330000103FB60FB68002200211C2001F02DF836
:103340001C2001F046F800BF1037BD4680BD00BF0D
:103350000010024080B400AFFEE780B400AFFEE78B
:1033600080B400AFFEE780B400AFFEE780B400AFEA
:10337000FEE780B400AF00BFBD4680BC704780B49C
:1033800000AF00BFBD4680BC704780B400AF00BF37
:10339000BD4680BC704780B500AF00F091F800BF1B
:1033A00080BD000080B500AF024800F0E6FC00BF21
:1033B00080BD00BF4010002080B500AF024802F081
:1033C00003FF00BF80BD00BFBC10002080B500AF70
:1033D0004FF4005001F0E8F900BF80BD80B400AFA9
:1033E00000BFBD4680BC7047FFF7F8FF0B480C4993
:1033F0000C4A002302E0D458C4500433C4188C4251
:10340000F9D3094A094C002301E013600432A242B7
:10341000FBD303F03DFAFFF7A7FB70470000002045
:10342000D8070020D8860008D80700208011002087
:10343000FEE7000080B500AF084B1B68074A43F069
:1034400010031360032000F09DFF0F2000F008F828
:10345000FFF786FE0023184680BD00BF0020024013
:1034600080B582B000AF7860124B1A68124B1B789F
:1034700019464FF47A73B3FBF1F3B2FBF3F318463A
:1034800000F0B9FF0346002B01D001230EE07B685A
:103490000F2B0AD8002279684FF0FF3000F07DFF33
:1034A000064A7B681360002300E0012318460837B2
:1034B000BD4680BDCC070020D4070020D0070020E7
:1034C00080B400AF054B1B781A46054B1B681344AC
:1034D000034A136000BFBD4680BC7047D40700207C
:1034E0007C11002080B400AF024B1B681846BD461B
:1034F00080BC70477C11002080B584B000AF78603C
:10350000FFF7F0FFB8607B68FB60FB68B3F1FF3F3B
:1035100005D00A4B1B781A46FB681344FB6000BFBA
:10352000FFF7E0FF0246BB68D31AFA689A42F7D861
:1035300000BF00BF1037BD4680BD00BFD4070020CC
:1035400080B584B000AF78607B68002B01D1012387
:10355000EDE07B6893F82030DBB2002B02D1786875
:10356000FFF730FE7B681B681A687B681B6842F0B7
:1035700001021A60FFF7B6FFF86012E0FFF7B2FF32
:103580000246FB68D31A0A2B0BD97B685B6A43F4AB
:1035900000327B685A627B68052283F82020012371
:1035A000C5E07B681B685B6803F00103002BE5D076
:1035B0007B681B681A687B681B6822F002021A602D
:1035C000FFF790FFF86012E0FFF78CFF0246FB6800
:1035D000D31A0A2B0BD97B685B6A43F400327B68F1
:1035E0005A627B68052283F8202001239FE07B68D4
:1035F0001B685B6803F00203002BE5D17B681B7E30
:10360000012B08D17B681B681A687B681B6842F035
:1036100080021A6007E07B681B681A687B681B6879
:1036200022F080021A607B685B7E012B08D17B68E8
:103630001B681A687B681B6842F040021A6007E04A
:103640007B681B681A687B681B6822F040021A605E
:103650007B689B7E012B08D17B681B681A687B689E
:103660001B6842F020021A6007E07B681B681A683A
:103670007B681B6822F020021A607B68DB7E012BCE
:1036800008D17B681B681A687B681B6822F01002EF
:103690001A6007E07B681B681A687B681B6842F049
:1036A00010021A607B681B7F012B08D17B681B68A6
:1036B0001A687B681B6842F008021A6007E07B68A2
:1036C0001B681A687B681B6822F008021A607B6816
:1036D0005B7F012B08D17B681B681A687B681B68BD
:1036E00042F004021A6007E07B681B681A687B6876
:1036F0001B6822F004021A607B689A687B68DB68AA
:103700001A437B681B691A437B685B6942EA0301C1
:103710007B685B685A1E7B681B680A43DA617B68BA
:1037200000225A627B68012283F820200023184679
:103730001037BD4680BD80B487B000AF7860396077
:103740007B681B687B617B6893F82030FB74FB7C93
:10375000012B03D0FB7C022B40F0AA807B69D3F8BD
:10376000003243F001027B69C3F800223B685B69C9
:1037700003F01F03012202FA03F3FB607B69D3F815
:103780001C22FB68DB431A407B69C3F81C223B68A0
:10379000DB69002B23D17B69D3F80C22FB68DB4368
:1037A0001A407B69C3F80C223B68DB6819043B684C
:1037B0005B689BB23A68526919437B69483243F8A7
:1037C00032103B689B6819043B681B689AB23B68DF
:1037D0005B690A4379694833DB000B445A603B68F4
:1037E000DB69012B22D17B69D3F80C22FB681A43D9
:1037F0007B69C3F80C223B681B6819043B685B6853
:103800009BB23A68526919437B69483243F83210D7
:103810003B689B6819043B68DB689AB23B685B694C
:103820000A4379694833DB000B445A603B689B6963
:10383000002B09D17B69D3F80422FB68DB431A40D3
:103840007B69C3F8042207E07B69D3F80422FB6894
:103850001A437B69C3F804223B681B69002B09D11A
:103860007B69D3F81422FB68DB431A407B69C3F8F9
:10387000142207E07B69D3F81422FB681A437B69A2
:10388000C3F814223B681B6A012B07D17B69D3F86C
:103890001C22FB681A437B69C3F81C227B69D3F89E
:1038A000003223F001027B69C3F80022002306E006
:1038B0007B685B6A43F480227B685A620123184666
:1038C0001C37BD4680BC704780B584B000AF7860BF
:1038D0007B6893F82030DBB2012B2ED17B6802226B
:1038E00083F820207B681B681A687B681B6822F0BD
:1038F00001021A60FFF7F6FDF86012E0FFF7F2FD33
:103900000246FB68D31A0A2B0BD97B685B6A43F427
:1039100000327B685A627B68052283F820200123ED
:1039200012E07B681B685B6803F00103002BE5D1A4
:103930007B6800225A62002306E07B685B6A43F4DE
:1039400000227B685A62012318461037BD4680BDAD
:1039500080B489B000AFF860B9607A603B60FB6802
:1039600093F82030FB77FB681B689B68BB61FB7F8B
:10397000012B03D0FB7F022B40F0AD80BB6903F02D
:103980008063002B0AD1BB6903F00063002B05D1D3
:10399000BB6903F08053002B00F09580BB691B0EC0
:1039A00003F003037B6101227B699A403B681A6044
:1039B000BB689B68002B0DD1BB681B685A05BB68B0
:1039C000DB68F96809681A437B6918331B010B44EB
:1039D0001A600FE0BB685B68DA00BB689B681A433B
:1039E000BB68DB68F96809681A437B6918331B01F7
:1039F0000B441A60FB681968BB681A697B69183345
:103A00001B010B4404331A60BB681B7D012B11D1D1
:103A1000FB681A687B6918331B01134404331B6865
:103A2000FA68116843F480727B6918331B010B44F8
:103A300004331A607B6807331B781A067B680633E9
:103A40001B781B041A437B6805331B781B02134346
:103A50007A68043212781046FA68116843EA000264
:103A60007B691B010B4403F5C6731A607B68033343
:103A70001B781A067B6802331B781B041A437B6889
:103A800001331B781B0213437A6812781046FA68D8
:103A9000116843EA00027B691B010B4403F5C47300
:103AA0001A60FB681A687B6918331B0113441B6892
:103AB000FA68116843F001027B6918331B010B445B
:103AC0001A6000230EE0FB685B6A43F40012FB6897
:103AD0005A62012306E0FB685B6A43F48022FB68BC
:103AE0005A62012318462437BD4680BC704780B413
:103AF00087B000AFF860B9607A603B60FB6893F80C
:103B00002030FB75FB7D012B03D0FB7D022B40F0A9
:103B10000381BB68002B0ED1FB681B68DB6803F0D8
:103B20000303002B16D1FB685B6A43F40012FB68A9
:103B30005A620123F7E0FB681B681B6903F003036B
:103B4000002B07D1FB685B6A43F40012FB685A62E2
:103B50000123E8E0FB681A68BB681B331B011344B0
:103B60001B6803F004027B689A607B689B68002BEB
:103B70000CD1FB681A68BB681B331B0113441B681C
:103B80005B0DC3F30A027B681A600BE0FB681A68DE
:103B9000BB681B331B0113441B68DB0823F0604226
:103BA0007B685A60FB681A68BB681B331B011344AF
:103BB0001B6803F002027B68DA60FB681A68BB6866
:103BC0001B331B01134404331B6803F00803002B51
:103BD00003D07B6808221A610BE0FB681A68BB6897
:103BE0001B331B01134404331B6803F00F027B6873
:103BF0001A61FB681A68BB681B331B01134404334A
:103C00001B681B0ADAB27B689A61FB681A68BB689A
:103C10001B331B01134404331B681B0C9AB27B68D3
:103C20005A61FB681A68BB681B01134403F5DC7317
:103C30001B68DAB23B681A70FB681A68BB681B0124
:103C4000134403F5DC731B681A0A3B680133D2B2D4
:103C50001A70FB681A68BB681B01134403F5DC7318
:103C60001B681A0C3B680233D2B21A70FB681A68E0
:103C7000BB681B01134403F5DC731B681A0E3B6819
:103C80000333D2B21A70FB681A68BB681B01134475
:103C900003F5DE731A683B680433D2B21A70FB680E
:103CA0001A68BB681B01134403F5DE731B681A0A0C
:103CB0003B680533D2B21A70FB681A68BB681B01F7
:103CC000134403F5DE731B681A0C3B680633D2B24B
:103CD0001A70FB681A68BB681B01134403F5DE7396
:103CE0001B681A0E3B680733D2B21A70BB68002BF0
:103CF00008D1FB681B68DA68FB681B6842F0200289
:103D0000DA6007E0FB681B681A69FB681B6842F011
:103D100020021A61002306E0FB685B6A43F48022FC
:103D2000FB685A62012318461C37BD4680BC7047A9
:103D300080B485B000AF786039607B6893F820303C
:103D4000FB73FB7B012B02D0FB7B022B09D17B6831
:103D50001B6859697B681B683A680A435A610023EB
:103D600006E07B685B6A43F480227B685A62012329
:103D700018461437BD4680BC704780B58AB000AF86
:103D8000786000237B627B681B685B693B627B68B1
:103D90001B685B68FB617B681B689B68BB617B6819
:103DA0001B68DB687B617B681B681B693B617B6808
:103DB0001B689B69FB603B6A03F00103002B7CD00E
:103DC000BB6903F00103002B23D07B681B68012231
:103DD0009A60BB6903F00203002B03D0786800F0FF
:103DE00083F916E0BB6903F00403002B04D07B6A5F
:103DF00043F400637B620CE0BB6903F00803002B13
:103E000004D07B6A43F480537B6202E0786800F060
:103E100086F9BB6903F48073002B24D07B681B6890
:103E20004FF480729A60BB6903F40073002B03D0D7
:103E3000786800F062F916E0BB6903F48063002B38
:103E400004D07B6A43F400537B620CE0BB6903F44B
:103E50000063002B04D07B6A43F480437B6202E062
:103E6000786800F065F9BB6903F48033002B24D037
:103E70007B681B684FF480329A60BB6903F400339F
:103E8000002B03D0786800F041F916E0BB6903F419
:103E90008023002B04D07B6A43F400437B620CE058
:103EA000BB6903F40023002B04D07B6A43F4803306
:103EB0007B6202E0786800F044F93B6A03F0080393
:103EC000002B0CD07B6903F01003002B07D07B6A1A
:103ED00043F400737B627B681B681022DA603B6AE4
:103EE00003F00403002B0BD07B6903F00803002BC5
:103EF00006D07B681B680822DA60786800F02AF92F
:103F00003B6A03F00203002B09D07B681B68DB6867
:103F100003F00303002B02D07868FEF70DFB3B6A29
:103F200003F04003002B0CD03B6903F01003002B7F
:103F300007D07B6A43F480637B627B681B68102236
:103F40001A613B6A03F02003002B0BD03B6903F09E
:103F50000803002B06D07B681B6808221A6178686A
:103F600000F00AF93B6A03F01003002B09D07B68CC
:103F70001B681B6903F00303002B02D0786800F074
:103F8000F2F83B6A03F40033002B0BD0FB6903F01B
:103F90001003002B06D07B681B6810225A607868DB
:103FA00000F0F3F83B6A03F48033002B0BD0FB697D
:103FB00003F00803002B06D07B681B6808225A60B8
:103FC000786800F0EBF83B6A03F40043002B7BD0E9
:103FD000FB6903F00403002B72D03B6A03F4807387
:103FE000002B08D0FB6803F00103002B03D07B6A91
:103FF00043F001037B623B6A03F40073002B08D09B
:10400000FB6803F00203002B03D07B6A43F002033A
:104010007B623B6A03F48063002B08D0FB6803F0EB
:104020000403002B03D07B6A43F004037B623B6AEA
:1040300003F40063002B43D0FB6803F07003002BF4
:104040003ED0FB6803F07003602B2BD0602B2ED882
:10405000502B22D0502B2AD8402B19D0402B26D8B9
:10406000302B10D0302B22D8102B02D0202B05D093
:104070001DE07B6A43F008037B6219E07B6A43F032
:1040800010037B6214E07B6A43F020037B620FE045
:104090007B6A43F040037B620AE07B6A43F0800363
:1040A0007B6205E07B6A43F480737B6200E000BFC3
:1040B0007B681B689A697B681B6822F070029A61B2
:1040C0007B681B6804225A607B6A002B08D07B68DF
:1040D0005A6A7B6A1A437B685A62786800F067F80C
:1040E00000BF2837BD4680BD80B483B000AF786084
:1040F00000BF0C37BD4680BC704780B483B000AFB2
:10410000786000BF0C37BD4680BC704780B483B078
:1041100000AF786000BF0C37BD4680BC704780B4EC
:1041200083B000AF786000BF0C37BD4680BC7047DD
:1041300080B483B000AF786000BF0C37BD4680BC50
:10414000704780B483B000AF786000BF0C37BD46C5
:1041500080BC704780B483B000AF786000BF0C377C
:10416000BD4680BC704780B483B000AF786000BFAC
:104170000C37BD4680BC704780B483B000AF786018
:1041800000BF0C37BD4680BC704780B483B000AF21
:10419000786000BF0C37BD4680BC704780B483B0E8
:1041A00000AF786000BF0C37BD4680BC704780B45C
:1041B00083B000AF786000BF0C37BD4680BC70474D
:1041C00080B485B000AF78607B6803F00703FB60C4
:1041D0000C4BDB68BB60BA684FF6FF031340BB6053
:1041E000FB681A02BB68134343F0BF6343F4003318
:1041F000BB60044ABB68D36000BF1437BD4680BCB7
:10420000704700BF00ED00E080B400AF044BDB68F6
:104210001B0A03F007031846BD4680BC704700BF69
:1042200000ED00E080B483B000AF0346FB7197F966
:104230000730002B0BDBFB7903F01F02064997F9CF
:1042400007305B09012000FA02F241F8232000BF89
:104250000C37BD4680BC704700E100E080B483B0FD
:1042600000AF03463960FB7197F90730002B0ADB7A
:104270003B68DAB20C4997F907301201D2B20B440D
:1042800083F800230AE03B68DAB20849FB7903F0BF
:104290000F03043B1201D2B20B441A7600BF0C3755
:1042A000BD4680BC704700BF00E100E000ED00E0CB
:1042B00080B489B000AFF860B9607A60FB6803F041
:1042C0000703FB61FB69C3F10703042B28BF042329
:1042D000BB61FB690433062B02D9FB69033B00E099
:1042E00000237B614FF0FF32BB6902FA03F3DA432C
:1042F000BB681A407B699A404FF0FF317B6901FA35
:1043000003F3D9437B680B40134318462437BD465B
:1043100080BC704780B400AFBFF34F8F00BF064B27
:10432000DB6803F4E0620449044B1343CB60BFF342
:104330004F8F00BF00BFFDE700ED00E00400FA056D
:1043400080B582B000AF78607B68013BB3F1807FBD
:1043500001D301230FE00A4A7B68013B53600F2120
:104360004FF0FF30FFF77AFF054B00229A60044BB5
:1043700007221A60002318460837BD4680BD00BFDB
:1043800010E000E080B582B000AF78607868FFF799
:1043900017FF00BF0837BD4680BD80B586B000AFAF
:1043A0000346B9607A60FB7300237B61FFF72CFF43
:1043B00078617A68B9687869FFF77AFF024697F9F9
:1043C0000F3011461846FFF749FF00BF1837BD46AA
:1043D00080BD80B582B000AF0346FB7197F907300E
:1043E0001846FFF71FFF00BF0837BD4680BD80B5E8
:1043F00000AFFFF78FFF80B582B000AF78607868BC
:10440000FFF79EFF034618460837BD4680BD0000F3
:1044100080B48BB000AF7860396000237B620023EA
:104420003B6269E101227B6A02FA03F3FB613B68AC
:104430001B68FA691340BB61BA69FB699A4240F094
:1044400058813B685B689A4A93425ED0984A93428F
:1044500075D8984A934258D0964A93426FD8964A54
:10446000934252D0944A934269D8944A93424CD092
:10447000924A934263D8924A934246D0904A9342DA
:104480005DD8122B2AD8122B59D801A252F823F04A
:104490000B450008E5440008F744000839450008CA
:1044A0003F4500083F4500083F4500083F450008DC
:1044B0003F4500083F4500083F4500083F450008CC
:1044C0003F4500083F4500083F4500083F450008BC
:1044D0003F450008ED44000801450008794A934231
:1044E00013D02CE03B68DB683B6229E03B68DB686B
:1044F00004333B6224E03B68DB6808333B621FE027
:104500003B68DB680C333B621AE03B689B68002B1E
:1045100002D104233B6213E03B689B68012B05D169
:1045200008233B627B68FA691A6109E008233B6251
:104530007B68FA695A6103E000233B6200E000BF38
:10454000BB69FF2B01D87B6801E07B6804337B618A
:10455000BB69FF2B02D87B6A9B0002E07B6A083BA9
:104560009B003B617B691A680F213B6901FA03F3E9
:10457000DB431A40396A3B6901FA03F31A437B694A
:104580001A603B685B6803F08053002B00F0B18039
:104590004D4B9B694C4A43F0010393614A4B9B6925
:1045A00003F00103BB60BB68484A7B6A9B08023387
:1045B00052F82330FB607B6A03F003039B000F2259
:1045C00002FA03F3DB43FA681340FB607B68404A5E
:1045D000934213D07B683F4A93420DD07B683E4A9A
:1045E000934207D07B683D4A934201D1032306E002
:1045F000042304E0022302E0012300E000237A6A9E
:1046000002F0030292009340FA681343FB602F49C3
:104610007B6A9B080233FA6841F823203B685B6899
:1046200003F48013002B06D02D4B9A682C49BB69EC
:1046300013438B6006E02A4B9A68BB69DB43284929
:1046400013408B603B685B6803F40013002B06D0BB
:10465000234BDA682249BB691343CB6006E0204B49
:10466000DA68BB69DB431E491340CB603B685B687B
:1046700003F40033002B06D0194B5A681849BB6964
:1046800013434B6006E0164B5A68BB69DB43144981
:1046900013404B603B685B6803F48033002B21D0F0
:1046A0000F4B1A680E49BB6913430B6021E000BF32
:1046B0000000321000003110000022100000211014
:1046C0000000121000001110001002400000014014
:1046D00000080140000C014000100140001401409E
:1046E000000401400B4B1A68BB69DB4309491340C6
:1046F0000B607B6A01337B623B681A687B6A22FA33
:1047000003F3002B7FF48EAE00BF00BF2C37BD46F5
:1047100080BC70470004014080B485B000AF786071
:104720000B467B807B689A687B881340002B02D005
:104730000123FB7301E00023FB73FB7B1846143756
:10474000BD4680BC704780B483B000AF78600B4634
:104750007B8013467B707B78002B03D07A887B6844
:104760001A6103E07B881A047B681A6100BF0C376A
:10477000BD4680BC704780B485B000AF78600B4602
:104780007B807B68DB68FB607A88FB6813401A04D7
:10479000FB68D9437B880B401A437B681A6100BFD2
:1047A0001437BD4680BC704780B582B000AF034669
:1047B000FB80084B5A69FB881340002B06D0054A42
:1047C000FB885361FB881846FEF7ACFC00BF083736
:1047D000BD4680BD0004014080B584B000AF786064
:1047E0007B68002B01D101232BE17B6893F83D30DE
:1047F000DBB2002B06D17B68002283F83C2078686E
:10480000FEF734FD7B68242283F83D207B681B681B
:104810001A687B681B6822F001021A607B681B68BB
:104820001A687B681B6842F400421A607B681B6848
:104830001A687B681B6822F400421A6001F0F0FBE2
:10484000F8607B685B68814A934207D8FB68804ABE
:10485000934294BF01230023DBB206E0FB687D4A4C
:10486000934294BF01230023DBB2002B01D001232C
:10487000E7E0FB68784AA2FB03239B0CBB607B68E4
:104880001B685B6823F03F017B681B68BA680A43BA
:104890005A607B681B681B6A23F03F017B685B687A
:1048A0006A4A934202D8BB68013309E0BB684FF4FF
:1048B000967202FB03F3694AA2FB03239B090133AF
:1048C0007A6812680B4313627B681B68DB6923F408
:1048D0004F4222F0FF027B685B685C498B4219D82B
:1048E000FB68591E7B685B685B00B1FBF3F3591CE6
:1048F00040F6FC730B40002B0AD0FB68591E7B6806
:104900005B685B00B1FBF3F30133C3F30B0351E0CE
:1049100004234FE07B689B68002B11D1FB68581E75
:104920007B6859680B465B000B44B0FBF3F3013323
:10493000C3F30B03002B0CBF01230023DBB212E0F7
:10494000FB68581E7B6859680B469B000B44990016
:104950000B44B0FBF3F30133C3F30B03002B0CBF89
:1049600001230023DBB2002B01D0012322E07B686E
:104970009B68002B0ED1FB68581E7B6859680B465C
:104980005B000B44B0FBF3F30133C3F30B0343F4BD
:1049900000430FE0FB68581E7B6859680B469B007C
:1049A0000B4499000B44B0FBF3F30133C3F30B0347
:1049B00043F44043796809681343CB617B681B6803
:1049C0001B6823F0C0017B68DA697B681B6A1A43A5
:1049D0007B681B680A431A607B681B689B6823F42A
:1049E000034323F0FF037A6811697A68D2681143A0
:1049F0007A6812680B4393607B681B68DB6823F05E
:104A0000FF017B685A697B689B691A437B681B6856
:104A10000A43DA607B681B681A687B681B6842F08F
:104A200001021A607B6800221A647B68202283F8E6
:104A30003D207B6800221A637B68002283F83E20B9
:104A4000002318461037BD4680BD00BFA086010078
:104A50007F841E00FF083D0083DE1B43D34D6210A0
:104A600080B588B002AFF860084611461A46034682
:104A70007B810B463B811346FB80FEF733FD78615B
:104A8000FB6893F83D30DBB2202B40F0D9807B6986
:104A90000093192301226D49F86800F0C1FC034618
:104AA000002B01D00223CCE0FB6893F83C30012BB3
:104AB00001D10223C5E0FB68012283F83C20FB689A
:104AC0001B681B6803F00103012B07D0FB681B6800
:104AD0001A68FB681B6842F001021A60FB681B68D9
:104AE0001A68FB681B6822F400621A60FB682122C6
:104AF00083F83D20FB68402283F83E20FB680022BB
:104B00001A64FB683A6A5A62FB68BA8C5A85FB6879
:104B10005B8D9AB2FB681A85FB684D4ADA62F888A9
:104B20003A8979897B690193BB6A00930346F868E7
:104B300000F0F8FA0346002B52D0012381E07A6995
:104B4000B96AF86800F086FD0346002B0DD0FB68BB
:104B50001B6C042B07D1FB681B681A68FB681B6879
:104B600042F400721A6001236BE0FB685B6A1A78FA
:104B7000FB681B681A61FB685B6A5A1CFB685A6217
:104B8000FB681B8D013B9AB2FB681A85FB685B8D45
:104B90009BB2013B9AB2FB685A85FB681B685B6954
:104BA00003F00403042B1BD1FB681B8D002B17D0D3
:104BB000FB685B6A1A78FB681B681A61FB685B6AB2
:104BC0005A1CFB685A62FB681B8D013B9AB2FB685A
:104BD0001A85FB685B8D9BB2013B9AB2FB685A85D4
:104BE000FB681B8D002BAAD17A69B96AF86800F0BE
:104BF00079FD0346002B0DD0FB681B6C042B07D1FD
:104C0000FB681B681A68FB681B6842F400721A6034
:104C1000012316E0FB681B681A68FB681B6842F4F6
:104C200000721A60FB68202283F83D20FB68002296
:104C300083F83E20FB68002283F83C20002300E03C
:104C4000022318461837BD4680BD00BF0200100081
:104C50000000FFFF80B58CB002AFF8600846114637
:104C60001A4603467B810B463B811346FB8000239B
:104C70003B62FEF737FC7862FB6893F83D30DBB2AD
:104C8000202B40F044827B6A009319230122824941
:104C9000F86800F0C5FB0346002B01D0022337E281
:104CA000FB6893F83C30012B01D1022330E2FB6812
:104CB000012283F83C20FB681B681B6803F001039A
:104CC000012B07D0FB681B681A68FB681B6842F061
:104CD00001021A60FB681B681A68FB681B6822F4F3
:104CE00000621A60FB68222283F83D20FB684022A4
:104CF00083F83E20FB6800221A64FB683A6B5A6214
:104D0000FB68BA8E5A85FB685B8D9AB2FB681A8580
:104D1000FB68624ADA62F8883A8979897B6A01938A
:104D2000BB6B00930346F86800F092FA0346002B31
:104D300001D00123ECE1FB681B8D002B13D1002374
:104D4000FB61FB681B685B69FB61FB681B689B6917
:104D5000FB61FB69FB681B681A68FB681B6842F40F
:104D600000721A60C0E1FB681B8D012B1ED1FB682D
:104D70001B681A68FB681B6822F480621A6072B6AE
:104D800000BF0023BB61FB681B685B69BB61FB68FC
:104D90001B689B69BB61BB69FB681B681A68FB6881
:104DA0001B6842F400721A6062B635E0FB681B8D26
:104DB000022B1ED1FB681B681A68FB681B6842F453
:104DC00000621A6072B600BF00237B61FB681B683B
:104DD0005B697B61FB681B689B697B617B69FB6826
:104DE0001B681A68FB681B6822F480621A6062B64E
:104DF00012E0FB681B681A68FB681B6842F480625B
:104E00001A6000233B61FB681B685B693B61FB68C0
:104E10001B689B693B613B6966E1FB681B8D032B4B
:104E200000F21F81FB681B8D012B23D17A6AB96BBD
:104E3000F86800F09FFC0346002B01D0012367E1D6
:104E4000FB681B681A69FB685B6AD2B21A70FB6860
:104E50005B6A5A1CFB685A62FB681B8D013B9AB265
:104E6000FB681A85FB685B8D9BB2013B9AB2FB68BD
:104E70005A8539E1FB681B8D022B52D17B6A009366
:104E8000BB6B00220649F86800F0CAFA0346002B03
:104E900008D001233CE100BF020010000000FFFF2A
:104EA0000400010072B600BFFB681B681A68FB684B
:104EB0001B6842F400721A60FB681B681A69FB6881
:104EC0005B6AD2B21A70FB685B6A5A1CFB685A6252
:104ED000FB681B8D013B9AB2FB681A85FB685B8DF2
:104EE0009BB2013B9AB2FB685A8562B600BFFB6871
:104EF0001B681A69FB685B6AD2B21A70FB685B6A4E
:104F00005A1CFB685A62FB681B8D013B9AB2FB6816
:104F10001A85FB685B8D9BB2013B9AB2FB685A8590
:104F2000E2E07B6A0093BB6B00227B49F86800F0EB
:104F300077FA0346002B01D00123E9E0FB681B68E8
:104F40001A68FB681B6822F480621A6072B600BFA0
:104F5000FB681B681A69FB685B6AD2B21A70FB684F
:104F60005B6A5A1CFB685A62FB681B8D013B9AB254
:104F7000FB681A85FB685B8D9BB2013B9AB2FB68AC
:104F80005A85664B1B68DB08654AA2FB03231A0A95
:104F900013469B001344DA00D31A3B623B6A013B81
:104FA0003B623B6A002B18D1FB6800221A63FB6846
:104FB000202283F83D20FB68002283F83E20FB6816
:104FC0001B6C43F02002FB681A6462B600BFFB68EA
:104FD000002283F83C2001239AE0FB681B685B6990
:104FE00003F00403042BD9D1FB681B681A68FB6823
:104FF0001B6842F400721A60FB681B681A69FB6840
:105000005B6AD2B21A70FB685B6A5A1CFB685A6210
:10501000FB681B8D013B9AB2FB681A85FB685B8DB0
:105020009BB2013B9AB2FB685A8562B600BFFB682F
:105030001B681A69FB685B6AD2B21A70FB685B6A0C
:105040005A1CFB685A62FB681B8D013B9AB2FB68D5
:105050001A85FB685B8D9BB2013B9AB2FB685A854F
:1050600042E07A6AB96BF86800F084FB0346002BD3
:1050700001D001234CE0FB681B681A69FB685B6A7E
:10508000D2B21A70FB685B6A5A1CFB685A62FB68F2
:105090001B8D013B9AB2FB681A85FB685B8D9BB246
:1050A000013B9AB2FB685A85FB681B685B6903F099
:1050B0000403042B18D1FB681B681A69FB685B6A40
:1050C000D2B21A70FB685B6A5A1CFB685A62FB68B2
:1050D0001B8D013B9AB2FB681A85FB685B8D9BB206
:1050E000013B9AB2FB685A85FB681B8D002B7FF44D
:1050F00094AEFB68202283F83D20FB68002283F8F1
:105100003E20FB68002283F83C20002300E00223BD
:1051100018462837BD4680BD04000100CC0700209A
:1051200089B5F81480B588B002AFF860084611461A
:105130001A4603467B810B463B811346FB80FB6886
:105140001B681A68FB681B6842F480721A607B6AED
:1051500000933B6A00224FF00111F86800F060F9FB
:105160000346002B0DD0FB681B681B6803F480739B
:10517000B3F5807F03D1FB684FF400721A640323F8
:105180005FE07B89DBB21A46FB681B6802F0FE0217
:105190001A617B6A3A6A2D49F86800F0BBF9034648
:1051A000002B01D001234CE000237B61FB681B68CE
:1051B0005B697B61FB681B689B697B617B697A6AC1
:1051C000396AF86800F046FA0346002B0DD0FB68F8
:1051D0001B6C042B07D1FB681B681A68FB681B68F3
:1051E00042F400721A6001232BE0FB88012B05D1E9
:1051F0003B89DAB2FB681B681A6121E03B891B0A14
:105200009BB2DAB2FB681B681A617A6A396AF8687D
:1052100000F020FA0346002B0DD0FB681B6C042B1A
:1052200007D1FB681B681A68FB681B6842F40072B0
:105230001A60012305E03B89DAB2FB681B681A613A
:10524000002318461837BD4680BD00BF020001008C
:1052500080B588B002AFF860084611461A4603468A
:105260007B810B463B811346FB80FB681B681A68F9
:10527000FB681B6842F480621A60FB681B681A684E
:10528000FB681B6842F480721A607B6A00933B6A79
:1052900000224FF00111F86800F0C2F80346002B1D
:1052A0000DD0FB681B681B6803F48073B3F5807F27
:1052B00003D1FB684FF400721A640323AAE07B89D0
:1052C000DBB21A46FB681B6802F0FE021A617B6AB9
:1052D0003A6A5249F86800F01DF90346002B01D0E4
:1052E000012397E000237B61FB681B685B697B619E
:1052F000FB681B689B697B617B697A6A396AF8681D
:1053000000F0A8F90346002B0DD0FB681B6C042BA2
:1053100007D1FB681B681A68FB681B6842F40072BF
:105320001A60012376E0FB88012B05D13B89DAB2B4
:10533000FB681B681A6121E03B891B0A9BB2DAB249
:10534000FB681B681A617A6A396AF86800F082F9AA
:105350000346002B0DD0FB681B6C042B07D1FB68A8
:105360001B681A68FB681B6842F400721A6001230C
:1053700050E03B89DAB2FB681B681A617A6A396AC5
:10538000F86800F067F90346002B0DD0FB681B6C32
:10539000042B07D1FB681B681A68FB681B6842F482
:1053A00000721A60012335E0FB681B681A68FB680D
:1053B0001B6842F480721A607B6A00933B6A002289
:1053C0004FF00111F86800F02BF80346002B0DD0C8
:1053D000FB681B681B6803F48073B3F5807F03D1FF
:1053E000FB684FF400721A64032313E07B89DBB27D
:1053F00043F00103DAB2FB681B681A617B6A3A6A00
:105400000649F86800F086F80346002B01D0012316
:1054100000E0002318461837BD4680BD0200010099
:1054200080B584B000AFF860B9603B601346FB7193
:1054300048E03B68B3F1FF3F44D0FEF753F8024623
:10544000BB69D31A3A689A4202D33B68002B39D120
:10545000BB681B0CDBB2012B0DD1FB681B685B69C1
:10546000DA43BB6813409BB2002B0CBF012300231F
:10547000DBB21A460CE0FB681B689B69DA43BB6829
:1054800013409BB2002B0CBF01230023DBB21A4652
:10549000FB799A4216D1FB6800221A63FB6820222E
:1054A00083F83D20FB68002283F83E20FB681B6CDC
:1054B00043F02002FB681A64FB68002283F83C205A
:1054C000012323E0BB681B0CDBB2012B0DD1FB6871
:1054D0001B685B69DA43BB6813409BB2002B0CBFAF
:1054E00001230023DBB21A460CE0FB681B689B69B2
:1054F000DA43BB6813409BB2002B0CBF012300238F
:10550000DBB21A46FB799A4293D000231846103733
:10551000BD4680BD80B584B000AFF860B9607A60E8
:105520003B6071E0FB681B685B6903F48063B3F563
:10553000806F23D1FB681B681A68FB681B6842F404
:1055400000721A60FB681B686FF480625A61FB6826
:1055500000221A63FB68202283F83D20FB680022AA
:1055600083F83E20FB681B6C43F00402FB681A645E
:10557000FB68002283F83C20012367E07B68B3F1DD
:10558000FF3F41D0FDF7AEFF02463B68D31A7A6871
:105590009A4202D37B68002B36D1BB681B0CDBB26E
:1055A000012B0CD1FB681B685B69DA43BB681340B5
:1055B0009BB2002B14BF01230023DBB20BE0FB687E
:1055C0001B689B69DA43BB6813409BB2002B14BF76
:1055D00001230023DBB2002B16D0FB6800221A63E4
:1055E000FB68202283F83D20FB68002283F83E20E0
:1055F000FB681B6C43F02002FB681A64FB68002206
:1056000083F83C20012321E0BB681B0CDBB2012B9B
:105610000CD1FB681B685B69DA43BB6813409BB223
:10562000002B14BF01230023DBB20BE0FB681B68D7
:105630009B69DA43BB6813409BB2002B14BF012364
:105640000023DBB2002B7FF46DAF00231846103728
:10565000BD4680BD80B584B000AFF860B9607A60A7
:1056600034E0F86800F0E3F80346002B01D0012392
:1056700034E0BB68B3F1FF3F28D0FDF733FF0246AB
:105680007B68D31ABA689A4202D3BB68002B1DD13B
:10569000FB681B685B6903F08003802B16D0FB68F6
:1056A00000221A63FB68202283F83D20FB68002259
:1056B00083F83E20FB681B6C43F02002FB681A64F1
:1056C000FB68002283F83C20012307E0FB681B688D
:1056D0005B6903F08003802BC3D100231846103789
:1056E000BD4680BD80B584B000AFF860B9607A6017
:1056F00034E0F86800F09BF80346002B01D001234A
:1057000034E0BB68B3F1FF3F28D0FDF7EBFE024663
:105710007B68D31ABA689A4202D3BB68002B1DD1AA
:10572000FB681B685B6903F00403042B16D0FB685D
:1057300000221A63FB68202283F83D20FB680022C8
:1057400083F83E20FB681B6C43F02002FB681A6460
:10575000FB68002283F83C20012307E0FB681B68FC
:105760005B6903F00403042BC3D1002318461037F0
:10577000BD4680BD80B584B000AFF860B9607A6086
:1057800049E0FB681B685B6903F01003102B19D11B
:10579000FB681B686FF010025A61FB6800221A63F5
:1057A000FB68202283F83D20FB68002283F83E201E
:1057B000FB681A6CFB681A64FB68002283F83C20C3
:1057C000012330E0FDF78EFE02467B68D31ABA68EB
:1057D0009A4202D3BB68002B1DD1FB681B685B6932
:1057E00003F04003402B16D0FB6800221A63FB68CD
:1057F000202283F83D20FB68002283F83E20FB68CE
:105800001B6C43F02002FB681A64FB68002283F8DB
:105810003C20012307E0FB681B685B6903F0400341
:10582000402BAED1002318461037BD4680BD80B452
:1058300083B000AF78607B681B685B6903F48063AA
:10584000B3F5806F1BD17B681B686FF480625A616F
:105850007B6800221A637B68202283F83D207B68E6
:10586000002283F83E207B681B6C43F004027B68B7
:105870001A647B68002283F83C20012300E00023A7
:1058800018460C37BD4680BC7047000080B586B016
:1058900000AF78607B68002B01D1012372E27B6846
:1058A0001B6803F00103002B00F08780924B5B68BC
:1058B00003F00C03042B0CD08F4B5B6803F00C033C
:1058C000082B12D18C4B5B6803F48033B3F5803F17
:1058D0000BD1894B1B6803F40033002B6CD07B6821
:1058E0005B68002B68D101234CE27B685B68B3F5F1
:1058F000803F06D1804B1B687F4A43F4803313609E
:105900002EE07B685B68002B0CD17B4B1B687A4ACE
:1059100023F480331360784B1B68774A23F4802389
:1059200013601DE07B685B68B3F5A02F0CD1724B50
:105930001B68714A43F4802313606F4B1B686E4AE7
:1059400043F4803313600BE06B4B1B686A4A23F40B
:1059500080331360684B1B68674A23F4802313600D
:105960007B685B68002B13D0FDF7BCFD386108E055
:10597000FDF7B8FD02463B69D31A642B01D9032316
:1059800000E25D4B1B6803F40033002BF0D014E001
:10599000FDF7A8FD386108E0FDF7A4FD02463B696C
:1059A000D31A642B01D90323ECE1534B1B6803F496
:1059B0000033002BF0D100E000BF7B681B6803F0D0
:1059C0000203002B63D04C4B5B6803F00C03002BED
:1059D0000BD0494B5B6803F00C03082B1CD1464BE2
:1059E0005B6803F48033002B16D1434B1B6803F034
:1059F0000203002B05D07B681B69012B01D001231A
:105A0000C0E13D4B1B6823F0F8027B685B69DB005B
:105A1000394913430B603AE07B681B69002B20D0A7
:105A2000364B01221A60FDF75DFD386108E0FDF795
:105A300059FD02463B69D31A022B01D90323A1E188
:105A40002D4B1B6803F00203002BF0D02A4B1B6880
:105A500023F0F8027B685B69DB00274913430B6086
:105A600015E0264B00221A60FDF73CFD386108E086
:105A7000FDF738FD02463B69D31A022B01D90323F7
:105A800080E11D4B1B6803F00203002BF0D17B6803
:105A90001B6803F00803002B3AD07B689B69002B3E
:105AA00019D0174B01221A60FDF71CFD386108E080
:105AB000FDF718FD02463B69D31A022B01D90323D7
:105AC00060E10D4B5B6A03F00203002BF0D0012074
:105AD00000F0BAFA1CE00A4B00221A60FDF702FD42
